:0300000002008477
:0C008400787FE4F6D8FD75810902009B2E
:08009B0012007512000380FB46
:0F007500759850758920758DFD758BFDD28E2283
:1000030075A0FEAFA07508008F095309F0750800AD
:10001300E50964F0450860597F057E00120090AF42
:10002300A07508008F095309F0750800E50964F00D
:10003300450860DCAFA07508008F09E508701BE573
:10004300092482600E24C0600A24E0600624F07054
:100053000980007F047E001200A3E50964F04508CF
:1000630060CAAFA07508008F095309F075080080B6
:02007300E92280
:0800A3008F993099FDC29922EA
:0B009000EF1FAC0670011E4C70F62242
:00000001FF
