:030000000213BA2E
:0C13BA00787FE4F6D8FD75816302140111
:0416E400021D932828
:09157A007C0012116E7F1E7E0040
:10158300E4FDFCC3ED9FEC9E5014E4FBFA0BBB009F
:0E159300010AEBF44A70F60DBD00010C80E574
:0115A1002227
:10167600C2A2C2A5D2A3C2A48D80D2A0C2A08F80CE
:05168600D2A4D2A22253
:10168B00C2A2D2A58D80D2A0C2A08F80C2A4D2A4A8
:03169B00D2A222B6
:0416DB00AD07AC06A5
:0516DF00AF0402168BB0
:10105B007D01FCFF12116E7D007C017F0112116E70
:10106B007D007C077F0212116E7D307C107F031296
:10107B00116EE4FDFC7F0412116E7402FDFC7F08FF
:10108B0012116EE4FDFC7F0912116EE4FDFC7F0A68
:10109B0012116EE4FDFC7F0C12116EE4FDFC7F0D52
:1010AB0012116EE4FDFC7F0F12116E7F1E7E00127B
:1010BB0015837DB07C167F1012116E7F1E7E001281
:1010CB0015837D077C007F1112116E7D3A7C017FA9
:1010DB001212116E7D007C1A7F1312116E7F1E7E11
:1010EB00001215837D0C7C007F2912116E7F1E7EF2
:1010FB0000121583E4FDFC7F3012116E7405FDFCAC
:10110B007F3112116E7D047C037F3212116E7D06CE
:10111B007C007F3512116E7407FDFC7F3612116E49
:10112B007D057C017F3712116E7D027C007F3812AA
:10113B00116E7407FDFC7F3912116E7D047C077FE5
:10114B003C12116E7D077C087F3D12116EE4FDFC95
:10115B007F5012116E7DEF7C007F5112116EE4FDFA
:03116B00FC7F52B4
:06116E00AB05AA04AC076A
:10117400AF02AE07AD04E4FF121676AF06AD03026C
:02118400168BC8
:100C3F00D2A17F017E00121583C2A17F0A121583F4
:100C4F00D2A17F32121583E51E64207004E51D6466
:100C5F0093702412105B7D3F7C017F5312116E7DC8
:100C6F00007C277F6012116E7D017C007F61121165
:100C7F006EE4FDFC020CB7E51E64057004E51D640F
:100C8F00156003020D3412105B7D3F7C017F531200
:100C9F00116E7D007C277F6012116E7D017C007FBD
:100CAF006112116E7D007C277F6A12116EE4FDFCCC
:100CBF007F2012116EE4FDFC7F2112116EE4FDFC0A
:100CCF007F8012116EE4FDFC7F8112116EE4FDFC3A
:100CDF007F8212116EE4FDFC7F8312116EE4FDFC26
:100CEF007F8412116EE4FDFC7F8512116E7D107CE6
:100CFF00007F9012116EE4FDFC7F9212116E7D0346
:100D0F007C007F9312116E7D107C017F9512116E06
:100D1F00E4FDFC7F9712116EE4FDFC7F9812116EBB
:100D2F007D73020EE5E51E64287004E51D64936073
:100D3F0003020EECFD7C017F0112116E7D007C071A
:100D4F007F0212116E7D307C107F0312116EE4FD55
:100D5F00FC7F0412116E7D017C007FA412116E7452
:100D6F0002FDFC7F0812116EE4FDFC7F0912116E6B
:100D7F00E4FDFC7F0A12116EE4FDFC7F0C12116E74
:100D8F00E4FDFC7F0D12116EE4FDFC7F0F12116E5E
:100D9F00E4FDFC7F1012116E7D077C007F11121194
:100DAF006EE4FDFC7F1212116EE4FDFC7F13121531
:100DBF007C7D907C167F1012116E7D277C027F1137
:100DCF0012157C7D1C7F1212157A7D007C187F1303
:100DDF0012116E7D1C7C007F2912116E7D0D7F2BF1
:100DEF0012157AE4FDFC7F2012116EE4FDFC7F21C9
:100DFF0012116E7D077C007F3012116E7D027C0315
:100E0F007F3112116E7D057C017F3212116E7D06CE
:100E1F007C027F3512116E7408FDFC7F3612116E45
:100E2F007D067C027F3712116E7D047C057F3812A0
:100E3F00116E7D077C007F3912116E7D057C017F5D
:100E4F003C12116E7408FDFC12115312157F7D3F79
:100E5F007C017F5312157C7D007CA77F6012116E81
:100E6F007D017C007F6112116EE4FDFC7F6A12111F
:100E7F006EE4FDFC7F8012116EE4FDFC7F81121188
:100E8F006EE4FDFC7F8212116EE4FDFC7F83121174
:100E9F006EE4FDFC7F8412116EE4FDFC7F85121160
:100EAF006E7D107C007F9012116EE4FDFC7F92121C
:100EBF00116E7D037C007F9312116E7D107C017F7C
:100ECF009512116EE4FDFC7F9712116EE4FDFC7F0D
:0E0EDF009812116E7D337C017F0712116E2276
:1014FA008E4C8F4D8C4E8D4F8B828A83AD4DAC4C6A
:10150A007F5012116EAD4FAC4E7F5112116EAD82EB
:10151A00AC837F5212116EAD53AC527F5312116ECF
:10152A00AD4DAC4C7F2012116EAD82AC837F21127F
:09153A00116E7D22E4FF02167619
:041543008E378F3818
:10154700755201755340E4FBFA7DF0FCFFFE12145F
:10155700FAE4FBFA900000AF38AE371216DBA3E5CA
:101567008264F0458370F00BBB00010ABA01E5BB4A
:0215770040E250
:01157900224F
:101656008A418B428D828C83AD07AC06AB82AA830E
:101666008583528582531214FAAF42AE410216DBCD
:061446008F548C558D56F9
:10144C00E5542B14F55BE5562559CFE5553558CFAA
:10145C0024FFF55DEF34FFF55CAF547E00AD5B7C93
:10146C0000F552855D53AB56AA551214FAA954E9EE
:10147C00C3955B501EAB56AA55C3EB955DEA955CC4
:10148C00500EAF5A7E001216DB0BBB00010A80E92E
:03149C000980DCE8
:01149F00222A
:0C1186008E378F388C398D3A8A3B8B3CB9
:10119200E4F53FF540AC3FAD40E4120ACB7BD87A90
:1011A2000F794978401208A7E4FBFA7934784312A0
:1011B20009B0120F35C004C005C006C007AC3BAD74
:1011C2003CE4120ACBD003D002D001D0001208A70F
:1011D200C004C005C006C007AC37AD38E4120ACB64
:1011E200D003D002D001D0001207B6120B04C00601
:1011F200C007AC3FAD40E4120ACB7BD87A0F7949E5
:1012020078401208A7E4FBFA793478431209B01245
:101212000F4BC004C005C006C007AC3BAD3CE41296
:101222000ACBD003D002D001D0001208A7C004C05C
:1012320005C006C007AC39AD3AE4120ACBD003D0E0
:1012420002D001D0001207B6120B04AD07AC06D0D3
:1012520007D006AB3EAA3D1216560540E540700285
:0E126200053FD39468E53F94015003021197B5
:01127000225B
:08131C00AA07A9038D828C834E
:10132400E4F511F512F513F514F515F5167E00C064
:1013340007E92AFFE433CF24FFFDEF34FFFCAB823F
:10134400AA83E50D2582CFE50C3583CF24FFF55321
:10135400EF34FFF552D0071214FAAF017E00AC0C43
:10136400AD0D120BFFEF25E0F516EE33F515AB0EC0
:10137400AA0FA910E5142401FFE435138F82F58325
:10138400120BD2751100F512751200F51185148235
:10139400851383120BD24212AF12AE111216DB74F4
:1013A400022514F514E43513F513C3E5149516E575
:0513B40013951540B97E
:0113B9002211
:061614008C188D198B1AE1
:10161A00A907E9C3951A5012E9FF7E00AB1CAA1B61
:0A162A00AD19AC181216560980E83D
:011634002293
:041635008F5E8B61D8
:10163900AF05A907E9C395615012AF5E7E00E9FDC8
:0C1649007C00AB63AA621216560980E810
:011655002272
:0C1271008E378F388B828A83AB05AA046D
:10127D00AC3DAD3EAF82AE83120BFFEF7803CEC314
:10128D0013CE13D8F9F5498E48E5382582CFE537C9
:10129D003583CF24FFFDEF34FFFCE53E2BCFE53D3D
:1012AD003ACF24FFF553EF34FFF552AF38AE371276
:1012BD0014FAE4F546F547C3E5479549E5469548E3
:0212CD00504C83
:1012CF00AB3FAA40A941854782854683120BD2FFC7
:1012DF003395E0F54A8F4BE4FBFAE54B30E706AF69
:1012EF0043AE428004AF45AE441216DBE54B25E01A
:1012FF00F54BE54A33F54A0BBB00010AEB64084A8C
:02130F0070D894
:0A1311000547E54770AD054680A9C9
:01131B0022AF
:1014A0000000001824424242424242241800000038
:1014B00000001070101010101010107C00000000C0
:1014C000003C42420204081020427E00000000005E
:1014D0003C42420418040242423C00000000000862
:1014E00008182848487E08081E00000000007E40BA
:0A14F000405C62020242423C000030
:10000300120C3F74FFFFFE121543E4F528F527F5A4
:1000130026F525F524F523F522F521F529752A780A
:10002300F52B752C64F53375341EF52D752EC3AC85
:100033002DAD2EE4120ACB7BDA7A0F794978401280
:1000430008A7E4FBFA793478431209B0120F35E4B8
:10005300FBFA798078401208A7C004C005C006C027
:1000630007AC33AD34E4120ACBD003D002D001D0B5
:10007300001208A7C004C005C006C007AC29AD2AFA
:10008300E4120ACBD003D002D001D0001207B6127B
:100093000B04C006C007AC2DAD2EE4120ACB7BDAED
:1000A3007A0F794978401208A7E4FBFA7934784348
:1000B3001209B0120F4BE4FBFA794078401208A7FB
:1000C300C004C005C006C007AC33AD34E4120ACB8C
:1000D300D003D002D001D0001208A7C004C005C0CD
:1000E30006C007AC2BAD2CE4120ACBD003D002D050
:1000F30001D0001207B6120B04AD07AC06D007D02F
:1001030006E4FBFA121656052EE52E7002052DD3D2
:100113009459E52D94015003020032E4F52DF52E98
:10012300E4F53DF53EAB2EAA2DAD2CAC2BAF2AAE9C
:1001330029121186052EE52E7002052DC39404E5C0
:100143002D940040DB752D00752EC3E4F52FF5309B
:10015300D3E52E9459E52D940140030205A3AC2D5C
:10016300AD2EE4120ACB7BDA7A0F79497840120874
:10017300A7E4FBFA793478431209B0120F35E4FB94
:10018300FA798078401208A7C004C005C006C007EA
:10019300AC33AD34E4120ACBD003D002D001D0008B
:1001A3001208A7C004C005C006C007AC29AD2AE4E5
:1001B300120ACBD003D002D001D0001207B6120B23
:1001C300048E298F2AAC2DAD2EE4120ACB7BDA7A6A
:1001D3000F794978401208A7E4FBFA79347843127F
:1001E30009B0120F4BE4FBFA794078401208A7C01C
:1001F30004C005C006C007AC33AD34E4120ACBD04B
:1002030003D002D001D0001208A7C004C005C00665
:10021300C007AC2BAD2CE4120ACBD003D002D00123
:10022300D0001207B6120B048E2B8F2CE4F535F594
:1002330036E52E244CFDE52D34FFFCE4120ACB7B7E
:10024300DA7A0F794978401208A7E4FBFA7934780F
:10025300431209B0120F35C004C005C006C007AC75
:1002630035AD36E4120ACBD003D002D001D0001250
:1002730008A7C004C005C006C007AC29AD2AE41214
:100283000ACBD003D002D001D0001207B6120B0460
:10029300C006C007E52E244CFDE52D34FFFCE41217
:1002A3000ACB7BDA7A0F794978401208A7E4FBFA84
:1002B300793478431209B0120F4BC004C005C0064D
:1002C300C007AC35AD36E4120ACBD003D002D0015F
:1002D300D0001208A7C004C005C006C007AC2BADF0
:1002E3002CE4120ACBD003D002D001D0001207B6FF
:1002F300120B04AD07AC06D007D006E4FBFA1216C6
:10030300560536E53670020535C3940CE535940081
:100313005003020234C3E5309403E52F9400AE2F5B
:10032300AF307C007D0F5020120BFF74A02FF974A7
:10033300143E753FFFF5408941E52A2405FFE43566
:1003430029FEE52C2405801F120BFF74A02FF974DE
:10035300143E753FFFF5408941E52A24F3FFE52963
:1003630034FFFEE52C2403FDE4352BFC753D0075BD
:100373003E0FE4F542F54374FFF544F5457B087AF7
:1003830000121271C3E5309405E52F940040030277
:100393000581852D31852E32E52E241EFFE4352D72
:1003A300FEC3E5329FE5319E4003020581752900B6
:1003B300752A78752B00752C64AC31AD32E4120AC2
:1003C300CB7BDA7A0F794978401208A7E4FBFA79F4
:1003D3003478431209B0120F35E4FBFA7980784080
:1003E3001208A7C004C005C006C007AC33AD34E48F
:1003F300120ACBD003D002D001D0001208A7C00448
:10040300C005C006C007AC29AD2AE4120ACBD0034D
:10041300D002D001D0001207B6120B048E298F2A06
:10042300AC31AD32E4120ACB7BDA7A0F79497840EA
:100433001208A7E4FBFA793478431209B0120F4B80
:10044300E4FBFA794078401208A7C004C005C0064F
:10045300C007AC33AD34E4120ACBD003D002D001D1
:10046300D0001208A7C004C005C006C007AC2BAD5E
:100473002CE4120ACBD003D002D001D0001207B66D
:10048300120B048E2B8F2CE4F535F536E532244C14
:10049300FDE53134FFFCE4120ACB7BDA7A0F7949AC
:1004A30078401208A7E4FBFA793478431209B012B2
:1004B3000F35C004C005C006C007AC35AD36E41225
:1004C3000ACBD003D002D001D0001208A7C004C0C9
:1004D30005C006C007AC29AD2AE4120ACBD003D06D
:1004E30002D001D0001207B6120B04C006C007E504
:1004F30032244CFDE53134FFFCE4120ACB7BDA7A7B
:100503000F794978401208A7E4FBFA79347843124B
:1005130009B0120F4BC004C005C006C007AC35AD0F
:1005230036E4120ACBD003D002D001D0001208A7C0
:10053300C004C005C006C007AC2BAD2CE4120ACB27
:10054300D003D002D001D0001207B6120B04AD07BE
:10055300AC06D007D006E4FBFA1216560536E5368C
:1005630070020535C39406E5359400500302048FE9
:1005730074062532F532E43531F53102039B7529D2
:1005830000752A78752B00752C64741E252EF52EA4
:10059300E4352DF52D0530E5307002052F020153AA
:1005A3007F011215EFAC07E4120AD07B9A7A99798E
:1005B3009978401208A7E4FBFA798078431209B0CE
:1005C3007B9A7A99799978401209B0E4FBFA791603
:1005D30078431208A7120B04AD07AC06EC120ACB42
:1005E3008F288E278D268C25AB28AA27A926A825F8
:1005F300AF24AE23AD22AC211207B2120B041216A4
:10060300BBAC06AD07EC120ACBE4FBFAF9783F1258
:100613000A4D40030207A0E4F535F536E4FFFE7DFD
:10062300437C43AB24AA23A922A8211207B67BDA71
:100633007A0F794978401208A7E4FBFA79347843B2
:100643001209B0120F35C004C005C006C007AC358F
:10065300AD36E4120ACBD003D002D001D000120889
:10066300A7E4FBFA79F078421207B6120B04C0062E
:10067300C007E4FFFE7D437C43AB24AA23A922A841
:10068300211207B67BDA7A0F794978401208A7E47A
:10069300FBFA793478431209B0120F4BC004C0053A
:1006A300C006C007AC35AD36E4120ACBD003D00286
:1006B300D001D0001208A7E4FBFA79C878421207E8
:1006C300B6120B04AD07AC06D007D00674FFFBFAD5
:1006D300121656E4FFFE7D437C43AB28AA27A926C6
:1006E300A8251207B67BDA7A0F794978401208A752
:1006F300E4FBFA793478431209B0120F35C004C011
:1007030005C006C007AC35AD36E4120ACBD003D022
:1007130002D001D0001208A7E4FBFA79F078421264
:1007230007B6120B04C006C007E4FFFE7D437C43FB
:10073300AB28AA27A926A8251207B67BDA7A0F7950
:100743004978401208A7E4FBFA793478431209B0D8
:10075300120F4BC004C005C006C007AC35AD36E46C
:10076300120ACBD003D002D001D0001208A7E4FBB9
:10077300FA79C878421207B6120B04AD07AC06D05B
:1007830007D006E4FBFA1216560536E53670020565
:1007930035C3943CE5359400500302061F85282495
:0C07A3008527238526228525210205A339
:0D16AE00D2A700D2A600C2A700C2A600224B
:0A16C700C2A700D2A600D2A700229D
:0A16D100D2A60020A7FDC2A6002249
:10169E00300004D2A78002C2A7D2A600C2A60022A2
:1015C900E4FEEF30E704D2A78002C2A700D2A6004A
:1015D90000000000C2A60000000000EF25E0FF0E99
:0615E900BE08DF0216D16E
:1015A200D2A700E4FED2A60000000000EF25E0FD75
:1015B200A2A7E4334DFFC2A600000000000EBE0841
:0615C200E4C20012169EB7
:0115C8002200
:0215EF00AD0746
:1015F1001216AE7F901215C9ED4440FF1215C912A3
:1016010016AE7F911215C91215A2D20012169E12A2
:0216110016C7FA
:0116130022B4
:1007AF00020B70E86480F8E933E83360110460F0FD
:1007BF00ED33EC337009E8FCE9FDEAFEEBFF2204B0
:1007CF0060DED3EB9FEA9EE99DE8C2E78CF0C2F7AB
:1007DF0095F0400CE8CCF8E9CDF9EACEFAEBCFFB77
:1007EF00120B3B85D0F05804700320D5B3E804708A
:1007FF00075002B2D5020B7A92D5EC0460F7E4CC25
:10080F00C0E0C398F8603B94186008400DD0E0FB3F
:10081F00020B52E4FBFAC9FC8028E830E406E4C975
:10082F00FBE4CAFCE830E305E4C9CACBFCE8540793
:10083F006010F8C3E913F9EA13FAEB13FBEC13FC9E
:10084F00D8F130F52FC3E49CFCEF9BFFEE9AFEED41
:10085F0099FDD0E0FBEF4E4D4C701222DB03020BE3
:10086F0077EC2CFCEF33FFEE33FEED33FDED30E78D
:10087F00EB020B52EF2BFFEE3AFEED39FDD0E0FB12
:10088F0050130BBB0003020B7AED13FDEE13FEEFBB
:08089F0013FFEC13FC020B52E5
:1008A700EC4D6011E8497017ED33EC3304600DE44B
:1008B700FCFFFEFD22E933E8330470F8020B7012E7
:1008C7000B3B58046009E4CC2481500628500902E8
:1008D7000B7A284003020B77C0E0EB4A7044B980DB
:1008E70006D0E0FB020B66EF4E701CBD8008EBFFE5
:1008F700EAFEE9FD80EBE98DF0A4FEE5F002099040
:10090700E9CDF9EAFEEBFFEF89F0A4FCE5F0CE892B
:10091700F0A42EFFE435F0CD89F0A42DFEE435F0E8
:100927008067EF4E7005BD80D780C3EF8BF0A4AC16
:10093700F0EE8BF0A42CFCE435F0F8EF8AF0A42C51
:10094700E5F038FCE433CB8DF0A42CFCE5F03BF864
:10095700EE8AF0A42CFCE5F038F8E433CF89F0A454
:100967002CFCE5F038CF3400CE89F0A42FFFE5F05A
:100977003EFEE433C98DF0A42EFEE5F039CD8AF0B2
:10098700A42FFFE5F03EFEE43DFD33D0E0FB50072A
:100997000BBB000F020B7AEC2CFCEF33FFEE33FEA0
:0609A700ED33FD020B52CE
:1009AD00020B7AEC5D046005E859047003020B70CC
:1009BD00120B3B580460F6EC4860F2EC7004FDFE3F
:1009CD00FF22C860DB2481C85009C398600250061D
:1009DD00020B779850CAF582E9294B4A7005AB8214
:1009ED00020B6675F0007C1A7880C3EF9BEE9AEDD2
:1009FD0099400DC3EF9BFFEE9AFEED99FDE842F095
:100A0D00DC23ACF0D0E0FFD0E0FED0E0FDAB8220E7
:100A1D00E7101BEB60BAEC2CFCEF33FFEE33FEED71
:100A2D0033FD020B52E803F830E705C0F075F00016
:100A3D00EF2FFFEE33FEED33FD40B830E7C280AA55
:100A4D0074F8CC6480CCC86480C8F58204604FC350
:100A5D00EB9FF5F0EA9E42F0E99D42F0E89C45F0EF
:100A6D00603C501DE5825FFFE582D313CB5BCBF479
:100A7D002B5582FB50280ABA002409B900200880A2
:100A8D001DE5825BFBE582D313CF5FCFF4C3132F3C
:100A9D005582FF50090EBE00050DBD00010CC3EBC4
:100AAD009FF5F0EA9E42F0E99D42F0E89C45F0602A
:090ABD0007CC4820E701B3EC224C
:100AC60075F020800E75F010800575F0087D007EAB
:100AD600007F003392D530D503120C11EC33401051
:100AE600EF33FFEE33FEED33FDEC33FCD5F0ED22B4
:0E0AF600E5F0247EA2D513CC92E7CDCEFF22F0
:100B0400EDD2E7CD33EC3392D524814006E4FFFEE9
:100B1400FDFC22FCE4CFCECDCC24E0501174FF8048
:100B2400EDC3CC13CCCD13CDCE13CECF13CF0470E5
:070B3400F030D5DE020C11C8
:100EED003A70FA83BCAAE9E43E81E0F8BF9DE9E6D9
:100EFD003F80000039283C1ABB9969663DA335E354
:100F0D00BF255DE73FC90FDB418DDBCCC44936EE14
:100F1D0045C9913FC5B0F83D3F800000C317F5347A
:100F2D00452FFA73C60AFDDD120FDC04A2E1920013
:100F3D001420E015900EED7404120B858026120F0F
:100F4D00DC30E102B20020E0EB8C418D428E438F0C
:100F5D0044900F017404120B85A841A942AA43AB1A
:100F6D00441208A7ED4C6007300004EC6480FC22AD
:100F7D00120FDCC0E08C418D428E438F44900F25C3
:100F8D007403120B85A841A942AA43AB441208A7CA
:100F9D00ECC541FCEDC542FDEEC543FEEFC544FF7A
:100FAD00900F157403120B85D082A841A942AA4354
:100FBD00AB44E58230E0071209B0B20080A6EFCB5A
:100FCD00FFEECAFEEDC9FDECC8FC1209B08095ED2F
:100FDD0033EC547FCC33920024605007D0E0D0E046
:100FED00020B707B837AF97922783E1208A7EDF90E
:100FFD0033ECF83324815011EFFBEEFA120B04128F
:10100D000AC6ECB2E7FC1207B6ED33EC33602F24C1
:10101D0003F8C313FCED92E7FDE82481E4501FECC7
:10102D00F8EDF9EEFAEFFB120B04EF04C2E0FCF55C
:10103D0082120AD0ECB2E7FC1207B6E58203FAED94
:0E104D0033EC3360071413FCED92E7FDEA224A
:100B3B00E9D2E7C933E833F892D5EDD2E7CD33EC00
:070B4B0033FC5002B2D52279
:100B5200EC30E7100FBF000C0EBE00080DBD000404
:100B62000BEB6014A2D5EB13FCED92E7FD2274FFB0
:100B7200FCFDFEFF22E480F8A2D574FF13FC7D8009
:030B8200E480EF1D
:100B8500C0E0EFFBEEFAEDF9ECF81208A7D0E0F5BE
:100B9500F0EFFBEEFAEDF9ECF8120C1FA3A3A3A3FB
:100BA500E8C0E0E9C0E0EAC0E0EBC0E0C0F0120850
:100BB500A7120C2FA3A3A3A31207B6D0F0D0E0FB76
:0D0BC500D0E0FAD0E0F9D0E0F8D5F0D4226D
:1013C600020003E493A3F8E493A34003F68001F23A
:1013D60008DFF48029E493A3F85407240CC8C33328
:1013E600C4540F4420C8834004F456800146F6DFF7
:1013F600E4800B01020408102040809016E4E47E8D
:10140600019360BCA3FF543F30E509541FFEE493EB
:10141600A360010ECF54C025E060A840B8E493A3B2
:10142600FAE493A3F8E493A3C8C582C8CAC583CADD
:10143600F0A3C8C582C8CAC583CADFE9DEE780BE95
:0116E8000001
:100BD200BB010CE58229F582E5833AF583E02250D8
:100BE20006E92582F8E622BBFE06E92582F8E22222
:0D0BF200E58229F582E5833AF583E493223C
:100BFF00EF8DF0A4A8F0CF8CF0A428CE8DF0A42E0A
:020C0F00FE22C3
:0E0C1100C3E49FFFE49EFEE49DFDE49CFC22F4
:100C1F00E493FC740193FD740293FE740393FF221B
:100C2F00E493F8740193F9740293FA740393FB221B
:0C16BB00EE30E707C3E49FFFE49EFE2230
:00000001FF
