:03000000020C8867
:0C0C8800787FE4F6D8FD75813A020B2F4E
:100AAF0000000000000000000000000001C0000076
:100ABF0003A001400080008430822C8643E460B4A0
:100ACF00209C2080008000C081606130721C0C0867
:100ADF0000040004001800100030000000000000A7
:100AEF0000000000000000000000000001C0000036
:100AFF0003A0014000800080008000800FC638C432
:100B0F0020E630B6189C08C0006000B0009C0108B9
:100B1F0039041A041C1800100030000000000000F7
:100B2F007516937517281203DBE4FFFE120BE175A0
:100B3F00210075223CC3E52294C8E521940050EFB3
:100B4F0075297F752AFFE4F52BF52CFB120A137F0D
:100B5F00787E00120C21E4F529F52AF52BF52CFBF4
:100B6F00120A1375297F752AFFE4120A0D7F787E0A
:100B7F0000120C21E4F529F52A120A0D740625221C
:090B8F00F522E43521F52180ACCA
:0E0A0D00F52BF52C7B01FA7D78FCAF22AE2193
:080A1B008A278B288D828C8351
:100A2300EF240FFDE43EFCAB82AA83E582241FF58D
:0E0A33003AE43583F539120B98E4F52DF52ED3
:100A4100E528C4F8540FC868FFE527C454F048FEF0
:100A5100E52E2FFFE52D3EFE74AF2FF582740A3E81
:100A6100F583E493753100F532E4F52FF530E53285
:100A710030E706AF2AAE298004AF2CAE2B120C94BE
:100A8100E53225E0F532E53133F5310530E53070F9
:0C0A910002052FC39408E52F940040D20A
:100A9D00052EE52E7002052DC39440E52D940040E2
:010AAD0093B5
:010AAE002225
:090C18007C0012090A7F1E7E0017
:100C2100E4FDFCC3ED9FEC9E5014E4FBFA0BBB000A
:0E0C3100010AEBF44A70F60DBD00010C80E5DF
:010C3F002292
:100C6000C2A2C2A5D2A3C2A48D80D2A0C2A08F80EE
:050C7000D2A4D2A22273
:100C7500C2A2D2A58D80D2A0C2A08F80C2A4D2A4C8
:030C8500D2A222D6
:040C9400AD07AC06F6
:050C9800AF04020C7521
:1007F7007D01FCFF12090A7D007C017F0112090AB5
:100807007D007C077F0212090A7D307C107F03126E
:10081700090AE4FDFC7F0412090A7402FDFC7F0843
:1008270012090AE4FDFC7F0912090AE4FDFC7F0AAC
:1008370012090AE4FDFC7F0C12090AE4FDFC7F0D96
:1008470012090AE4FDFC7F0F12090A7F1E7E0012BF
:100857000C217DB07C167F1012090A7F1E7E0012C4
:100867000C217D077C007F1112090A7D3A7C017FEC
:100877001212090A7D007C1A7F1312090A7F1E7E55
:1008870000120C217D0C7C007F2912090A7F1E7E35
:1008970000120C21E4FDFC7F3012090A7405FDFCEF
:1008A7007F3112090A7D047C037F3212090A7D0613
:1008B7007C007F3512090A7407FDFC7F3612090A8E
:1008C7007D057C017F3712090A7D027C007F381283
:1008D700090A7407FDFC7F3912090A7D047C077F2A
:1008E7003C12090A7D077C087F3D12090AE4FDFCDA
:1008F7007F5012090A7DEF7C007F5112090AE4FD3F
:03090700FC7F5220
:06090A00AB05AA04AC07D6
:10091000AF02AE07AD04E4FF120C60AF06AD0302F8
:020920000C7554
:1003DB00D2A17F017E00120C21C2A17F0A120C2137
:1003EB00D2A17F32120C21E51764207004E516644C
:1003FB009370241207F77D3F7C017F5312090A7D0E
:10040B00007C277F6012090A7D017C007F61120945
:10041B000AE4FDFC020453E51764057004E5166459
:10042B001560030204D01207F77D3F7C017F531246
:10043B00090A7D007C277F6012090A7D017C007F01
:10044B006112090A7D007C277F6A12090AE4FDFC10
:10045B007F2012090AE4FDFC7F2112090AE4FDFC4E
:10046B007F8012090AE4FDFC7F8112090AE4FDFC7E
:10047B007F8212090AE4FDFC7F8312090AE4FDFC6A
:10048B007F8412090AE4FDFC7F8512090A7D107C2A
:10049B00007F9012090AE4FDFC7F9212090A7D038A
:1004AB007C007F9312090A7D107C017F9512090A4B
:1004BB00E4FDFC7F9712090AE4FDFC7F9812090A00
:1004CB007D73020681E51764287004E5166493605A
:1004DB0003020688FD7C017F0112090A7D007C075F
:1004EB007F0212090A7D307C107F0312090AE4FD9A
:1004FB00FC7F0412090A7D017C007FA412090A7497
:10050B0002FDFC7F0812090AE4FDFC7F0912090AAF
:10051B00E4FDFC7F0A12090AE4FDFC7F0C12090AB8
:10052B00E4FDFC7F0D12090AE4FDFC7F0F12090AA2
:10053B00E4FDFC7F1012090A7D077C007F11120974
:10054B000AE4FDFC7F1212090AE4FDFC7F13120C76
:10055B001A7D907C167F1012090A7D277C027F1171
:10056B00120C1A7D1C7F12120C187D007C187F1345
:10057B0012090A7D1C7C007F2912090A7D0D7F2B35
:10058B00120C18E4FDFC7F2012090AE4FDFC7F210C
:10059B0012090A7D077C007F3012090A7D027C0359
:1005AB007F3112090A7D057C017F3212090A7D0613
:1005BB007C027F3512090A7408FDFC7F3612090A8A
:1005CB007D067C027F3712090A7D047C057F381279
:1005DB00090A7D077C007F3912090A7D057C017FA2
:1005EB003C12090A7408FDFC1208EF120C1D7D3F2A
:1005FB007C017F53120C1A7D007CA77F6012090AC5
:10060B007D017C007F6112090AE4FDFC7F6A1209FF
:10061B000AE4FDFC7F8012090AE4FDFC7F811209CC
:10062B000AE4FDFC7F8212090AE4FDFC7F831209B8
:10063B000AE4FDFC7F8412090AE4FDFC7F851209A4
:10064B000A7D107C007F9012090AE4FDFC7F921258
:10065B00090A7D037C007F9312090A7D107C017FC0
:10066B009512090AE4FDFC7F9712090AE4FDFC7F51
:0E067B009812090A7D337C017F0712090A22BA
:100B98008E338F348C358D368B828A83AD34AC336B
:100BA8007F5012090AAD36AC357F5112090AAD8261
:100BB800AC837F5212090AAD3AAC397F5312090A45
:100BC800AD34AC337F2012090AAD82AC837F211289
:090BD800090A7D22E4FF020C6011
:040BE1008E238F24AC
:100BE500753901753A40E4FBFA7DF0FCFFFE120B06
:100BF50098E4FBFA900000AF24AE23120C94A3E511
:100C05008264F0458370F00BBB00010ABA01E5BBB5
:020C150040E2BB
:010C170022BA
:100C40008A188B198D828C83AD07AC06AB82AA8380
:100C500085833985823A120B98AF19AE18020C942D
:0C0922008E088F098C0A8D0B8A0C8B0D3F
:10092E00E4F510F511AC10AD11E41202A67BD87AE5
:10093E000F794978401200FBE4FBFA7934784312C0
:10094E0002041206D1C004C005C006C007AC0CAD2F
:10095E000DE41202A6D003D002D001D0001200FB8B
:10096E00C004C005C006C007AC08AD09E41202A65B
:10097E00D003D002D001D00012000A1202DFC0064E
:10098E00C007AC10AD11E41202A67BD87A0F7949DC
:10099E0078401200FBE4FBFA793478431202041219
:1009AE0006E7C004C005C006C007AC0CAD0DE412CE
:1009BE0002A6D003D002D001D0001200FBC004C0AA
:1009CE0005C006C007AC0AAD0BE41202A6D003D0D8
:1009DE0002D001D00012000A1202DFAD07AC06D021
:1009EE0007D006AB0FAA0E120C400511E5117002CE
:0E09FE000510D39468E51094015003020933EC
:010A0C0022C7
:1000030002034BE86480F8E933E83360110460F0DD
:10001300ED33EC337009E8FCE9FDEAFEEBFF220463
:1000230060DED3EB9FEA9EE99DE8C2E78CF0C2F75E
:1000330095F0400CE8CCF8E9CDF9EACEFAEBCFFB2A
:1000430012031685D0F05804700320D5B3E804706A
:10005300075002B2D502035592D5EC0460F7E4CC05
:10006300C0E0C398F8603B94186008400DD0E0FBF3
:1000730002032DE4FBFAC9FC8028E830E406E4C956
:10008300FBE4CAFCE830E305E4C9CACBFCE8540747
:100093006010F8C3E913F9EA13FAEB13FBEC13FC52
:1000A300D8F130F52FC3E49CFCEF9BFFEE9AFEEDF5
:1000B30099FDD0E0FBEF4E4D4C701222DB0302039F
:1000C30052EC2CFCEF33FFEE33FEED33FDED30E766
:1000D300EB02032DEF2BFFEE3AFEED39FDD0E0FBF3
:1000E30050130BBB0003020355ED13FDEE13FEEF9C
:0800F30013FFEC13FC02032DC6
:1000FB00EC4D6011E8497017ED33EC3304600DE4FF
:10010B00FCFFFEFD22E933E8330470F802034B12C7
:10011B00031658046009E4CC2481500628500902C8
:10012B000355284003020352C0E0EB4A7044B980E8
:10013B0006D0E0FB020341EF4E701CBD8008EBFFC5
:10014B00EAFEE9FD80EBE98DF0A4FEE5F00201E4A7
:10015B00E9CDF9EAFEEBFFEF89F0A4FCE5F0CE89DF
:10016B00F0A42EFFE435F0CD89F0A42DFEE435F09C
:10017B008067EF4E7005BD80D780C3EF8BF0A4ACCA
:10018B00F0EE8BF0A42CFCE435F0F8EF8AF0A42C05
:10019B00E5F038FCE433CB8DF0A42CFCE5F03BF818
:1001AB00EE8AF0A42CFCE5F038F8E433CF89F0A408
:1001BB002CFCE5F038CF3400CE89F0A42FFFE5F00E
:1001CB003EFEE433C98DF0A42EFEE5F039CD8AF066
:1001DB00A42FFFE5F03EFEE43DFD33D0E0FB5007DE
:1001EB000BBB000F020355EC2CFCEF33FFEE33FE81
:0601FB00ED33FD02032DAF
:10020100020355EC5D046005E85904700302034BD9
:10021100120316580460F6EC4860F2EC7004FDFE1F
:10022100FF22C860DB2481C85009C39860025006D0
:100231000203529850CAF582E9294B4A7005AB82F4
:1002410002034175F0007C1A7880C3EF9BEE9AEDB2
:1002510099400DC3EF9BFFEE9AFEED99FDE842F048
:10026100DC23ACF0D0E0FFD0E0FED0E0FDAB82209B
:10027100E7101BEB60BAEC2CFCEF33FFEE33FEED25
:1002810033FD02032DE803F830E705C0F075F000F7
:10029100EF2FFFEE33FEED33FD40B830E7C280AA09
:1002A10075F020800E75F010800575F0087D007ED8
:1002B100007F003392D530D5031203ADEC334010EB
:1002C100EF33FFEE33FEED33FDEC33FCD5F0ED22E1
:0E02D100E5F0247EA2D513CC92E7CDCEFF221D
:1002DF00EDD2E7CD33EC3392D524814006E4FFFE17
:1002EF00FDFC22FCE4CFCECDCC24E0501174FF8076
:1002FF00EDC3CC13CCCD13CDCE13CECF13CF047013
:07030F00F030D5DE0203AD62
:100689003A70FA83BCAAE9E43E81E0F8BF9DE9E645
:100699003F80000039283C1ABB9969663DA335E3C0
:1006A900BF255DE73FC90FDB418DDBCCC44936EE81
:1006B90045C9913FC5B0F83D3F800000C317F534E7
:1006C900452FFA73C60AFDDD12077804A2E19200EC
:1006D9001420E0159006897404120360802612071D
:1006E9007830E102B20020E0EB8C128D138E148F6A
:1006F9001590069D7404120360A812A913AA14ABDD
:10070900151200FBED4C6007300004EC6480FC22FC
:10071900120778C0E08C128D138E148F159006C1C4
:100729007403120360A812A913AA14AB151200FBD3
:10073900ECC512FCEDC513FDEEC514FEEFC515FFA2
:100749009006B17403120360D082A812A913AA14E7
:10075900AB15E58230E007120204B20080A6EFCBA8
:10076900FFEECAFEEDC9FDECC8FC1202048095ED4E
:1007790033EC547FCC33920024605007D0E0D0E0B2
:1007890002034B7B837AF97922783E1200FBEDF95B
:1007990033ECF83324815011EFFBEEFA1202DF1229
:1007A90002A1ECB2E7FC12000AED33EC33602F240E
:1007B90003F8C313FCED92E7FDE82481E4501FEC34
:1007C900F8EDF9EEFAEFFB1202DFEF04C2E0FCF5F7
:1007D900821202ABECB2E7FC12000AE58203FAEDE1
:0E07E90033EC3360071413FCED92E7FDEA22B7
:10031600E9D2E7C933E833F892D5EDD2E7CD33EC2D
:0703260033FC5002B2D522A6
:10032D00EC30E7100FBF000C0EBE00080DBD000431
:10033D000BEB6014A2D5EB13FCED92E7FD2274FFDD
:10034D00FCFDFEFF22E480F8A2D574FF13FC7D8036
:03035D00E480EF4A
:10036000C0E0EFFBEEFAEDF9ECF81200FBD0E0F59F
:10037000F0EFFBEEFAEDF9ECF81203BBA3A3A3A395
:10038000E8C0E0E9C0E0EAC0E0EBC0E0C0F0120085
:10039000FB1203CBA3A3A3A312000AD0F0D0E0FB6F
:0D03A000D0E0FAD0E0F9D0E0F8D5F0D4229A
:0E03AD00C3E49FFFE49EFEE49DFDE49CFC2261
:1003BB00E493FC740193FD740293FE740393FF2288
:1003CB00E493F8740193F9740293FA740393FB2288
:00000001FF
