:0300000002001EDD
:0C001E00787FE4F6D8FD758109020065CA
:1000DF00E4FDFCC3ED9FEC9E5015E4FBFA0BBB0057
:0F00EF00010AEB646E4A70F50DBD00010C80E450
:0100FE0022DF
:0D00FF00758910758DEC758B7775A88822BA
:04010C0002080000E5
:100003001200FF2090FD7F087E001200DF2090F396
:06001300D28ED29180EDB7
:03001B000200AA36
:1000AA00C0E0C0D075D000C006C007758DEC758B56
:1000BA00770509E50970020508FFAE08BE070DBFFE
:1000CA00BC0A750800750900C291C28ED007D00615
:0500DA00D0D0D0E0329F
:10002A00020003E493A3F8E493A34003F68001F2E9
:10003A0008DFF48029E493A3F85407240CC8C333D7
:10004A00C4540F4420C8834004F456800146F6DFA6
:10005A00E4800B010204081020408090010CE47E29
:10006A00019360BCA3FF543F30E509541FFEE4939B
:10007A00A360010ECF54C025E060A840B8E493A362
:10008A00FAE493A3F8E493A3C8C582C8CAC583CA8D
:10009A00F0A3C8C582C8CAC583CADFE9DEE780BE45
:0101100000EE
:00000001FF
