:030000000200FEFD
:0C00FE00787FE4F6D8FD75812002000335
:0D00F100D2A700D2A600C2A700C2A600221E
:0A010A00C2A700D2A600D2A700226F
:0E00B7001200F11200351200C5AF051200351F
:0A00C500D2A60020A7FDC2A600226B
:1000E100300004D2A78002C2A7D2A600C2A6002275
:10003500E4FEEF30E704D2A78002C2A700D2A600F3
:1000450000000000C2A60000000000EF25E0FF0E42
:03005500BE08DF03
:010058002285
:10005900D2A700E4FED2A60000000000EF25E0FDD3
:10006900A2A7E4334DFFC2A600000000000EBE089F
:01007900E4A2
:01007A002263
:1000CF00AE07AC031200B7AF041200351200C50221
:0200DF00010A14
:02009A00AC07B1
:10009C001200B71200F1EC04FF1200351200C51269
:0A00AC000059D2001200E112010A0F
:0100B6002227
:10000300E4FD7FA012009A8F08E50804FBE4FD7F5E
:10001300A01200CF7F647E0012007BE4FD7FA0125C
:10002300009A8F087F647E0012007BE508F4F59048
:0200330080E962
:10007B007D6E7C00EF1FAA0670011E4A6010ED1DFD
:0E008B00AA0470011C4A70F67C007D6E80E6AF
:010099002244
:00000001FF
