:10000300000000000006000000C700007FE70000BA
:1000130000E70F0000E70F0000E71C0000E73800CF
:1000230038E770003FE7E0003807C00038070300F7
:100033003807078039FFFEC07FC7C00001C7E00053
:1000430001C7600001C7700001C73800018738008D
:1000530003871C000387FF003387C7C01F0F83C0BC
:100063000E07000000000000000000000000000078
:10007300000070001CF078000E7870000F38E0006C
:100083000638E3800186FFC0C3FFC000737383801B
:100093003B73FF803F7007C03E7F0E0006771C0056
:1000A30006771C000E671D800CE61FC01CE7FFC00F
:1000B3007CEE1C003CEE1C001DCE1C003DCE1C0043
:1000C3003F8E1C003FCE1C001F7CFC000E38380006
:1000D3000C00000000000000000000000701800089
:1000E3000781E0000701C0000701C0000701C70046
:1000F300077FFF807FF1C0000731C0000701C00008
:100103000F01C3800FFFFFC00FE180C01FE1E000BC
:100113001F61C0001F01C0003F01C700373FFF80C0
:100123006701C0006701C0000701C0000701C000EC
:100133000701C38007FFFFC007000060060000003F
:100143000000000000000000000003001C1C0380EE
:100153000F1CE380071CF38007DCE38000DCE380F3
:1001630001DCE380719CE38039FCFB803FFFFF806F
:100173001FFFFF8003FFEF8007FBEF8007B8E380DB
:100183000638E3800E38E3801E38E3807C30E3805A
:100193001C70E3801C70E3801CE0E3801CC0E380E0
:1001A3001D800380030003800000000000000000A6
:1001B30000000000000380001801C0000E00E000F2
:1001C3000738CE00071FFF0003780E0000D80E008B
:1001D30060D80E0079DFFE003D980E001D980E00DA
:1001E3001F980E00031FFE0003198F000719838059
:1001F3000619CFC00E18FC007E18F8001E187000F8
:100203000E1838001E18FC001E1F9F001E3E07E03C
:100213000E1C03800000000000000000000000002E
:10022300001800001C1E00000E1C00000F38000008
:1002330007380380007FFFC001F8038061FE03805D
:1002430079F863803FB8F3801F7FDB801B670380EF
:1002530007C71B8006C73F8007FFFF800E676380C9
:100263001E7F7B807C7773801C7773801C77738001
:100273001C7FF3801C0007001C007F000C001F0084
:1002830000000C0000000000000000000001C0009E
:100293001C01E0000E01C0000701C0000741C000BF
:1002A30000C1C00000DDDC0071DFCF0039BDC780B5
:1002B3003DB9C3C01FF1C1C01B71C00007E1C70036
:1002C30007C1C7000781CF800E01DE001E01BC00FD
:1002D3007E0078001C00F0001C01E0001C03C0003D
:1002E3001C0F00001C3C00000DF00000000000008B
:1002F30000000000000000000000000000000000FB
:1003030000000000000000000180000003800000E6
:100313001F800000078000000780000007800000A6
:1003230007800000078000000780000007800000AE
:10033300078000000780000007800000078000009E
:100343000780000007800000078000001FF0000006
:10035300000000000000000000000000000000009A
:1003630000000000000180001061E0001FF1C000E8
:100373001C79C0001CE1C0001CE1E0001DC1E000CD
:100383001DC1E0001D81E0001F81E0001D81E00030
:100393001DC1F0001CE3F0001C73F0001C73B000DF
:1003A3001C7338001C7738001EF71C001FEE1C005E
:1003B3001DCC0E001C1C0F001C3807803C6003C0C2
:1003C30039C0000000000000000000000000000031
:1003D300000000000000000000000F00000000000B
:1003E30007800000000003C00000000003E00000DD
:1003F300000001F00000000001F00000006001E0D7
:1004030000C0006000C001E000FFFFFFFFF000FF3D
:10041300FFFFFFF801E0000003C001E000000780D8
:1004230003E01800070007E01E00060003801F001A
:100433000E0000003E00000000003E00000000002F
:100443003C0000C000007C0001E00000780003F0E5
:100453003FFFFFFFFFF81800F001F00C0000F00170
:10046300E0000001F003E0000001E003C00000032E
:10047300E007C0000003C00780000007C00F800032
:100483000007801F0000000F001F0000000FE03E68
:10049300000000007F7C000000000FFC0000000053
:1004A30001FE0000000001FFC000000003EFF000A8
:1004B300000007C1FE0000001F007F8000007E00D7
:1004C3001FC00001F8000FE0000FE00003E0007F11
:1004D300000001E007F0000000601C0000000000C5
:1004E3000000000000000000000000000000000009
:1004F30000000000000000000000000000000000F9
:1005030000000000000000000000000000000000E8
:1005130000000000000000000000000000000000D8
:10052300000000000000000000C00C00600000F0AC
:100533000F80F80001F80F00FC0001F70E30F00007
:1005430001E7CE3CF00003C7CE3EF00007878E3DA7
:10055300F00007078E3DE0000E078E3DE0000E67BA
:100563008E3DE0001C7FFFFFC070387F0033C0F872
:1005730000FC0063FFFC00F000F383C001F7FFFF02
:1005830083C001E01C0F83C001E03E0783C003E08A
:1005930078CFC78003E0F1EFC78007E1E3FDC780B1
:1005A3000FE7FFFDC7800FE3FF99C7801DE38F01AE
:1005B300C78039E01CE0EF0031E07870EF0001E024
:1005C300E078EF0001E3CFFCEF0001E7FE3CFE0023
:1005D30001E3DE3CFE0001E31E187E0001E01E0085
:1005E3007C0001E39FC07C0001E3DEE03C0001E707
:1005F300FEF07C0001EF1E78FE0001EE1E79FE0086
:1006030001FC1E7BEF0001F81E3FCF8001F3DE0FDC
:1006130087E001E1FE1E03F001E07C3C01FC01E008
:1006230038F000F0018023C00060000003000000E8
:1006330000000000000000000000000000000000B7
:1006430000000000000000000000000000000000A7
:100653000000000000000000000000000000000097
:100663000000000000000000000000000000000087
:100673000000000000000000000000000000000077
:100683000000000000000000000000000000000067
:10069300000000000780000000000FC00FFFFFFFF5
:1006A300FFE007FFFFFFFFF0000003C000000000B2
:1006B30003C00000000003C00000000003C00000EE
:1006C300000003C00000000003C00000000003C0DE
:1006D3000000000003C00000000003C00000000091
:1006E30003C00000000003C00000000003C00000BE
:1006F300000003C00000000003C00000000003C0AE
:100703000000000003C00000000003C00000000060
:1007130003C00000000003C00000000003C000008D
:10072300000003C00000000003C00000000003C07D
:100733000000000003C00000000003C00000000030
:1007430003C00000000003C00000000003C000C09D
:10075300000003C001E0000003C003F03FFFFFFF00
:10076300FFF81C000000000C000000000000000067
:100773000000000000000000000000000000000076
:100783000000000000000000000000000000000066
:100793000000000000000000000000000000000056
:1007A3000000000000000000000000000000000046
:1007B3000000000000000000000000000000000036
:1007C3000000000000000000000000000000000026
:1007D300701C000000007C1F000000007C1F8000D4
:1007E3000000781E00000000781E00000000781E44
:1007F30000000000781E00000000781E00000000CA
:10080300781E00000000781E00000C00781E01C056
:100813000E00781E01F00600781E01F80700781E0E
:1008230003F80780781E03E00380781E07C003C027
:10083300781E07C001E0781E078001E0781E0F8054
:1008430000F0781E0F0000F8781E1E0000F8781ED6
:100853001E00007C781E3C00007C781E3C00007E5D
:10086300781E7800003E781E7000003E781EF0006F
:10087300003E781FE000003C781FC000003C781F5A
:1008830080000000781F00000000781E00000000B8
:10089300781E00000000781E00000000781E000093
:1008A3000000781E00600000781E00F00000781E33
:1008B30001F87FFFFFFFFFFC380000000006000087
:1008C3000000000000000000000000000000000025
:1008D3000000000000000000000000000000000015
:1008E3000000000000000000000000000000000005
:1008F30000000000000000000000000000000000F5
:1009030000000000000000000000000000000000E4
:1009130000000000000000000000070000000000CD
:1009230007E00000000007E00000000007C000002F
:10093300000007C00000000007C00000000007C05F
:100943000000000007C00000000007C00000000016
:1009530007C00000000007C000E0000007C001F06E
:10096300000007C003F83FFFFFFFFFFC000007C0C4
:10097300000C000007C00000000007C000000000DA
:1009830007C00000000007C00000000007E00000EF
:1009930000000FE0000000000FF0000000000F70E7
:1009A300000000000F78000000001F380000000066
:1009B3001E3C000000001E1C000000003E1E000044
:1009C30000003C0F000000003C0F0000000078070F
:1009D30080000000F803C0000000F003E000000105
:1009E300E001F0000003E000F8000007C0007C0015
:1009F300000F80003F00001E00001FC0003C0000ED
:100A03000FF800F8000007FC01E0000003F0078086
:100A1300000000E01E0000000000300000000000A5
:100A230000000000000000000000000000000000C3
:100A330000000000000000000000000000000000B3
:100A430000000000000000000000000000000000A3
:100A53000000000000000000000000000000000093
:100A630000000000000000000000180030000060DB
:100A73001C007C0000780F007E00003C0F807E008D
:100A8300001E07C0F800001F07C0F000000F87E139
:100A9300F000000F83E1E000000783C1C0000007FE
:100AA30083C380000387800380600380000700F016
:100AB30003FFFFFFFFF803FFFFFFFFFC07800000BA
:100AC30001FC0780000003C00F80000003800F803B
:100AD3000000E7001F800001F6001F7FFFFFF0000A
:100AE30000180003F80000000007C8000000000F12
:100AF30000000000001E000000000338000000009A
:100B030003E00000000003E001E0000003F003F055
:100B1300000003E007F83FFFFFFFFFFC000003E0D6
:100B2300000C000003E00000000003E000000000F0
:100B330003E00000000003E00000000003E0000009
:100B4300000003E00000000003E00000000183E078
:100B530000000001FFE0000000003FC000000000B3
:100B63001FC000000000070000000000000000009C
:100B73000000000000000000000000000000000072
:100B83000000000000000000000000000000000062
:100B93000000000000000000000000000000000052
:100BA3000000000000000000000000000000E0E082
:100BB300E0E0E0ECFC00000000000078CCCCCC7856
:100BC30000000000000078DC7CDCFC000000001C5E
:100BD3000C7CDCCCDC7C000000003000703030305A
:100BE30078000000000000F8FCCCCCFC0000000002
:090BF30000007CD878E0FCFC0055
:100BFC001210B7E4FFFE1216E1E4F52DF52E752761
:100C0C00F77528DF752900752A14752B00752C0EC5
:100C1C00D3E52A940AE52994004066AE2DAF2E7CCC
:100C2C00007D301215A5E52A2FF582E5293EF583C6
:100C3C00AE2DAF2E0C7D501215A574CF2FF9740369
:100C4C003E7510FFF5118912750E00750F3885274A
:100C5C0013852814AF82AE837B307A00AD2CAC2B7D
:100C6C0012149074DF2528F52874FF3527F527E535
:100C7C002A152A70021529E52C152C7093152B803A
:100C8C008FAE2DAF2E7C007D301215A5E52A2FF5E9
:100C9C0082E5293EF583AE2DAF2E0C7D501215A5A5
:100CAC0074CF2FF974033E7510FFF5118912750E70
:100CBC0000750F3874FFF513F514AF82AE837B30DB
:100CCC007A00AD2CAC2B121490052EE52E7002057B
:100CDC002DC39406E52D94005003020C0AE4F52D67
:100CEC00F52E7527F77528DF752900752A64752B85
:100CFC0000752C50D3E52A945AE52994004073E5ED
:100D0C002E9404E52D9400AE2DAF2E7C0050047D66
:100D1C001D80027D191215A5E52A2FF582E5293EC5
:100D2C00F583AE2DAF2E7D6C1215A574B32FF9740F
:100D3C00013E7510FFF5118912750E00750F1B859C
:100D4C002713852814AF82AE837B207A00AD2CACA0
:100D5C002B12149074DF2528F52874FF3527F527FE
:100D6C00E52A152A70021529E52C152C7086152BF1
:100D7C008082C3E52E9404E52D9400AE2DAF2E7C1D
:100D8C000050047D1D80027D191215A5E52A2FF552
:100D9C0082E5293EF583AE2DAF2E7D6C1215A57420
:100DAC00B32FF974013E7510FFF5118912750E0001
:100DBC00750F1B74FFF513F514AF82AE837B207A8D
:100DCC0000AD2CAC2B121490052EE52E7002052DC7
:100DDC00C39405E52D94005003020CEEE4F52DF5BB
:100DEC002E7527F77528DF752900752A50752B008D
:100DFC00752C6EC3E52A9456E52994005062AE2DED
:100E0C00AF2E7C007D6C1215A574032FF974003E77
:100E1C007510FFF5118912E52EAE2D7805C333CE72
:100E2C0033CED8F9252AFFE5293EFE750E00750F45
:100E3C001B8527138528147B207A00AD2CAC2B1234
:100E4C00149074DF2528F52874FF3527F527052A1B
:100E5C00E52A70020529052CE52C7097052B80934B
:100E6C00AE2DAF2E7C007D6C1215A574032FF9747A
:100E7C00003E7510FFF5118912E52EAE2D7805C3D5
:100E8C0033CE33CED8F9252AFFE5293EFE750E0068
:100E9C00750F1B74FFF513F5147B207A00AD2CAC89
:100EAC002B121490052EE52E7002052DC39402E52D
:100EBC002D94005003020DED752D00752E02752733
:100ECC00F77528DF752900752A6E752B00752C6E49
:100EDC00D3E52A9468E52994004062AE2DAF2E7CB0
:100EEC00007D6C1215A574032FF974003E7510FF6C
:100EFC00F5118912E52EAE2D7805C333CE33CED83D
:100F0C00F9252AFFE5293EFE750E00750F1B852776
:100F1C00138528147B207A00AD2CAC2B1214907402
:100F2C00DF2528F52874FF3527F527E52A152A70C3
:100F3C00021529052CE52C7097052B8093AE2DAF4F
:100F4C002E7C007D6C1215A574032FF974003E7570
:100F5C0010FFF5118912E52EAE2D7805C333CE3373
:100F6C00CED8F9252AFFE5293EFE750E00750F1B1C
:100F7C0074FFF513F5147B207A00AD2CAC2B1214F6
:100F8C0090052EE52E7002052DC39404E52D9400DA
:100F9C005003020ECA752900752A28752B00752C72
:100FAC00A8E4F52DF52EAE2DAF2E7C007D0B121581
:100FBC00A574AF2FF9740B3E7510FFF5118912E56E
:100FCC002EAE2D7803C333CE33CED8F9252AFFE5C8
:100FDC00293EFE750E00750F0B74FFF513F5147B8F
:100FEC00087A00AD2CAC2B121490052EE52E700255
:100FFC00052DC39407E52D940040AB752D00752E7F
:10100C00287B9E7AFF7DB47C00AF2EAE2D1217404C
:10101C007B9E7AFF7DBE7C00AF2EAE2D1217400555
:10102C002EE52E7002052DC39418E52D940140D1A8
:10103C00752D00752EB47BDD7A04AD2EAC2D7F287A
:10104C007E001217407BDD7A04AD2EAC2D7F187E0E
:10105C0001121740052EE52E7002052DC394BEE536
:10106C002D940040D1752D00752E287F147E001212
:10107C001721752900752AB47BB27AF6AD2AAC29F2
:10108C00AF2EAE2D121740052AE52A70020529C392
:10109C0094BEE529940040E0052EE52E7002052D46
:0B10AC00C39418E52D940140C280FEA3
:04179100022F932868
:091718007C001214787F1E7E0093
:10172100E4FDFCC3ED9FEC9E5014E4FBFA0BBB00FF
:0E173100010AEBF44A70F60DBD00010C80E5D4
:01173F002287
:10176000C2A2C2A5D2A3C2A48D80D2A0C2A08F80E3
:05177000D2A4D2A22268
:10177500C2A2D2A58D80D2A0C2A08F80C2A4D2A4BD
:03178500D2A222CB
:04178800AD07AC06F7
:05178C00AF0402177517
:101365007D01FCFF1214787D007C017F0112147849
:101375007D007C077F021214787D307C107F03127C
:101385001478E4FDFC7F041214787402FDFC7F08D8
:10139500121478E4FDFC7F09121478E4FDFC7F0A41
:1013A500121478E4FDFC7F0C121478E4FDFC7F0D2B
:1013B500121478E4FDFC7F0F1214787F1E7E001254
:1013C50017217DB07C167F101214787F1E7E0012C7
:1013D50017217D077C007F111214787D3A7C017FEF
:1013E500121214787D007C1A7F131214787F1E7EEA
:1013F500001217217D0C7C007F291214787F1E7E38
:1014050000121721E4FDFC7F301214787405FDFCF1
:101415007F311214787D047C037F321214787D06A7
:101425007C007F351214787407FDFC7F3612147822
:101435007D057C017F371214787D027C007F381290
:1014450014787407FDFC7F391214787D047C077FBE
:101455003C1214787D077C087F3D121478E4FDFC6E
:101465007F501214787DEF7C007F51121478E4FDD3
:03147500FC7F52A7
:06147800AB05AA04AC075D
:10147E00AF02AE07AD04E4FF121760AF06AD030274
:02148E001775D0
:0416E1008E088F09D7
:1016E500752501752640E4FBFA7DF0FCFFFE121618
:1016F50098E4FBFA900000AF09AE08121788A3E53D
:101705008264F0458370F00BBB00010ABA01E5BBAA
:0217150040E2B0
:0117170022AF
:1010B700D2A17F017E00121721C2A17F0A12172138
:1010C700D2A17F32121721E53064207004E52F6426
:1010D7009370241213657D3F7C017F531214787D32
:1010E700007C277F601214787D017C007F611214D9
:1010F70078E4FDFC02112FE53064057004E52F64E8
:101107001560030211AC1213657D3F7C017F5312FA
:1011170014787D007C277F601214787D017C007F26
:10112700611214787D007C277F6A121478E4FDFC35
:101137007F20121478E4FDFC7F21121478E4FDFC73
:101147007F80121478E4FDFC7F81121478E4FDFCA3
:101157007F82121478E4FDFC7F83121478E4FDFC8F
:101167007F84121478E4FDFC7F851214787D107C4F
:10117700007F90121478E4FDFC7F921214787D03AF
:101187007C007F931214787D107C017F9512147870
:10119700E4FDFC7F97121478E4FDFC7F9812147825
:1011A7007D7302135DE53064287004E52F64936056
:1011B70003021364FD7C017F011214787D007C0714
:1011C7007F021214787D387C107F03121478E4FDB7
:1011D700FC7F041214787D017C007FA412147874BC
:1011E70002FDFC7F08121478E4FDFC7F09121478D5
:1011F700E4FDFC7F0A121478E4FDFC7F0C121478DE
:10120700E4FDFC7F0D121478E4FDFC7F0F121478C7
:10121700E4FDFC7F101214787D077C007F11121407
:1012270078E4FDFC7F12121478E4FDFC7F1312179B
:101237001A7D907C167F101214787D277C027F110F
:1012470012171A7D1C7F121217187D007C187F1346
:101257001214787D1C7C007F291214787D0D7F2B5A
:10126700121718E4FDFC7F20121478E4FDFC7F219F
:101277001214787D077C007F301214787D027C037E
:101287007F311214787D057C017F321214787D0638
:101297007C027F351214787408FDFC7F36121478AF
:1012A7007D067C027F371214787D047C057F381217
:1012B70014787D077C007F391214787D057C017FC7
:1012C7003C1214787408FDFC12145D12171D7D3F43
:1012D7007C017F5312171A7D007C277F60121478D8
:1012E7007D017C007F61121478E4FDFC7F6A121493
:1012F70078E4FDFC7F80121478E4FDFC7F811214F2
:1013070078E4FDFC7F82121478E4FDFC7F831214DD
:1013170078E4FDFC7F84121478E4FDFC7F851214C9
:10132700787D107C007F90121478E4FDFC7F921288
:1013370014787D037C007F931214787D107C017FE5
:1013470095121478E4FDFC7F97121478E4FDFC7F76
:0E135700981214787D337C017F0712147822DF
:101698008E1F8F208C218D228B828A83AD20AC1FD8
:1016A8007F50121478AD22AC217F51121478AD828C
:1016B800AC837F52121478AD26AC257F5312147870
:1016C800AD20AC1F7F20121478AD82AC837F21122D
:0916D80014787D22E4FF02176082
:101740008A088B098F828E83AF05AE04AB82AA8391
:10175000858325858226121698AF09AE0802178860
:081490008E088F098C0A8D0BF8
:10149800AC0EAD0FAF03AE021215A5EF7803CEC3A5
:1014A80013CE13D8F9F51A8E19EBAE027803CEC312
:1014B80013CE13D8F9F51C8E1BE4F515F516C3E504
:0C14C80016951AE51595194003021577DA
:1014D400AB10AA11A912851682851583121578FFFF
:1014E4003395E0F51D8F1EE4F517F518E51E30E77A
:1014F40058AC1BAD1CAE15AF161215B7E50B2FF586
:1015040082E50A3EF583AD82FCC004C005AC1BAD88
:101514001CAE15AF161215B7EDAE047803C333CE67
:1015240033CED8F92509FFE5083EFEE5182FFBE583
:10153400173EFAF5258B26AF82AE83D005D0041270
:101544001698AF14AE13121788E51E25E0F51EE5B4
:101554001D33F51D0518E51870020517C39408E539
:05156400179400408710
:0E1569000516E51660030214C605150214C629
:011577002251
:0300000002160CD9
:0C160C00787FE4F6D8FD7581300216539B
:10157800BB010CE58229F582E5833AF583E0225028
:1015880006E92582F8E622BBFE06E92582F8E22272
:0D159800E58229F582E5833AF583E493228C
:1015A500EF8DF0A4A8F0CF8CF0A428CE8DF0A42E5A
:0215B500FE2214
:1015B700BC000BBE0029EF8DF084FFADF022E4CC18
:1015C700F875F008EF2FFFEE33FEEC33FCEE9DECE1
:1015D700984005FCEE9DFE0FD5F0E9E4CEFD22ED27
:1015E700F8F5F0EE8420D21CFEADF075F008EF2F71
:1015F700FFED33FD4007985006D5F0F222C398FD62
:051607000FD5F0EA22FE
:10161800020BFCE493A3F8E493A34003F68001F2E1
:1016280008DFF48029E493A3F85407240CC8C333D3
:10163800C4540F4420C8834004F456800146F6DFA2
:10164800E4800B0102040810204080901791E47E8A
:10165800019360BCA3FF543F30E509541FFEE49397
:10166800A360010ECF54C025E060A840B8E493A35E
:10167800FAE493A3F8E493A3C8C582C8CAC583CA89
:10168800F0A3C8C582C8CAC583CADFE9DEE780BE41
:011795000053
:00000001FF
