:03000000020DDD11
:0C0DDD00787FE4F6D8FD758156020CFB0F
:1000030000000000000000000000000000000000ED
:1000130000000000000000000000000000000000DD
:1000230000000000000000000000000000000000CD
:1000330000000000000000000000000000000000BD
:10021300000000101010101010001010000000005B
:10022300000000242424000000000000000000005F
:1002330000000024247E2424247E242400000000C3
:10024300000000107C90907C12127C1000000000D3
:100253000000000062640810204C8C0000000000C5
:1002630000000000182420508A844A300000000057
:10027300000000101020000000000000000000003B
:10028300000008102020202020202010080000005B
:1002930000002010080808080808081020000000C3
:1002A3000000000000105438385410000000000013
:1002B300000000000010107C10100000000000007F
:1002C30000000000000000000000101020000000EB
:1002D300000000000000007C00000000000000009F
:1002E30000000000000000000000001000000000FB
:1002F300000000000002040810204000000000007D
:100303000000003844444C54644444380000000066
:100313000000001030101010101010380000000002
:1003230000000038440404081020407C0000000052
:100333000000007C04081038040404780000000066
:1003430000000008182848487C080808000000003E
:100353000000007C40404078040404780000000062
:100363000000003C40404078444444380000000012
:100373000000007C0404081020202020000000005E
:10038300000000384444443844444438000000002A
:10039300000000384444443C0404043800000000D6
:1003A300000000000000001000001000000000002A
:1003B30000000000000000001000101020000000EA
:1003C30000000000000408102010080400000000D2
:1003D300000000000000007C007C00000000000022
:1003E3000000000000201008040810200000000096
:1003F30000003844440408101000101000000000EE
:10040300000000000038445C545C403C00000000E5
:10041300000018244242427E424242420000000051
:1004230000007C4242427C424242427C0000000087
:1004330000003C42404040404040423C000000003D
:1004430000007C42424242424242427C00000000A1
:1004530000007E40404078404040407E0000000065
:1004630000007E4040407840404040400000000093
:1004730000003C4240405E424242423C00000000D9
:100483000000424242427E42424242420000000099
:100493000000381010101010101010380000000069
:1004A30000001C080808080808084830000000007D
:1004B300000042444850606050484442000000003D
:1004C30000004040404040404040407E000000006B
:1004D30000008282C6C6AAAA92928282000000000D
:1004E300000042626252524A4A46464200000000FD
:1004F30000003C42424242424242423C0000000071
:1005030000007C424242427C4040404000000000E8
:1005130000003C424242424242424A3C0E0000003A
:1005230000007C424242427C5048444200000000AA
:1005330000003C4240403C020202423C00000000FA
:1005430000007C101010101010101010000000009C
:1005530000004242424242424242423C000000000A
:1005630000004444444428282810101000000000D0
:1005730000008282828254545428282800000000FC
:1005830000004242241818182424424200000000AC
:1005930000004444444428281010101000000000B8
:1005A30000007E02020408102040407E000000008C
:1005B30000003820202020202020203800000000C8
:1005C30000000000000040201008040200000000AA
:1005D30000001C04040404040404041C00000000C0
:1005E300000000001028440000000000000000008C
:1005F300000000000000000000000000FF000000F9
:1006030000000010100800000000000000000000BF
:10061300000000000078043C4444443A0000000019
:1006230000004040405C62424242625C00000000C5
:1006330000000000003C42404040423C00000000FB
:1006430000000202023A46424242463A00000000DB
:1006530000000000003C42427E40423C000000009B
:1006630000000E1010103C101010101000000000BD
:1006730000000000003E424242423E02023C0000B3
:1006830000004040405C624242424242000000009F
:100693000000000800080808080808080000000017
:1006A30000000004000404040404040444380000AB
:1006B300000040404042444850684442000000006B
:1006C3000000101010101010101010100000000087
:1006D3000000000000EC92929292929200000000BF
:1006E30000000000007C42424242424200000000FF
:1006F30000000000003C42424242423C0000000035
:1007030000000000005C62424242625C4040000024
:1007130000000000003A46424242463A020200000C
:1007230000000000005C62404040404000000000C8
:1007330000000000003C42403C02423C000000003C
:1007430000000020207820202020221C0000000030
:1007530000000000004242424242423E00000000CC
:100763000000000000424242424224180000000000
:1007730000000000008282829292AA4400000000DE
:1007830000000000004242241824424200000000FE
:10079300000000000042424242423E02023C00008E
:1007A30000000000007E02041820407E00000000CC
:1007B3000000081010102040201010100800000046
:1007C3000010101010101010101010101010100046
:1007D3000000201010100804081010102000000062
:1007E3000000000000002254880000000000000008
:1007F30000000000000000000000000000000000F6
:090E0700D2B1D2B0D2B2D2B022B5
:100D7700E4FEC2B0EF25E0FF92B2C2B0000000D29D
:080D8700B00000000EBE08ECF4
:010D8F002241
:100D5500E4FDFFFEEF25E0FFEE33FED2B00000001C
:100D6500C2B000000030B3050FBF00010E0DBD0C71
:010D7500E39A
:010D7600225A
:050D2A00120DEE7F3206
:100D2F00E4FDFCC3ED9FEE6480F8EC6480985015F1
:100D3F00E4FBFA0BBB00010ABA03F8BBE8F50DBDE3
:050D4F0000010C80DE34
:010D5400227C
:0D0DD0008F90C2A1D2A18D90C2A1D2A1220C
:050E1900C2A0020DD093
:050DE900FF120E19FDD0
:050DEE00D2A0020DD0AF
:100B63008E188F198C1A8D1B7D20E4FF120E19E548
:100B730018FFAD19120DEE7D21E4FF120E19E51ACF
:100B8300FFAD1B120DEE7D50E4FF120E19E518FFA9
:100B9300AD19120DEE7D52E4FF120E19E51AFFADE9
:100BA3001B120DEE7D51E4FF120E19AF02AD0312BD
:100BB3000DEE7D53FF120E19E51EFFAD1F120DEE54
:070BC3007D22E4FF020E1980
:10080300D2B7D2A37F057E00120D2FC2A3120D2FE4
:10081300D2A3D2A5D2A2D2A1120D2FC2A57DE5E407
:10082300FF120E197DF07F78120DEE7D01FF120E7F
:10083300191D0F120DEE7D021F120E19FD7F0712F7
:100843000DEE7D03FF120E197D307F10120DEE7D2C
:1008530004120DE97D08120E191D7F02120DEE7DA3
:1008630009120DE97D0A120DEA7D0C120DEA7D0DC8
:10087300120DEA7D0F120DEA7D10120DEA7D1112A1
:100883000E197D07120DEE7D12120DEA7D13120D66
:10089300EA7D07120E197D01120D2A7D10E4FF1265
:1008A3000E197D907F10120DEE7D11FF120E197D32
:1008B300277F02120D2A7D12E4FF120E197D1F12EB
:1008C3000D2A7D13E4FF120E19FD7F15120DEE7D27
:1008D30029FF120E197D27120DEE7D2B120E197DA5
:1008E3000D120D2A7D20E4120DE97D21120DEA7D02
:1008F30030120DEA7D31120E197D077F07120DEEBE
:100903007D32FF120E197D077F03120DEE7D35FF39
:10091300120E19FD7F02120DEE7D36FF120E197DA8
:1009230008120DEE7D37120E197D04120DEE7D387F
:10093300120DEA7D39120E197D077F07120DEE7D28
:100943003CFF120E197D02120DEE7D3D120E197D34
:10095300047F1D120DEE7D50120DE97D51120E190B
:100963007DEF120DEE7D52120DEA7D53120E197DAD
:100973003F0F120DEE7D601F120E19FD7FA7120DA2
:10098300EE7D61FF120E197D01120DEE7D6A120DCF
:10099300EA7D80120DEA7D81120DEA7D82120DEA55
:1009A3007D83120DEA7D84120DEA7D85120DEA7DA9
:1009B30090120E197D10120DEE7D92120E19FD7F0D
:1009C30006120DEE7D07FF120E197D330F120DEE89
:0309D300D2A52288
:040CB6008E0A8F0B08
:100CBA00751E01751F407BF07A00E4FDFCFFFE12F1
:100CCA000B63E4F50CF50DE4FBFAE50AFFAD0B1234
:100CDA000DEE0BBB00010AEB64F04A70ED050DE561
:100CEA000D7002050CC39440E50C6480948140D7D2
:010CFA0022D7
:0C0C20008E2E8F2F8A328B338D828C83B6
:100C2C0085341E85351F120B63858338858239D335
:100C3C00E5399535E53895345026AB2FAA2ED3EBF4
:100C4C009533EA9532500FE536FFAD37120DEE0BAA
:100C5C00BB00010A80E80539E53970D3053880CF2F
:010C6C002265
:0609D6008B248D828C834E
:1009DC00EF2407FDE43EFCAB82AA83E582240FF5ED
:0E09EC0056E43583F555120C6DE4F529F52A15
:1009FA00AF24EF3395E0FEEFC4F8540FC868FFEE5A
:100A0A00C454F048FEE52A2FFFE5293EFE74032F61
:100A1A00F58274003EF583E493F52DE4F52BF52C6D
:100A2A00E52D30E706AF26AE258004AF28AE2712A3
:100A3A000E10E52D25E0F52D052CE52C7002052B71
:090A4A00C39408E52B940040D789
:100A5300052AE52A70020529C39410E5299400406C
:010A630096FC
:010A6400226F
:0F0DC100854B25854C26854D27854E280209D662
:0E0BCA008E3A8F3B8C3C8D3D8B3E8A3F89409E
:100BD800E4F545AB3EAA3FA940120D906039C39495
:100BE8008050F0E54575F008A4253BFFE53A35F05F
:100BF800FE120D90FB85414B85424C85434D854443
:100C08004EAD3DAC3C120DC174012540F540E435B4
:070C18003FF53F054580BCDC
:010C1F0022B2
:040E1000AD07AC0678
:050E1400AF04020DFD1A
:0A0DF300C2A5C2A0120DD0D2A522A5
:0A0DFD00C2A5D2A0120DD0D2A5228B
:060DA900AB05AA04AC0733
:100DAF00AF02AE07AD04E4FF120DF3AF06AD0302C1
:020DBF000DFD28
:100C6D008E4F8F508C518D528B828A83AD50AC4FED
:100C7D007F50120DA9AD52AC517F51120DA9AD820D
:100C8D00AC837F52120DA9AD56AC557F53120DA9F1
:100C9D00AD50AC4F7F20120DA9AD82AC837F2112D8
:090CAD000DA97D22E4FF020DF304
:100A6500C0000000400000004000900060800000D1
:100A750070400100400000006460A0000008008094
:100A850000000200044000000024020000001000E5
:100A95000000000008A00040000001000002002046
:100AA5000AA00800000001001088000008012020AD
:100AB50020000100000000002210000000000000DE
:100AC50020008000100000000080040003FFF800F3
:100AD50003FFFC0000000000000000000000000013
:100CFB00D2A4120E07120803C2A57FE07EFF120CCE
:100D0B00B67510FF7511E07BFF7A7F7D2D7C007F20
:0F0D1B00227E00120AE57F787E00120D2F80F7EE
:080AE5008A0E8B0F8D828C83B9
:100AED00EF241FFDE43EFCAB82AA83E582241FF5B3
:0E0AFD001FE43583F51E120B63E4F512F513AA
:100B0B0074652513F582740A3512F583E493751613
:100B1B0000F517E4F514F515E51730E706AF0FAE42
:100B2B000E8004AF11AE10120E10E51725E0F5176D
:100B3B00E51633F5160515E51570020514C3940873
:060B4B00E514940040D205
:100B51000513E51370020512C39480E51294004059
:010B6100A9EA
:010B62002270
:100D9000BB010689828A83E0225002E722BBFE0261
:090DA000E32289828A83E4932294
:00000001FF
