:03000000020003F8
:0C000300787FE4F6D8FD75810902004A00
:0A012C003F065B4F666D7D077F06FE
:03013600010900BC
:1000EC00E4F580C2937580FFC29275807FD291C275
:1000FC009112008FEF90012C93F580D290C29080DA
:01010C00F002
:10010D007D6E7C00EF1FAA0670011E4A6010ED1D6A
:0E011D00AA0470011C4A70F67C007D6E80E61C
:01012B0022B1
:10008F0075A0FE85A0085308FEE5082482601B2496
:10009F00C0601224E0600924F07012750901800D10
:1000AF007509028008750903800375090475A0FDA1
:1000BF0085A0085308FDE5082483601B24C0601247
:1000CF0024E0600924F07012750905800D7509068A
:0D00DF0080087509078003750908AF092224
:10000F000200ECE493A3F8E493A34003F68001F21B
:10001F0008DFF48029E493A3F85407240CC8C333F2
:10002F00C4540F4420C8834004F456800146F6DFC1
:10003F00E4800B0102040810204080900136E47E1A
:10004F00019360BCA3FF543F30E509541FFEE493B6
:10005F00A360010ECF54C025E060A840B8E493A37D
:10006F00FAE493A3F8E493A3C8C582C8CAC583CAA8
:10007F00F0A3C8C582C8CAC583CADFE9DEE780BE60
:0101390000C5
:00000001FF
