:030000000200FB00
:0C00FB00787FE4F6D8FD7581080201074B
:1000DB00E4FDFCC3ED9FEC9E5015E4FBFA0BBB005B
:0F00EB00010AEB646E4A70F50DBD00010C80E454
:0100FA0022E3
:0C01070012008B120003EFF4F59080F45E
:10008B0075B0F0E5B054F064F0601E7F147E001282
:10009B0000DBE5B054F064F0600FE5B054F0FF7591
:0900AB00B00FE5B0540F4FF50849
:0100B4002229
:10000300E5081200B500867700727B005E7D004A2A
:100013007E0081B7006DBB0059BD0045BE007CD793
:100023000068DB0054DD0040DE0077E70063EB008F
:100033004FED003CEE0000008AE4FEFF227E007FCD
:1000430001227E007F02227E007F03227E007F0446
:10005300227E007F05227E007F06227E007F07220C
:100063007E007F08227E007F09227E007F0A227E97
:10007300007F0B227E007F0C227E007F0D227E00FC
:080083007F0E227E007F0F2298
:1000B500D083D082F8E4937012740193700DA3A3DA
:1000C50093F8740193F5828883E4737402936860EE
:0600D500EFA3A3A380DFEE
:00000001FF
