:030000000212E900
:0C12E900787FE4F6D8FD75817D0213309B
:04157900027C932835
:0914E8007C00120F807F1E7E00C3
:1014F100E4FDFCC3ED9FEC9E5014E4FBFA0BBB0032
:0E150100010AEBF44A70F60DBD00010C80E506
:01150F0022B9
:10155100C2A2C2A5D2A3C2A48D80D2A0C2A08F80F4
:05156100D2A4D2A22279
:10156600C2A2D2A58D80D2A0C2A08F80C2A4D2A4CE
:03157600D2A222DC
:04158600AD07AC06FB
:05158A00AF040215662C
:100E6D007D01FCFF120F807D007C017F01120F8040
:100E7D007D007C077F02120F807D307C107F031276
:100E8D000F80E4FDFC7F04120F807402FDFC7F08CF
:100E9D00120F80E4FDFC7F09120F80E4FDFC7F0A38
:100EAD00120F80E4FDFC7F0C120F80E4FDFC7F0D22
:100EBD00120F80E4FDFC7F0F120F807F1E7E00124B
:100ECD0014F17DB07C167F10120F807F1E7E0012F4
:100EDD0014F17D077C007F11120F807D3A7C017F1C
:100EED0012120F807D007C1A7F13120F807F1E7EE1
:100EFD00001214F17D0C7C007F29120F807F1E7E65
:100F0D00001214F1E4FDFC7F30120F807405FDFC1E
:100F1D007F31120F807D047C037F32120F807D069E
:100F2D007C007F35120F807407FDFC7F36120F8019
:100F3D007D057C017F37120F807D027C007F38128A
:100F4D000F807407FDFC7F39120F807D047C077FB5
:100F5D003C120F807D077C087F3D120F80E4FDFC65
:100F6D007F50120F807DEF7C007F51120F80E4FDCA
:030F7D00FC7F52A4
:060F8000AB05AA04AC075A
:100F8600AF02AE07AD04E4FF121551AF06AD030282
:020F96001566DE
:100A5100D2A17F017E001214F1C2A17F0A1214F10A
:100A6100D2A17F321214F1E57D64207004E57C642B
:100A7100937024120E6D7D3F7C017F53120F807D98
:100A8100007C277F60120F807D017C007F61120F47
:100A910080E4FDFC020AC9E57D64057004E57C641F
:100AA100156003020B46120E6D7D3F7C017F5312D0
:100AB1000F807D007C277F60120F807D017C007F8D
:100AC10061120F807D007C277F6A120F80E4FDFC9C
:100AD1007F20120F80E4FDFC7F21120F80E4FDFCDA
:100AE1007F80120F80E4FDFC7F81120F80E4FDFC0A
:100AF1007F82120F80E4FDFC7F83120F80E4FDFCF6
:100B01007F84120F80E4FDFC7F85120F807D107CB5
:100B1100007F90120F80E4FDFC7F92120F807D0315
:100B21007C007F93120F807D107C017F95120F80D6
:100B3100E4FDFC7F97120F80E4FDFC7F98120F808B
:100B41007D73020CF7E57D64287004E57C64936095
:100B510003020CFEFD7C017F01120F807D007C07EA
:100B61007F02120F807D307C107F03120F80E4FD25
:100B7100FC7F04120F807D017C007FA4120F807422
:100B810002FDFC7F08120F80E4FDFC7F09120F803B
:100B9100E4FDFC7F0A120F80E4FDFC7F0C120F8044
:100BA100E4FDFC7F0D120F80E4FDFC7F0F120F802E
:100BB100E4FDFC7F10120F807D077C007F11120F76
:100BC10080E4FDFC7F12120F80E4FDFC7F13121400
:100BD100EA7D907C167F10120F807D277C027F11A9
:100BE1001214EA7D1C7F121214E87D007C187F1319
:100BF100120F807D1C7C007F29120F807D0D7F2BC1
:100C01001214E8E4FDFC7F20120F80E4FDFC7F213B
:100C1100120F807D077C007F30120F807D027C03E4
:100C21007F31120F807D057C017F32120F807D069E
:100C31007C027F35120F807408FDFC7F36120F8015
:100C41007D067C027F37120F807D047C057F381280
:100C51000F807D077C007F39120F807D057C017F2D
:100C61003C120F807408FDFC120F651214ED7D3FDC
:100C71007C017F531214EA7D007CA77F60120F80F4
:100C81007D017C007F61120F80E4FDFC7F6A120F01
:100C910080E4FDFC7F80120F80E4FDFC7F81120F58
:100CA10080E4FDFC7F82120F80E4FDFC7F83120F44
:100CB10080E4FDFC7F84120F80E4FDFC7F85120F30
:100CC100807D107C007F90120F80E4FDFC7F9212EA
:100CD1000F807D037C007F93120F807D107C017F4C
:100CE10095120F80E4FDFC7F97120F80E4FDFC7FDD
:0E0CF10098120F807D337C017F07120F802246
:101437008E3A8F3B8C3C8D3D8B828A83AD3BAC3A99
:101447007F50120F80AD3DAC3C7F51120F80AD82B3
:10145700AC837F52120F80AD41AC407F53120F8097
:10146700AD3BAC3A7F20120F80AD82AC837F211257
:091477000F807D22E4FF021551F3
:041480008E218F2208
:10148400754001754140E4FBFA7DF0FCFFFE121447
:1014940037E4FBFA900000AF22AE21121586A3E5D3
:1014A4008264F0458370F00BBB00010ABA01E5BB0E
:0214B40040E214
:0114B6002213
:101531008A1D8B1E8D828C83AD07AC06AB82AA837C
:10154100858340858241121437AF1EAE1D02158678
:0613DD008F508C518D526F
:1013E300E5502B14F557E5522555CFE5513554CF2C
:1013F30024FFF559EF34FFF558AF507E00AD577C0D
:1014030000F540855941AB52AA51121437A950E94E
:10141300C39557501EAB52AA51C3EB9559EA955841
:10142300500EAF567E001215860BBB00010A80E9F1
:031433000980DC51
:011436002293
:0C1086008E5A8F5B8C5C8D5D8A5E8B5FE8
:10109200E4F562F563AC62AD63E41208887BD87A4A
:1010A2000F794978401206DDE4FBFA79347843126D
:1010B20007E6120D47C004C005C006C007AC5EAD0E
:1010C2005FE4120888D003D002D001D0001206DDFE
:1010D200C004C005C006C007AC5AAD5BE412088864
:1010E200D003D002D001D0001205EC1208C1C00614
:1010F200C007AC62AD63E41208887BD87A0F7949E5
:1011020078401206DDE4FBFA793478431207E612DE
:101112000D5DC004C005C006C007AC5EAD5FE41241
:101122000888D003D002D001D0001206DDC004C06E
:1011320005C006C007AC5CAD5DE4120888D003D0E0
:1011420002D001D0001205EC1208C1AD07AC06D0E6
:1011520007D006AB61AA601215310563E563700220
:0E1162000562D39468E5629401500302109771
:01117000225C
:08124B00AA07A9038D828C8320
:10125300E4F511F512F513F514F515F5167E00C036
:1012630007E92AFFE433CF24FFFDEF34FFFCAB8211
:10127300AA83E50D2582CFE50C3583CF24FFF54105
:10128300EF34FFF540D007121437AF017E00AC0CEA
:10129300AD0D1209BCEF25E0F516EE33F515AB0ED7
:1012A300AA0FA910E5142401FFE435138F82F583F7
:1012B30012098F751100F512751200F5118514824C
:1012C30085138312098F4212AF12AE111215867461
:1012D300022514F514E43513F513C3E5149516E547
:0512E30013951540B950
:0112E80022E3
:061510008C188D198B1AE6
:10151600A907E9C3951A5012E9FF7E00AB1CAA1B66
:0A152600AD19AC181215310980E868
:011530002298
:0814B7008E648F658A688B6961
:1014BF008C6C8D6DC3E56D9569E56C95685019ABB6
:1014CF006BAA6AAD6DAC6CAF65AE64121531056D6C
:0814DF00E56D70E0056C80DC96
:0114E70022E2
:041375008E428F43D2
:10137900C3EB9543F54DEA9542F54CC3E5499DF517
:101389004FE5489CF54EE54F25E0FFE54E33FEC39A
:10139900EF954DFFEE954CAD07FC85438285428361
:1013A900C3E5829BE5839A502AED9400EC940040B2
:1013B9001FE54F25E0FFE54E33FEEF2DFDEE3CFC2A
:1013C900E54D25E0FFE54C33FEC3ED9FFDEC9EFCAA
:0313D900A380CD21
:0113DC0022EE
:081171008E218F228C238D24B6
:10117900AC27AD28AF03AE021209BCEF7803CEC38A
:1011890013CE13D8F9F5358E34EBAE027803CEC3FE
:1011990013CE13D8F9F5378E36E4F530F531C3E5BA
:0C11A900319535E5309534400302124AC0
:1011B500AB29AA2AA92B85318285308312098FFF95
:1011C5003395E0F5388F39E4F532F533E53930E715
:1011D5004AAC36AD37AE30AF311209CEE5242FFB20
:1011E500E5233EFAF5408B41AC36AD37AE30AF3135
:1011F5001209CEEDAE047803C333CE33CED8F9252C
:1012050022FFE5213EFEE5332FFDE5323EFCAF052D
:10121500FE121437AF2DAE2C121586E53925E0F5F3
:1012250039E53833F5380533E53370020532C394B3
:0712350008E532940040952A
:0E123C000531E53160030211A705300211A74C
:01124A002281
:1000030000000000000000000000000000000000ED
:10001300000E0000000780000007C0000003C000BE
:100023000703C0E0070001F00FFFFFF00F0003C05C
:100033001F1E0380001F0300001E0000003C00E0A1
:10004300003C01F07FFFFFB800783C0000787C00A3
:1000530000F0780000F0F80001E0F000007FF0000D
:100063000007E0000007FC00000FBF80003E0FC048
:1000730000F803E007E001E03F000000000000009B
:10008300000000000000000000000000000000006D
:10009300000000000000000000000000001C1C0025
:1000A3000F8F1F000FEFDF001FFFFE001EFFFE007C
:1000B3003CFFFC003FFFFC7077E1FFF80783F9F892
:1000C3000FFFFBE00F1E7BC01F3FFFC01FF7FFC0EA
:1000D3003FFFFFC07F1F9FC07F3DFFC00FFFFF801B
:1000E3000FFEFF800F1E0F800FFF8F000FFFCF004B
:1000F3000FFFFF800FDFFFC00FFEFBE00F7EF1F865
:100103000F3FC0F80C078000000000000000000053
:1001130000000000000000000000000000000000DC
:1001230000000000000000000000000000000000CC
:1001330000000000000003C03FFFFFE000078070E5
:100143000007800000078000000780000007800090
:100153000007800000078000000780000007800080
:100163000007800000078000000780000007800070
:100173000007800000078000000780000007800060
:10018300000781F07FFFFFF800000000000000007F
:10019300000000000000000000000000000000005C
:1001A300000000000000000000000000000000004C
:1001B30000000000000000000038F000003EF800DE
:1001C300003CF000003CF000003CF000003CF0007C
:1001D300383CF1E03C3CF1F01C3CF1F81E3CF3E010
:1001E3000F3CF3C00F3CF7C007BCF78007FCFF00D0
:1001F30007FCFF0007FCFE0003FCFC0003FCFC0003
:10020300003CF800003CF000003CF000003CF0F043
:10021300003CF1F8FFFFFFFC0000000000000000BD
:1002230000000000000000000000000000000000CB
:1002330000000000000000000000000000000000BB
:10024300000F0000000FC000000F8000000F8000AF
:10025300000F8000000F8000000F8000000F81F06E
:100263007FFFFFF8000F8038000F8000000F800031
:10027300000FC000000FC000000FE000001FE000EF
:10028300001EF000001EF000003C7800003C3C0023
:1002930000783E0000F01F0001E00FC003C007F02C
:1002A3000F8003F81E0000E078000000000000004B
:1002B300000000000000000000000000000000003B
:1002C30000000000000000000000000000000E001D
:1002D300071E0F0003CF1F8003EF9E0001F79E0050
:1002E30001F7BC0000F7B8001E0078F01FFFFFF80D
:1002F3001E0001F83E0001C03E001F8007FFFF0003
:1003030000007F000000F0000007E0000007C0E0ED
:100313000007C1F07FFFFFB80007800000078000DF
:10032300000780000007800000078000007F800036
:10033300001F8000000E000000000000000000000D
:10034300000000000000000020401040104000406A
:10035300004077FC104010401040104014401840FB
:1003630010400040000010403F7C44901FF01010EC
:100373001FF010101FF010101FF004407FFC084006
:1003830010400000100011F011107D101110111019
:100393003910351051101110111012141214140CBD
:1003A300000000000000000000000000000000004A
:1003B300000000000000000000000000000000003A
:1003C30000000070F8F8F8F870000000000000006A
:1003D3000000000000001010101010101F3F3F3FDE
:1003E300000000000000000000000000000000000A
:1003F30000000000FFFFFFFF0000000000000000FE
:10040300000000000000010101010101FFFFFFFFE7
:1004130001010101010100000000000000000000D3
:1004230000000000000000000000000000000000C9
:1004330000000000000000000000000000000000B9
:1004430000000000000000000000000000000000A9
:100453000000000000000000000000000000000099
:10046300000010101F3F3F3F0E1C18181F1F1F0FC7
:100473000F1C18181E1F1F0F03000000FFFFFFFFB4
:1004830000000000FFFFFFFF0000000000FFFFFF70
:10049300FF000101FFFFFFFF01010101FFFFFFFF5C
:1004A3000101000103FFFFFFFF0000000000000047
:1004B3000000000000000000000000000000000039
:1004C3000000000000000000000000000000000029
:1004D3000000000000000000000000000000000019
:1004E3000000000000000000000000000000000009
:1004F300000000000103070F0F1C1810101010104C
:10050300181E0F0F070300000000000080C3C3C7BD
:10051300C70E0C0C080818181010FFFFFFFF00008F
:1005230000000030FCFEFEFF87030101010103020E
:100533000606FEFFFFFF031F1E0000000000000071
:1005430000000000000000000000000000000000A8
:100553000000000000000000000000000000000098
:100563000000000000000000000000000000000088
:100573000000000000000000000000000000000078
:100583000000000000000307070F0E1C18101010D6
:10059300181D1F0F07030000000000003FFFFFFFAF
:1005A300FF000000000000000080C0C0C0C00000C9
:1005B3000000000080F0F8FCFE3E0F070703030372
:1005C3000307070E1C7870400000000000000000C5
:1005D3000000000000000000000000000000000018
:0205E300000016
:08157D00026EF800027000008C
:100F9800120A51E4FFFE121480E4F576F5777572B3
:100FA80000757314757400757528D3E573940CE592
:100FB8007294004065AE76AF777C007D8C1209BCD8
:100FC80074032FF974003E7529FFF52A892BE577FC
:100FD800AE767805C333CE33CED8F92573FFE572E4
:100FE8003EFE752700752823856E2C856F2DE4F548
:100FF8002EF52F7B20FAAD75AC741211717428256B
:101008006FF56FE4356EF56EE57315737002157242
:10101800E5751575709415748090AE76AF777C0081
:101028007D8C1209BC74032FF974003E7529FFF5F5
:101038002A892BE577AE767805C333CE33CED8F937
:101048002573FFE5723EFE752700752823752C076A
:10105800752DE0E4F52EF52F7B20FAAD75AC7412F2
:101068001171756E04756F900577E57770020576D6
:0E107800C39406E57694005003020FA680FE96
:1005E50002092DE86480F8E933E83360110460F00E
:1005F500ED33EC337009E8FCE9FDEAFEEBFF22047C
:1006050060DED3EB9FEA9EE99DE8C2E78CF0C2F776
:1006150095F0400CE8CCF8E9CDF9EACEFAEBCFFB42
:100625001208F885D0F05804700320D5B3E804709B
:10063500075002B2D502093792D5EC0460F7E4CC35
:10064500C0E0C398F8603B94186008400DD0E0FB0B
:1006550002090FE4FBFAC9FC8028E830E406E4C986
:10066500FBE4CAFCE830E305E4C9CACBFCE854075F
:100675006010F8C3E913F9EA13FAEB13FBEC13FC6A
:10068500D8F130F52FC3E49CFCEF9BFFEE9AFEED0D
:1006950099FDD0E0FBEF4E4D4C701222DB030209B1
:1006A50034EC2CFCEF33FFEE33FEED33FDED30E79C
:1006B500EB02090FEF2BFFEE3AFEED39FDD0E0FB23
:1006C50050130BBB0003020937ED13FDEE13FEEFCC
:0806D50013FFEC13FC02090FF6
:1006DD00EC4D6011E8497017ED33EC3304600DE417
:1006ED00FCFFFEFD22E933E8330470F802092D12F8
:1006FD0008F858046009E4CC2481500628500902FA
:10070D000937284003020934C0E0EB4A7044B98030
:10071D0006D0E0FB020923EF4E701CBD8008EBFFF5
:10072D00EAFEE9FD80EBE98DF0A4FEE5F00207C6D7
:10073D00E9CDF9EAFEEBFFEF89F0A4FCE5F0CE89F7
:10074D00F0A42EFFE435F0CD89F0A42DFEE435F0B4
:10075D008067EF4E7005BD80D780C3EF8BF0A4ACE2
:10076D00F0EE8BF0A42CFCE435F0F8EF8AF0A42C1D
:10077D00E5F038FCE433CB8DF0A42CFCE5F03BF830
:10078D00EE8AF0A42CFCE5F038F8E433CF89F0A420
:10079D002CFCE5F038CF3400CE89F0A42FFFE5F026
:1007AD003EFEE433C98DF0A42EFEE5F039CD8AF07E
:1007BD00A42FFFE5F03EFEE43DFD33D0E0FB5007F6
:1007CD000BBB000F020937EC2CFCEF33FFEE33FEB1
:0607DD00ED33FD02090FDF
:1007E300020937EC5D046005E85904700302092D22
:1007F3001208F8580460F6EC4860F2EC7004FDFE51
:10080300FF22C860DB2481C85009C39860025006E8
:100813000209349850CAF582E9294B4A7005AB8224
:1008230002092375F0007C1A7880C3EF9BEE9AEDE2
:1008330099400DC3EF9BFFEE9AFEED99FDE842F060
:10084300DC23ACF0D0E0FFD0E0FED0E0FDAB8220B3
:10085300E7101BEB60BAEC2CFCEF33FFEE33FEED3D
:1008630033FD02090FE803F830E705C0F075F00027
:10087300EF2FFFEE33FEED33FD40B830E7C280AA21
:1008830075F020800E75F010800575F0087D007EF0
:10089300007F003392D530D503120A23EC33401086
:1008A300EF33FFEE33FEED33FDEC33FCD5F0ED22F9
:0E08B300E5F0247EA2D513CC92E7CDCEFF2235
:1008C100EDD2E7CD33EC3392D524814006E4FFFE2F
:1008D100FDFC22FCE4CFCECDCC24E0501174FF808E
:1008E100EDC3CC13CCCD13CDCE13CECF13CF04702B
:0708F100F030D5DE020A23FE
:100CFF003A70FA83BCAAE9E43E81E0F8BF9DE9E6C9
:100D0F003F80000039283C1ABB9969663DA335E343
:100D1F00BF255DE73FC90FDB418DDBCCC44936EE04
:100D2F0045C9913FC5B0F83D3F800000C317F5346A
:100D3F00452FFA73C60AFDDD120DEE04A2E19200F3
:100D4F001420E015900CFF74041209428026120D36
:100D5F00EE30E102B20020E0EB8C788D798E7A8F45
:100D6F007B900D137404120942A878A979AA7AAB63
:100D7F007B1206DDED4C6007300004EC6480FC2232
:100D8F00120DEEC0E08C788D798E7A8F7B900D37B7
:100D9F007403120942A878A979AA7AAB7B1206DDEF
:100DAF00ECC578FCEDC579FDEEC57AFEEFC57BFF8E
:100DBF00900D277403120942D082A878A979AA7AD4
:100DCF00AB7BE58230E0071207E6B20080A6EFCBDF
:100DDF00FFEECAFEEDC9FDECC8FC1207E68095EDEB
:100DEF0033EC547FCC33920024605007D0E0D0E036
:100DFF0002092D7B837AF97922783E1206DDEDF90F
:100E0F0033ECF83324815011EFFBEEFA1208C112C4
:100E1F000883ECB2E7FC1205ECED33EC33602F24C2
:100E2F0003F8C313FCED92E7FDE82481E4501FECB7
:100E3F00F8EDF9EEFAEFFB1208C1EF04C2E0FCF592
:100E4F008212088DECB2E7FC1205ECE58203FAED95
:0E0E5F0033EC3360071413FCED92E7FDEA223A
:1008F800E9D2E7C933E833F892D5EDD2E7CD33EC46
:0709080033FC5002B2D522BE
:10090F00EC30E7100FBF000C0EBE00080DBD000449
:10091F000BEB6014A2D5EB13FCED92E7FD2274FFF5
:10092F00FCFDFEFF22E480F8A2D574FF13FC7D804E
:03093F00E480EF62
:10094200C0E0EFFBEEFAEDF9ECF81206DDD0E0F5CF
:10095200F0EFFBEEFAEDF9ECF8120A31A3A3A3A330
:10096200E8C0E0E9C0E0EAC0E0EBC0E0C0F0120697
:10097200DD120A41A3A3A3A31205ECD0F0D0E0FB41
:0D098200D0E0FAD0E0F9D0E0F8D5F0D422B2
:1012F500020F98E493A3F8E493A34003F68001F268
:1013050008DFF48029E493A3F85407240CC8C333F9
:10131500C4540F4420C8834004F456800146F6DFC8
:10132500E4800B0102040810204080901579E47ECA
:10133500019360BCA3FF543F30E509541FFEE493BD
:10134500A360010ECF54C025E060A840B8E493A384
:10135500FAE493A3F8E493A3C8C582C8CAC583CAAF
:10136500F0A3C8C582C8CAC583CADFE9DEE780BE67
:011585000065
:10098F00BB010CE58229F582E5833AF583E022501D
:10099F0006E92582F8E622BBFE06E92582F8E22267
:0D09AF00E58229F582E5833AF583E4932281
:1009BC00EF8DF0A4A8F0CF8CF0A428CE8DF0A42E4F
:0209CC00FE2209
:1009CE00BC000BBE0029EF8DF084FFADF022E4CC0D
:1009DE00F875F008EF2FFFEE33FEEC33FCEE9DECD6
:1009EE00984005FCEE9DFE0FD5F0E9E4CEFD22ED1C
:1009FE00F8F5F0EE8420D21CFEADF075F008EF2F66
:100A0E00FFED33FD4007985006D5F0F222C398FD56
:050A1E000FD5F0EA22F3
:0E0A2300C3E49FFFE49EFEE49DFDE49CFC22E4
:100A3100E493FC740193FD740293FE740393FF220B
:100A4100E493F8740193F9740293FA740393FB220B
:00000001FF
