:0200030002CF2A
:020005000009F0
:0200070002B243
:10029200E4FDFCC3ED9FEC9E5015E4FBFA0BBB00A2
:0F02A200010AEB64324A70F50DBD00010C80E4D7
:0102B100222A
:0200090080FE77
:1002B200750E01E4F9E50EF4F5907FF47E01120269
:0D02C20092E50E25E0F50E09B908EA80E38B
:0F02CF007F0112000E7F0212000EE4FF02009763
:10000E00EFD3940240037FFF2274102F2FF8E620C7
:10001E00E5F4C2AFE64430F6D2AFAE0CEEC39F505D
:10002E00210E74152EF8E6F908E618BE020274FFCA
:10003E00FDED69600909E71919F7090980F316162C
:10004E0080DAEED39F400405810581EED39F4022D6
:10005E0074152EF808E6F9EEB50C02A981180606FD
:10006E00E6FDED6960091919E70909F71980F31E14
:10007E0080D9EF2415F8E604F8EF2F0490000393CF
:09008E00F608EF2F93F67F002223
:10009700EFD3940240037FFF22EF232410F8E630CA
:1000A700E5F4C2AFE6548CF6D2AFE50CB5070A7497
:1000B700152FF8E6F58102019B502E74162FF8E6EE
:1000C700BF020274FFFD18E6F974152FF8FBE6FC72
:1000D700E96C6008A805E7F61D1980F4A803A605D2
:1000E7001FE50CB507E37F002274162FF8E6FD180D
:1000F70086010F74152FF8A601088604E50CB507CD
:1001070002AC81ED6C60080D09A805E6F780F4E5FF
:090117000CB507DE89817F00228E
:03000B00020125CA
:10012000C2AF80FE3212012485D00B75D008AAE040
:10013000C28CE58A24F7F58AE58C34D8F58CD28C0C
:10014000EC2416F8E6BC020274FFC39581B41400D7
:1001500040CE7903780F16E608700BC2AFE630E1A7
:10016000034418F6D2AF08D9EDEA8BD03000012253
:10017000D50DFCC0E0C0D0C0F0C083C082C000C0BC
:1001800001C002C003C004C005C006C007E50C23BF
:100190002410F87440C2AF46F6D2AFD200E50CFF8F
:1001A000232410F80F0808BF03047F007810E630FE
:1001B000E4F200E50CC39F5020050C7415250CF8E3
:1001C000E6FDA68108E6AE0CBE020274FFCDF8E89B
:1001D0006D60E008E6C0E080F6E50CD39F4027E5BF
:1001E0000C2416F8E6AE0CBE020274FFFD18E6CD34
:1001F000F8E5816D6006D0E0F61880F5E50C241571
:10020000C8F6150C80D3750D05E50C232410F87F76
:1002100004C2AFE610E61E30E00310E20C7F0030AF
:05022000E10730E304DA
:100225007F0854F4547CC6D2AF54804207C20022E2
:10023500F6D2AFD007D006D005D004D003D002D077
:1002450001D000D082D083D0F0D0D0D0E0C200223F
:100255007815A68174026006FF0876FFDFFB7F0331
:10026500E4780FF608F608DFFA7810763090000388
:10027500740193C0E0E493C0E0750D0543890175F1
:0D0285008AF0758CD8D28CD2AFD2A922029B
:030000000202DE1B
:0C02DE00787FE4F6D8FD758120020255FF
:00000001FF
