:03000000021127C3
:0C112700787FE4F6D8FD75815B02116E44
:0413A200021D93286D
:0912E7007C00120EDC7F1E7E006B
:1012F000E4FDFCC3ED9FEC9E5014E4FBFA0BBB0035
:0E130000010AEBF44A70F60DBD00010C80E509
:01130E0022BC
:10137100C2A2C2A5D2A3C2A48D80D2A0C2A08F80D6
:05138100D2A4D2A2225B
:10138600C2A2D2A58D80D2A0C2A08F80C2A4D2A4B0
:03139600D2A222BE
:04139900AD07AC06EA
:05139D00AF04021386FD
:100DC9007D01FCFF120EDC7D007C017F01120EDC2F
:100DD9007D007C077F02120EDC7D307C107F0312C0
:100DE9000EDCE4FDFC7F04120EDC7402FDFC7F08BE
:100DF900120EDCE4FDFC7F09120EDCE4FDFC7F0A27
:100E0900120EDCE4FDFC7F0C120EDCE4FDFC7F0D10
:100E1900120EDCE4FDFC7F0F120EDC7F1E7E001239
:100E290012F07DB07C167F10120EDC7F1E7E001240
:100E390012F07D077C007F11120EDC7D3A7C017F68
:100E490012120EDC7D007C1A7F13120EDC7F1E7ECF
:100E5900001212F07D0C7C007F29120EDC7F1E7EB1
:100E6900001212F0E4FDFC7F30120EDC7405FDFC6B
:100E79007F31120EDC7D047C037F32120EDC7D068D
:100E89007C007F35120EDC7407FDFC7F36120EDC08
:100E99007D057C017F37120EDC7D027C007F3812D4
:100EA9000EDC7407FDFC7F39120EDC7D047C077FA4
:100EB9003C120EDC7D077C087F3D120EDCE4FDFC54
:100EC9007F50120EDC7DEF7C007F51120EDCE4FDB9
:030ED900FC7F5249
:060EDC00AB05AA04AC07FF
:100EE200AF02AE07AD04E4FF121371AF06AD030209
:020EF200138665
:1009AD00D2A17F017E001212F0C2A17F0A1212F0B5
:1009BD00D2A17F321212F0E51E64207004E51D6491
:1009CD00937024120DC97D3F7C017F53120EDC7D87
:1009DD00007C277F60120EDC7D017C007F61120E92
:1009ED00DCE4FDFC020A25E51E64057004E51D64CA
:1009FD00156003020AA2120DC97D3F7C017F5312BF
:100A0D000EDC7D007C277F60120EDC7D017C007F7B
:100A1D0061120EDC7D007C277F6A120EDCE4FDFC8A
:100A2D007F20120EDCE4FDFC7F21120EDCE4FDFCC8
:100A3D007F80120EDCE4FDFC7F81120EDCE4FDFCF8
:100A4D007F82120EDCE4FDFC7F83120EDCE4FDFCE4
:100A5D007F84120EDCE4FDFC7F85120EDC7D107CA4
:100A6D00007F90120EDCE4FDFC7F92120EDC7D0304
:100A7D007C007F93120EDC7D107C017F95120EDCC5
:100A8D00E4FDFC7F97120EDCE4FDFC7F98120EDC7A
:100A9D007D73020C53E51E64287004E51D6493609C
:100AAD0003020C5AFD7C017F01120EDC7D007C07D8
:100ABD007F02120EDC7D387C107F03120EDCE4FD0C
:100ACD00FC7F04120EDC7D017C007FA4120EDC7411
:100ADD0002FDFC7F08120EDCE4FDFC7F09120EDC2A
:100AED00E4FDFC7F0A120EDCE4FDFC7F0C120EDC33
:100AFD00E4FDFC7F0D120EDCE4FDFC7F0F120EDC1D
:100B0D00E4FDFC7F10120EDC7D077C007F11120EC0
:100B1D00DCE4FDFC7F12120EDCE4FDFC7F131212EF
:100B2D00E97D907C167F10120EDC7D277C027F11F3
:100B3D001212E97D1C7F121212E77D007C187F13C3
:100B4D00120EDC7D1C7C007F29120EDC7D0D7F2BAF
:100B5D001212E7E4FDFC7F20120EDCE4FDFC7F2188
:100B6D00120EDC7D077C007F30120EDC7D027C03D3
:100B7D007F31120EDC7D057C017F32120EDC7D068D
:100B8D007C027F35120EDC7408FDFC7F36120EDC04
:100B9D007D067C027F37120EDC7D047C057F3812CA
:100BAD000EDC7D077C007F39120EDC7D057C017F1C
:100BBD003C120EDC7408FDFC120EC11212EC7D3FCE
:100BCD007C017F531212E97D007C277F60120EDCC1
:100BDD007D017C007F61120EDCE4FDFC7F6A120E4C
:100BED00DCE4FDFC7F80120EDCE4FDFC7F81120E47
:100BFD00DCE4FDFC7F82120EDCE4FDFC7F83120E33
:100C0D00DCE4FDFC7F84120EDCE4FDFC7F85120E1E
:100C1D00DC7D107C007F90120EDCE4FDFC7F9212D7
:100C2D000EDC7D037C007F93120EDC7D107C017F3A
:100C3D0095120EDCE4FDFC7F97120EDCE4FDFC7FCB
:0E0C4D0098120EDC7D337C017F07120EDC2234
:101267008E448F458C468D478B828A83AD45AC442F
:101277007F50120EDCAD47AC467F51120EDCAD82BB
:10128700AC837F52120EDCAD4BAC4A7F53120EDC9F
:10129700AD45AC447F20120EDCAD82AC837F2112BA
:0912A7000EDC7D22E4FF0213714C
:0412B0008E2F8F30BE
:1012B400754A01754B40E4FBFA7DF0FCFFFE121207
:1012C40067E4FBFA900000AF30AE2F121399A3E548
:1012D4008264F0458370F00BBB00010ABA01E5BBE0
:0212E40040E2E6
:0112E60022E5
:101351008A398B3A8D828C83AD07AC06AB82AA8326
:1013610085834A85824B121267AF3AAE39021399CF
:0611B3008F4C8C4D8D4EA7
:1011B900E54C2B14F553E54E2551CFE54D3550CF70
:1011C90024FFF555EF34FFF554AF4C7E00AD537C49
:1011D90000F54A85554BAB4EAA4D121267A94CE949
:1011E900C39553501EAB4EAA4DC3EB9555EA955482
:1011F900500EAF527E001213990BBB00010A80E911
:031209000980DC7D
:01120C0022BF
:0C0EF4008E2F8F308C318D328A338B347E
:100F0000E4F537F538AC37AD38E41208397BD87AD8
:100F10000F7949784012068EE4FBFA79347843124F
:100F20000797120CA3C004C005C006C007AC33ADC0
:100F300034E4120839D003D002D001D00012068E5A
:100F4000C004C005C006C007AC2FAD30E41208399C
:100F5000D003D002D001D00012059D120872C00645
:100F6000C007AC37AD38E41208397BD87A0F79491D
:100F7000784012068EE4FBFA793478431207971210
:100F80000CB9C004C005C006C007AC33AD34E412D0
:100F90000839D003D002D001D00012068EC004C0A0
:100FA00005C006C007AC31AD32E4120839D003D019
:100FB00002D001D00012059D120872AD07AC06D018
:100FC00007D006AB36AA351213510538E538700242
:0E0FD0000537D39468E53794015003020F05EE
:010FDE0022F0
:08108900AA07A9038D828C83E4
:10109100E4F511F512F513F514F515F5167E00C0FA
:1010A10007E92AFFE433CF24FFFDEF34FFFCAB82D5
:1010B100AA83E50D2582CFE50C3583CF24FFF54BBF
:1010C100EF34FFF54AD007121267AF017E00AC0C76
:1010D100AD0D12096DEF25E0F516EE33F515AB0EEA
:1010E100AA0FA910E5142401FFE435138F82F583BB
:1010F100120940751100F512751200F5118514825F
:101101008513831209404212AF12AE111213997462
:10111100022514F514E43513F513C3E5149516E50A
:0511210013951540B913
:0111260022A6
:06130F008C188D198B1AE9
:10131500A907E9C3951A5012E9FF7E00AB1CAA1B69
:0A132500AD19AC181213510980E84D
:01132F00229B
:041330008F568B59F0
:10133400AF05A907E9C395595012AF567E00E9FDE0
:0C1344007C00AB5BAA5A1213510980E830
:01135000227A
:080FDF008E2F8F308D828C8370
:100FE700AC35AD36AF03AE0212096DEF7803CEC351
:100FF70013CE13D8F9F5418E40AF82AE83E536257F
:1010070082CDE5353583CD24FFCD34FFFCE5302B8C
:10101700CBE52F3ACB24FFF54BEB34FFF54AAB304A
:10102700AA2F121267E4F53EF53FC3E53F9541E568
:051037003E9540504C05
:10103C00AB37AA38A939853F82853E83120940FF18
:10104C003395E0F5428F43E4FBFAE54330E706AF16
:10105C003BAE3A8004AF3DAE3C121399E54325E01C
:10106C00F543E54233F5420BBB00010AEB64084A39
:02107C0070D82A
:0A107E00053FE53F70AD053E80A977
:011088002245
:10120D0000000018244242424242422418000000CD
:10121D0000001070101010101010107C0000000055
:10122D00003C42420204081020427E0000000000F3
:10123D003C42420418040242423C000000000008F7
:10124D0008182848487E08081E00000000007E404F
:0A125D00405C62020242423C0000C5
:100003001209AD7F1F7E001212B075210075227890
:10001300752300752464752B00752C1E75250075DA
:1000230026C3AC25AD26E41208397BDA7A0F794969
:10003300784012068EE4FBFA79347843120797125C
:100043000CB9E4FBFA7940784012068EC004C0056F
:10005300C006C007AC2BAD2CE4120839D003D00284
:10006300D001D00012068EC004C005C006C007AC84
:1000730023AD24E4120839D003D002D001D00012FA
:10008300059D120872C006C007AC25AD26E4120810
:10009300397BDA7A0F7949784012068EE4FBFA79D4
:1000A300347843120797120CA3E4FBFA7980784063
:1000B30012068EC004C005C006C007AC2BAD2CE4ED
:1000C300120839D003D002D001D00012068EC0042A
:1000D300C005C006C007AC21AD22E4120839D00325
:1000E300D002D001D00012059D120872AD07AC06F4
:1000F300D007D006E4FBFA1213510526E526700259
:100103000525D39459E52594015003020025E4F510
:1001130025F526E4F535F536AB26AA25AD22AC2127
:10012300AF24AE23120EF40526E52670020525C37F
:100133009404E525940040DB7525007526C3E4F59A
:1001430027F528D3E5269459E525940140030205B4
:1001530094AC25AD26E41208397BDA7A0F79497815
:100163004012068EE4FBFA79347843120797120C97
:10017300A3E4FBFA7980784012068EC004C005C060
:1001830006C007AC2BAD2CE4120839D003D002D043
:1001930001D00012068EC004C005C006C007AC2102
:1001A300AD22E4120839D003D002D001D0001205E9
:1001B3009D1208728E218F22AC25AD26E4120839D8
:1001C3007BDA7A0F7949784012068EE4FBFA7934A8
:1001D3007843120797120CB9E4FBFA79407840127E
:1001E300068EC004C005C006C007AC2BAD2CE412BC
:1001F3000839D003D002D001D00012068EC004C04B
:1002030005C006C007AC23AD24E4120839D003D0DF
:1002130002D001D00012059D1208728E238F24E4B0
:10022300F52DF52EE526244CFDE52534FFFCE412DF
:1002330008397BDA7A0F7949784012068EE4FBFAA3
:1002430079347843120797120CB9C004C005C0066D
:10025300C007AC2DAD2EE4120839D003D002D00173
:10026300D00012068EC004C005C006C007AC23AD83
:1002730024E4120839D003D002D001D00012059D26
:10028300120872C006C007E526244CFDE52534FF9D
:10029300FCE41208397BDA7A0F7949784012068E2A
:1002A300E4FBFA79347843120797120CA3C004C015
:1002B30005C006C007AC2DAD2EE4120839D003D01B
:1002C30002D001D00012068EC004C005C006C007CC
:1002D300AC21AD22E4120839D003D002D001D00002
:1002E30012059D120872AD07AC06D007D006E4FBD9
:1002F300FA121351052EE52E7002052DC3940CE559
:100303002D94005003020227C3E5289403E52794A4
:1003130000AE27AF287C007D0F502012096D740DAD
:100323002FF974123E7537FFF5388939E522240514
:10033300FFE43521FEE5242405801F12096D740DA9
:100343002FF974123E7537FFF5388939E52224F306
:10035300FFE52134FFFEE5242403FDE43523FC758A
:10036300350075360FE4F53AF53BF53C753D1F7BDB
:1003730008FA120FDFC3E5289405E527940040032C
:1003830002057285252985262AE526241EFFE435E4
:1003930025FEC3E52A9FE5299E40030205727521C8
:1003A30000752278752300752464AC29AD2AE41204
:1003B30008397BDA7A0F7949784012068EE4FBFA22
:1003C30079347843120797120CA3E4FBFA79807807
:1003D3004012068EC004C005C006C007AC2BAD2C6E
:1003E300E4120839D003D002D001D00012068EC027
:1003F30004C005C006C007AC21AD22E4120839D001
:1004030003D002D001D00012059D1208728E218FF5
:1004130022AC29AD2AE41208397BDA7A0F794978BC
:100423004012068EE4FBFA79347843120797120CD4
:10043300B9E4FBFA7940784012068EC004C005C0C7
:1004430006C007AC2BAD2CE4120839D003D002D080
:1004530001D00012068EC004C005C006C007AC233D
:10046300AD24E4120839D003D002D001D000120524
:100473009D1208728E238F24E4F52DF52EE52A2490
:100483004CFDE52934FFFCE41208397BDA7A0F7955
:1004930049784012068EE4FBFA79347843120797C1
:1004A300120CB9C004C005C006C007AC2DAD2EE4C4
:1004B300120839D003D002D001D00012068EC00436
:1004C300C005C006C007AC23AD24E4120839D0032D
:1004D300D002D001D00012059D120872C006C007D9
:1004E300E52A244CFDE52934FFFCE41208397BDAC4
:1004F3007A0F7949784012068EE4FBFA793478430F
:10050300120797120CA3C004C005C006C007AC2D88
:10051300AD2EE4120839D003D002D001D000120668
:100523008EC004C005C006C007AC21AD22E412088A
:1005330039D003D002D001D00012059D120872AD4C
:1005430007AC06D007D006E4FBFA121351052EE5DB
:100553002E7002052DC39406E52D9400500302046A
:10056300807406252AF52AE43529F52902038C75BA
:100573002100752278752300752464741E2526F5E1
:1005830026E43525F5250528E5287002052702010F
:030593004680FEA1
:100596000208DEE86480F8E933E83360110460F0AD
:1005A600ED33EC337009E8FCE9FDEAFEEBFF2204CB
:1005B60060DED3EB9FEA9EE99DE8C2E78CF0C2F7C6
:1005C60095F0400CE8CCF8E9CDF9EACEFAEBCFFB92
:1005D6001208A985D0F05804700320D5B3E804703A
:1005E600075002B2D50208E892D5EC0460F7E4CCD5
:1005F600C0E0C398F8603B94186008400DD0E0FB5B
:100606000208C0E4FBFAC9FC8028E830E406E4C925
:10061600FBE4CAFCE830E305E4C9CACBFCE85407AE
:100626006010F8C3E913F9EA13FAEB13FBEC13FCB9
:10063600D8F130F52FC3E49CFCEF9BFFEE9AFEED5C
:1006460099FDD0E0FBEF4E4D4C701222DB03020801
:10065600E5EC2CFCEF33FFEE33FEED33FDED30E73A
:10066600EB0208C0EF2BFFEE3AFEED39FDD0E0FBC2
:1006760050130BBB00030208E8ED13FDEE13FEEF6B
:0806860013FFEC13FC0208C095
:10068E00EC4D6011E8497017ED33EC3304600DE466
:10069E00FCFFFEFD22E933E8330470F80208DE1297
:1006AE0008A958046009E4CC248150062850090298
:1006BE0008E82840030208E5C0E0EB4A7044B98020
:1006CE0006D0E0FB0208D4EF4E701CBD8008EBFF95
:1006DE00EAFEE9FD80EBE98DF0A4FEE5F002077776
:1006EE00E9CDF9EAFEEBFFEF89F0A4FCE5F0CE8947
:1006FE00F0A42EFFE435F0CD89F0A42DFEE435F004
:10070E008067EF4E7005BD80D780C3EF8BF0A4AC31
:10071E00F0EE8BF0A42CFCE435F0F8EF8AF0A42C6C
:10072E00E5F038FCE433CB8DF0A42CFCE5F03BF87F
:10073E00EE8AF0A42CFCE5F038F8E433CF89F0A46F
:10074E002CFCE5F038CF3400CE89F0A42FFFE5F075
:10075E003EFEE433C98DF0A42EFEE5F039CD8AF0CD
:10076E00A42FFFE5F03EFEE43DFD33D0E0FB500745
:10077E000BBB000F0208E8EC2CFCEF33FFEE33FE50
:06078E00ED33FD0208C07E
:100794000208E8EC5D046005E8590470030208DE11
:1007A4001208A9580460F6EC4860F2EC7004FDFEEF
:1007B400FF22C860DB2481C85009C3986002500638
:1007C4000208E59850CAF582E9294B4A7005AB82C4
:1007D4000208D475F0007C1A7880C3EF9BEE9AED82
:1007E40099400DC3EF9BFFEE9AFEED99FDE842F0B0
:1007F400DC23ACF0D0E0FFD0E0FED0E0FDAB822003
:10080400E7101BEB60BAEC2CFCEF33FFEE33FEED8C
:1008140033FD0208C0E803F830E705C0F075F000C6
:10082400EF2FFFEE33FEED33FD40B830E7C280AA70
:1008340075F020800E75F010800575F0087D007E3F
:10084400007F003392D530D50312097FEC3340107A
:10085400EF33FFEE33FEED33FDEC33FCD5F0ED2248
:0E086400E5F0247EA2D513CC92E7CDCEFF2284
:10087200EDD2E7CD33EC3392D524814006E4FFFE7E
:10088200FDFC22FCE4CFCECDCC24E0501174FF80DD
:10089200EDC3CC13CCCD13CDCE13CECF13CF04707A
:0708A200F030D5DE02097FF2
:100C5B003A70FA83BCAAE9E43E81E0F8BF9DE9E66D
:100C6B003F80000039283C1ABB9969663DA335E3E8
:100C7B00BF255DE73FC90FDB418DDBCCC44936EEA9
:100C8B0045C9913FC5B0F83D3F800000C317F5340F
:100C9B00452FFA73C60AFDDD120D4A04A2E192003C
:100CAB001420E015900C5B74041208F38026120DCF
:100CBB004A30E102B20020E0EB8C398D3A8E3B8F4B
:100CCB003C900C6F74041208F3A839A93AAA3BABF9
:100CDB003C12068EED4C6007300004EC6480FC2265
:100CEB00120D4AC0E08C398D3A8E3B8F3C900C93A1
:100CFB0074031208F3A839A93AAA3BAB3C12068E2F
:100D0B00ECC539FCEDC53AFDEEC53BFEEFC53CFF2E
:100D1B00900C8374031208F3D082A839A93AAA3B2A
:100D2B00AB3CE58230E007120797B20080A6EFCB11
:100D3B00FFEECAFEEDC9FDECC8FC1207978095EDDE
:100D4B0033EC547FCC33920024605007D0E0D0E0DA
:100D5B000208DE7B837AF97922783E12068EEDF952
:100D6B0033ECF83324815011EFFBEEFA12087212B8
:100D7B000834ECB2E7FC12059DED33EC33602F2405
:100D8B0003F8C313FCED92E7FDE82481E4501FEC5C
:100D9B00F8EDF9EEFAEFFB120872EF04C2E0FCF586
:100DAB008212083EECB2E7FC12059DE58203FAEDD8
:0E0DBB0033EC3360071413FCED92E7FDEA22DF
:1008A900E9D2E7C933E833F892D5EDD2E7CD33EC95
:0708B90033FC5002B2D5220E
:1008C000EC30E7100FBF000C0EBE00080DBD000499
:1008D0000BEB6014A2D5EB13FCED92E7FD2274FF45
:1008E000FCFDFEFF22E480F8A2D574FF13FC7D809E
:0308F000E480EFB2
:1008F300C0E0EFFBEEFAEDF9ECF812068ED0E0F56E
:10090300F0EFFBEEFAEDF9ECF812098DA3A3A3A324
:10091300E8C0E0E9C0E0EAC0E0EBC0E0C0F01206E6
:100923008E12099DA3A3A3A312059DD0F0D0E0FBD3
:0D093300D0E0FAD0E0F9D0E0F8D5F0D42201
:10113300020003E493A3F8E493A34003F68001F2CF
:1011430008DFF48029E493A3F85407240CC8C333BD
:10115300C4540F4420C8834004F456800146F6DF8C
:10116300E4800B01020408102040809013A2E47E67
:10117300019360BCA3FF543F30E509541FFEE49381
:10118300A360010ECF54C025E060A840B8E493A348
:10119300FAE493A3F8E493A3C8C582C8CAC583CA73
:1011A300F0A3C8C582C8CAC583CADFE9DEE780BE2B
:0113A6000046
:10094000BB010CE58229F582E5833AF583E022506C
:1009500006E92582F8E622BBFE06E92582F8E222B6
:0D096000E58229F582E5833AF583E49322D0
:10096D00EF8DF0A4A8F0CF8CF0A428CE8DF0A42E9E
:02097D00FE2258
:0E097F00C3E49FFFE49EFEE49DFDE49CFC2289
:10098D00E493FC740193FD740293FE740393FF22B0
:10099D00E493F8740193F9740293FA740393FB22B0
:00000001FF
