:03000000020917DB
:0C091700787FE4F6D8FD75810B0209081A
:1008F4003F305B4F666D7D077F6FC0F9A4B099925E
:0409040082F8809065
:0F090800750800750917AF09AE0812088B80F744
:10088B008E0A8F0B758001AE0AAF0B7C007D0A12AE
:10089B00080074FE2DF58274083CF583E493F59003
:1008AB007F0A7E001208D5758002AE0AAF0B7C0062
:1008BB007D0A12080074FE2FF58274083EF583E45E
:0A08CB0093F5907F0A7E000208D525
:1008D5007D6E7C00EF1FAA0670011E4A6010ED1D9B
:0E08E500AA0470011C4A70F67C007D6E80E64D
:0108F30022E2
:10080000C2D5EC30E709B2D5E4C39DFDE49CFCEE13
:1008100030E715B2D5E4C39FFFE49EFE120836C34D
:10082000E49DFDE49CFC800312083630D507C3E448
:060830009FFFE49EFE2282
:10083600BC000BBE0029EF8DF084FFADF022E4CCA6
:10084600F875F008EF2FFFEE33FEEC33FCEE9DEC6F
:10085600984005FCEE9DFE0FD5F0E9E4CEFD22EDB5
:10086600F8F5F0EE8420D21CFEADF075F008EF2FFF
:10087600FFED33FD4007985006D5F0F222C398FDF0
:050886000FD5F0EA228D
:00000001FF
