:0300000002113AB0
:0C113A00787FE4F6D8FD75814202118137
:1000030000000000000000000000000000000000ED
:1000130000000000000000000000000000000000DD
:1000230000000000000000000000000000000000CD
:1000330000000000000000000000000000000000BD
:10021300000000101010101010001010000000005B
:10022300000000242424000000000000000000005F
:1002330000000024247E2424247E242400000000C3
:10024300000000107C90907C12127C1000000000D3
:100253000000000062640810204C8C0000000000C5
:1002630000000000182420508A844A300000000057
:10027300000000101020000000000000000000003B
:10028300000008102020202020202010080000005B
:1002930000002010080808080808081020000000C3
:1002A3000000000000105438385410000000000013
:1002B300000000000010107C10100000000000007F
:1002C30000000000000000000000101020000000EB
:1002D300000000000000007C00000000000000009F
:1002E30000000000000000000000001000000000FB
:1002F300000000000002040810204000000000007D
:100303000000003844444C54644444380000000066
:100313000000001030101010101010380000000002
:1003230000000038440404081020407C0000000052
:100333000000007C04081038040404780000000066
:1003430000000008182848487C080808000000003E
:100353000000007C40404078040404780000000062
:100363000000003C40404078444444380000000012
:100373000000007C0404081020202020000000005E
:10038300000000384444443844444438000000002A
:10039300000000384444443C0404043800000000D6
:1003A300000000000000001000001000000000002A
:1003B30000000000000000001000101020000000EA
:1003C30000000000000408102010080400000000D2
:1003D300000000000000007C007C00000000000022
:1003E3000000000000201008040810200000000096
:1003F30000003844440408101000101000000000EE
:10040300000000000038445C545C403C00000000E5
:10041300000018244242427E424242420000000051
:1004230000007C4242427C424242427C0000000087
:1004330000003C42404040404040423C000000003D
:1004430000007C42424242424242427C00000000A1
:1004530000007E40404078404040407E0000000065
:1004630000007E4040407840404040400000000093
:1004730000003C4240405E424242423C00000000D9
:100483000000424242427E42424242420000000099
:100493000000381010101010101010380000000069
:1004A30000001C080808080808084830000000007D
:1004B300000042444850606050484442000000003D
:1004C30000004040404040404040407E000000006B
:1004D30000008282C6C6AAAA92928282000000000D
:1004E300000042626252524A4A46464200000000FD
:1004F30000003C42424242424242423C0000000071
:1005030000007C424242427C4040404000000000E8
:1005130000003C424242424242424A3C0E0000003A
:1005230000007C424242427C5048444200000000AA
:1005330000003C4240403C020202423C00000000FA
:1005430000007C101010101010101010000000009C
:1005530000004242424242424242423C000000000A
:1005630000004444444428282810101000000000D0
:1005730000008282828254545428282800000000FC
:1005830000004242241818182424424200000000AC
:1005930000004444444428281010101000000000B8
:1005A30000007E02020408102040407E000000008C
:1005B30000003820202020202020203800000000C8
:1005C30000000000000040201008040200000000AA
:1005D30000001C04040404040404041C00000000C0
:1005E300000000001028440000000000000000008C
:1005F300000000000000000000000000FF000000F9
:1006030000000010100800000000000000000000BF
:10061300000000000078043C4444443A0000000019
:1006230000004040405C62424242625C00000000C5
:1006330000000000003C42404040423C00000000FB
:1006430000000202023A46424242463A00000000DB
:1006530000000000003C42427E40423C000000009B
:1006630000000E1010103C101010101000000000BD
:1006730000000000003E424242423E02023C0000B3
:1006830000004040405C624242424242000000009F
:100693000000000800080808080808080000000017
:1006A30000000004000404040404040444380000AB
:1006B300000040404042444850684442000000006B
:1006C3000000101010101010101010100000000087
:1006D3000000000000EC92929292929200000000BF
:1006E30000000000007C42424242424200000000FF
:1006F30000000000003C42424242423C0000000035
:1007030000000000005C62424242625C4040000024
:1007130000000000003A46424242463A020200000C
:1007230000000000005C62404040404000000000C8
:1007330000000000003C42403C02423C000000003C
:1007430000000020207820202020221C0000000030
:1007530000000000004242424242423E00000000CC
:100763000000000000424242424224180000000000
:1007730000000000008282829292AA4400000000DE
:1007830000000000004242241824424200000000FE
:10079300000000000042424242423E02023C00008E
:1007A30000000000007E02041820407E00000000CC
:1007B3000000081010102040201010100800000046
:1007C3000010101010101010101010101010100046
:1007D3000000201010100804081010102000000062
:1007E3000000000000002254880000000000000008
:1007F30000000000000000000000000000000000F6
:09151200D293D294D292D2942219
:10148E00E4FEC294EF25E0FF9292C294000000D2D7
:08149E00940000000EBE08ECF2
:0114A6002223
:10146C00E4FDFFFEEF25E0FFEE33FED2940000001A
:10147C00C2940000003091050FBF00010E0DBD0C91
:01148C00E37C
:01148D00223C
:051441001214F97F32D6
:10144600E4FDFCC3ED9FEE6480F8EC6480985015D3
:10145600E4FBFA0BBB00010ABA03F8BBE8F50DBDC5
:0514660000010C80DE16
:01146B00225E
:0D14E7008F80C2A4D2A48D80C2A4D2A42202
:05152400C2A30214E760
:0514F400FF121524FDAC
:0514F900D2A30214E77C
:101234008E188F198C1A8D1B7D20E4FF121524E55E
:1012440018FFAD191214F97D21E4FF121524E51AD3
:10125400FFAD1B1214F97D50E4FF121524E518FFAD
:10126400AD191214F97D52E4FF121524E51AFFADED
:101274001B1214F97D51E4FF121524AF02AD0312C1
:1012840014F97D53FF121524E51EFFAD1F1214F946
:071294007D22E4FF02152496
:100ED800D2B7D2A07F057E00121446C2A0121446D3
:100EE800D2A0D2A2D2A5D2A4121446C2A27DE5E411
:100EF800FF1215247DF07F781214F97D01FF121579
:100F0800241D0F1214F97D021F121524FD7F0712EC
:100F180014F97D03FF1215247D307F101214F97D1A
:100F2800041214F47D081215241D7F021214F97D91
:100F3800091214F47D0A1214F57D0C1214F57D0DB6
:100F48001214F57D0F1214F57D101214F57D11128F
:100F580015247D071214F97D121214F57D1312144D
:100F6800F57D071215247D011214417D10E4FF124E
:100F780015247D907F101214F97D11FF1215247D20
:100F8800277F021214417D12E4FF1215247D1F12DF
:100F980014417D13E4FF121524FD7F151214F97D09
:100FA80029FF1215247D271214F97D2B1215247D93
:100FB8000D1214417D20E41214F47D211214F57DE4
:100FC800301214F57D311215247D077F071214F9AC
:100FD8007D32FF1215247D077F031214F97D35FF3A
:100FE800121524FD7F021214F97D36FF1215247D97
:100FF800081214F97D371215247D041214F97D386E
:101008001214F57D391215247D077F071214F97D16
:101018003CFF1215247D021214F97D3D1215247D22
:10102800047F1D1214F97D501214F47D51121524F9
:101038007DEF1214F97D521214F57D531215247D9B
:101048003F0F1214F97D601F121524FD7FA712149B
:10105800F97D61FF1215247D011214F97D6A1214BD
:10106800F57D801214F57D811214F57D821214F538
:101078007D831214F57D841214F57D851214F57D97
:10108800901215247D101214F97D92121524FD7FFB
:10109800061214F97D07FF1215247D330F1214F977
:0310A800D2A222AF
:041387008E0C8F0D2C
:10138B00751E01751F407BF07A00E4FDFCFFFE1219
:10139B001234E4F50EF50FE4FBFAE50CFFAD0D127C
:1013AB0014F90BBB00010AEB64F04A70ED050FE575
:1013BB000F7002050EC39440E50E6480948140D7F4
:0113CB0022FF
:0C12F1008E0C8F0D8A108B118D828C8367
:1012FD0085121E85131F121234858316858217D30E
:10130D00E5179513E51695125026AB0DAA0CD3EBE8
:10131D009511EA9510500FE514FFAD151214F90B48
:10132D00BB00010A80E80517E51770D3051680CFBD
:01133D00228D
:0610AB008B258D828C8371
:1010B100EF2407FDE43EFCAB82AA83E582240FF511
:0E10C10036E43583F53512133EE4F52AF52B9F
:1010CF00AF25EF3395E0FEEFC4F8540FC868FFEE7D
:1010DF00C454F048FEE52B2FFFE52A3EFE74032F84
:1010EF00F58274003EF583E493F52EE4F52CF52D8F
:1010FF00E52E30E706AF27AE268004AF29AE2812C3
:10110F00151BE52E25E0F52E052DE52D7002052C7E
:09111F00C39408E52C940040D7AC
:10112800052BE52B7002052AC39410E52A9400408C
:011138009620
:011139002293
:0F14D800851D26851E27851F288520290210AB1C
:0E129B008E0C8F0D8C0E8D0F8B108A11891208
:1012A900E4F517AB10AA11A9121211C66039C3943B
:1012B9008050F0E51775F008A4250DFFE50C35F011
:1012C900FE1211C6FB85131D85141E85151F851673
:1012D90020AD0FAC0E1214D874012512F512E435A5
:0712E90011F511051780BC8F
:0112F00022DB
:04151B00AD07AC0666
:05151F00AF04021508F5
:0A14FE00C2A2C2A31214E7D2A22278
:0A150800C2A2D2A31214E7D2A2225D
:0614C000AB05AA04AC0715
:1014C600AF02AE07AD04E4FF1214FEAF06AD030291
:0214D6001508F7
:10133E008E2F8F308C318D328B828A83AD30AC2FD5
:10134E007F501214C0AD32AC317F511214C0AD8239
:10135E00AC837F521214C0AD36AC357F531214C01D
:10136E00AD30AC2F7F201214C0AD82AC837F211222
:09137E0014C07D22E4FF0214FEFC
:1013CC004C454420436F6E74726F6C004C45442046
:1013DC0031004C45442032004C45442033004C45F0
:1013EC00442034004C45442035004C454420360004
:1013FC004C45442037004C4544203800FFE0F81F92
:1014A700013B00013C00013D00013E00013F0001FE
:0814B700400001410001420068
:10080300D2A1121512120ED8C2A27FFF7E7F12133D
:100813008775120075138875140075151F7B707A20
:10082300007D607C007F107E001212F1751200754E
:1008330013C075140075151F7B707A007D987C00BA
:100843007F107E001212F17512007513F8751400F3
:1008530075151F7B707A007DD07C007F107E00129F
:1008630012F175120175133075140075151F7B7025
:100873007A007D087C017F107E001212F175120050
:1008830075138875140075151F7BE07A007D607CF5
:10089300007F807E001212F17512007513C075146B
:1008A3000075151F7BE07A007D987C007F807E00B9
:1008B3001212F17512007513F875140075151F7B6C
:1008C300E07A007DD07C007F807E001212F17512E9
:1008D3000175133075140075151F7BE07A007D08D0
:1008E3007C017F807E001212F17BFF7A1379CC7535
:1008F30013F875140075157F7516FF7D287C007F2E
:10090300517E0012129B7BFF7A1379D87513FF7502
:1009130014E075150075161F7D6C7C007F2C7E001E
:1009230012129B7BFF7A1379DE7513FF7514E07542
:10093300150075161F7DA47C007F2C7E0012129B70
:100943007BFF7A1379E47513FF7514E07515007551
:10095300161F7DDC7C007F2C7E0012129B7BFF7AAE
:100963001379EA7513FF7514E075150075161F7D6D
:10097300147C017F2C7E0012129B7BFF7A1379F08B
:100983007513FF7514E075150075161F7D6C7C00DB
:100993007F9C7E0012129B7BFF7A1379F67513FFFF
:1009A3007514E075150075161F7DA47C007F9C7E71
:1009B3000012129B7BFF7A1379FC7513FF7514E009
:1009C30075150075161F7DDC7C007F9C7E0012125E
:1009D3009B7BFF7A1479027513FF7514E07515007C
:1009E30075161F7D147C017F9C7E0012129B209044
:1009F300FD12140CE5382470FFE53734FEFE7C004D
:100A03007D0D1211DFC374F09FF509E49EF508E52F
:100A13003A2470FFE53934FEFE7C007D0A1211DFB3
:100A2300C374409FF50B74019EF50AC3E509941046
:100A3300E50894005003020AC0D3E5099470E50861
:100A430094005079C3E50B9460E50A9400406ED39B
:100A5300E50B9488E50A94005063B280E53B0454A7
:100A630001F53B25E02408F582E43414F583E4938F
:100A7300F513740193F5147BFF7A1379D875150078
:100A830075161F7D6C7C007F2C7E0012129B2090BC
:100A93002CC3E5099410E50894004021D3E509949B
:100AA30070E50894005016C3E50B9460E50A9400C2
:100AB300400BD3E50B9488E50A940040D1C3E509C4
:100AC3009410E50894005003020B52D3E509947087
:100AD300E50894005079C3E50B9498E50A94004027
:100AE3006ED3E50B94C0E50A94005063B281E53CF4
:100AF300045401F53C25E02408F582E43414F5831D
:100B0300E493F513740193F5147BFF7A1379DE757F
:100B1300150075161F7DA47C007F2C7E0012129B8E
:100B230020902CC3E5099410E50894004021D3E5F7
:100B3300099470E50894005016C3E50B9498E50AF0
:100B43009400400BD3E50B94C0E50A940040D1C355
:100B5300E5099410E50894005003020BE4D3E5097A
:100B63009470E50894005079C3E50B94D0E50A949A
:100B730000406ED3E50B94F8E50A94005063B2820B
:100B8300E53D045401F53D25E02408F582E43414E1
:100B9300F583E493F513740193F5147BFF7A1379CA
:100BA300E475150075161F7DDC7C007F2C7E00121A
:100BB300129B20902CC3E5099410E5089400402172
:100BC300D3E5099470E50894005016C3E50B94D05F
:100BD300E50A9400400BD3E50B94F8E50A94004032
:100BE300D1C3E5099410E50894005003020C76D3B1
:100BF300E5099470E50894005079C3E50B9408E582
:100C03000A9401406ED3E50B9430E50A94015063D6
:100C1300B283E53E045401F53E25E02408F582E461
:100C23003414F583E493F513740193F5147BFF7A7D
:100C33001379EA75150075161F7D147C017F2C7ED0
:100C43000012129B20902CC3E5099410E508940030
:100C53004021D3E5099470E50894005016C3E50BD1
:100C63009408E50A9401400BD3E50B9430E50A940C
:100C73000140D1C3E5099480E50894005003020DB7
:100C830008D3E50994E0E50894005079C3E50B9493
:100C930060E50A9400406ED3E50B9488E50A94005E
:100CA3005063B284E53F045401F53F25E02408F581
:100CB30082E43414F583E493F513740193F5147B00
:100CC300FF7A1379F075150075161F7D6C7C007F14
:100CD3009C7E0012129B20902CC3E5099480E508AA
:100CE30094004021D3E50994E0E50894005016C32D
:100CF300E50B9460E50A9400400BD3E50B9488E57B
:100D03000A940040D1C3E5099480E5089400500398
:100D1300020D9AD3E50994E0E50894005079C3E500
:100D23000B9498E50A9400406ED3E50B94C0E50A52
:100D330094005063B285E540045401F54025E02456
:100D430008F582E43414F583E493F513740193F501
:100D5300147BFF7A1379F675150075161F7DA47C35
:100D6300007F9C7E0012129B20902CC3E509948087
:100D7300E50894004021D3E50994E0E50894005088
:100D830016C3E50B9498E50A9400400BD3E50B9446
:100D9300C0E50A940040D1C3E5099480E5089400B6
:100DA3005003020E2CD3E50994E0E5089400507932
:100DB300C3E50B94D0E50A9400406ED3E50B94F899
:100DC300E50A94005063B286E541045401F54125D8
:100DD300E02408F582E43414F583E493F5137401F5
:100DE30093F5147BFF7A1379FC75150075161F7D37
:100DF300DC7C007F9C7E0012129B20902CC3E509B3
:100E03009480E50894004021D3E50994E0E5089433
:100E1300005016C3E50B94D0E50A9400400BD3E5CC
:100E23000B94F8E50A940040D1C3E5099480E508E2
:100E3300940050030209F1D3E50994E0E508940016
:100E430040030209F1C3E50B9408E50A940150033A
:100E53000209F1D3E50B9430E50A9401400302093A
:100E6300F1B287E542045401F54225E02408F582F6
:100E7300E43414F583E493F513740193F5147BFFC1
:100E83007A14790275150075161F7D147C017F9CF9
:100E93007E0012129B3090030209F1C3E50994808E
:100EA300E508940050030209F1D3E50994E0E5084D
:100EB300940040030209F1C3E50B9408E50A940189
:100EC30050030209F1D3E50B9430E50A9401400382
:050ED3000209F180C0DE
:10140C00C2937F9012148ED29400000000C29400FC
:10141C0000000012146C8E398F3A7FD012148ED2C9
:10142C009400000000C2940000000012146C8E376F
:05143C008F38D293225D
:10114600020803E493A3F8E493A34003F68001F2B4
:1011560008DFF48029E493A3F85407240CC8C333AA
:10116600C4540F4420C8834004F456800146F6DF79
:10117600E4800B01020408102040809014A7E47E4E
:10118600019360BCA3FF543F30E509541FFEE4936E
:10119600A360010ECF54C025E060A840B8E493A335
:1011A600FAE493A3F8E493A3C8C582C8CAC583CA60
:1011B600F0A3C8C582C8CAC583CADFE9DEE780BE18
:0114BF00002C
:1011C600BB010689828A83E0225002E722BBFE0227
:0911D600E32289828A83E493225A
:1011DF00BC000BBE0029EF8DF084FFADF022E4CCF4
:1011EF00F875F008EF2FFFEE33FEEC33FCEE9DECBD
:1011FF00984005FCEE9DFE0FD5F0E9E4CEFD22ED03
:10120F00F8F5F0EE8420D21CFEADF075F008EF2F4C
:10121F00FFED33FD4007985006D5F0F222C398FD3D
:05122F000FD5F0EA22DA
:00000001FF
