:02000300108962
:020005000E717A
:020007000DB238
:0410DD0082009328D2
:091061007C00120CCE7F1E7E0003
:10106A00E4FDFCC3ED9FEC9E5014E4FBFA0BBB00BD
:0E107A00010AEBF44A70F60DBD00010C80E592
:011088002245
:1010A100C2A2C2A5D2A3C2A4AE058E90D2A0C2A0F4
:0710B1008F90D2A4D2A2220D
:1010B800C2A2D2A5AE058E90D2A0C2A08F90C2A423
:0510C800D2A4D2A22217
:0510CD00E2FE08E2FF55
:0410D200AD07AC06B4
:0710D600ECFFAE050210B8AB
:100BBB007D01FCFF120CCE7D007C017F01120CCE5F
:100BCB007D007C077F02120CCE7D307C107F0312E0
:100BDB000CCEE4FDFC7F04120CCE7402FDFC7F08EE
:100BEB00120CCEE4FDFC7F09120CCEE4FDFC7F0A57
:100BFB00120CCEE4FDFC7F0C120CCEE4FDFC7F0D41
:100C0B00120CCEE4FDFC7F0F120CCE7F1E7E001269
:100C1B00106A7DB07C167F10120CCE7F1E7E0012E8
:100C2B00106A7D077C007F11120CCE7D3A7C017F10
:100C3B0012120CCE7D007C1A7F13120CCE7F1E7EFF
:100C4B000012106A7D0C7C007F29120CCE7F1E7E59
:100C5B000012106AE4FDFC7F30120CCE7405FDFC13
:100C6B007F31120CCE7D047C037F32120CCE7D06BD
:100C7B007C007F35120CCE7407FDFC7F36120CCE38
:100C8B007D057C017F37120CCE7D027C007F3812F4
:100C9B000CCE7407FDFC7F39120CCE7D047C077FD4
:100CAB003C120CCE7D077C087F3D120CCEE4FDFC84
:100CBB007F50120CCE7DEF7C007F51120CCEE4FDE9
:030CCB00FC7F5259
:020CCE00AB0772
:100CD000ECFAAF05AC07AF03AD07E4FF1210A1AF0C
:080CE00002AE04AD060210B8DB
:10048600D2A17F017E0012106AC2A17F0A12106AF1
:10049600D2A17F3212106A7801E26420700418E259
:1004A60064937024120BBB7D3F7C017F53120CCEEC
:1004B6007D007C277F60120CCE7D017C007F61125F
:1004C6000CCEE4FDFC0205007801E2640570041818
:1004D600E26415600302057D120BBB7D3F7C017F44
:1004E60053120CCE7D007C277F60120CCE7D017CE2
:1004F600007F61120CCE7D007C277F6A120CCEE451
:10050600FDFC7F20120CCEE4FDFC7F21120CCEE414
:10051600FDFC7F80120CCEE4FDFC7F81120CCEE444
:10052600FDFC7F82120CCEE4FDFC7F83120CCEE430
:10053600FDFC7F84120CCEE4FDFC7F85120CCE7D83
:10054600107C007F90120CCEE4FDFC7F92120CCE44
:100556007D037C007F93120CCE7D107C017F95126B
:100566000CCEE4FDFC7F97120CCEE4FDFC7F9812C6
:100576000CCE7D7302072F7801E26428700418E21E
:1005860064936003020736FD7C017F01120CCE7D69
:10059600007C077F02120CCE7D307C107F03120C8C
:1005A600CEE4FDFC7F04120CCE7D017C007FA412FC
:1005B6000CCE7402FDFC7F08120CCEE4FDFC7F0914
:1005C600120CCEE4FDFC7F0A120CCEE4FDFC7F0C7F
:1005D600120CCEE4FDFC7F0D120CCEE4FDFC7F0F69
:1005E600120CCEE4FDFC7F10120CCE7D077C007F42
:1005F60011120CCEE4FDFC7F12120CCEE4FDFC7F42
:10060600131210637D907C167F10120CCE7D277C12
:10061600027F111210637D1C7F121210617D007C17
:10062600187F13120CCE7D1C7C007F29120CCE7D08
:100636000D7F2B121061E4FDFC7F20120CCEE4FD31
:10064600FC7F21120CCE7D077C007F30120CCE7D04
:10065600027C037F31120CCE7D057C017F32120CA9
:10066600CE7D067C027F35120CCE7408FDFC7F36EB
:10067600120CCE7D067C027F37120CCE7D047C05E3
:100686007F38120CCE7D077C007F39120CCE7D059B
:100696007C017F3C120CCE7408FDFC120CB31210C8
:1006A600667D3F7C017F531210637D007CA77F60CF
:1006B600120CCE7D017C007F61120CCEE4FDFC7F26
:1006C6006A120CCEE4FDFC7F80120CCEE4FDFC7FAA
:1006D60081120CCEE4FDFC7F82120CCEE4FDFC7F81
:1006E60083120CCEE4FDFC7F84120CCEE4FDFC7F6D
:1006F60085120CCE7D107C007F90120CCEE4FDFCA2
:100706007F92120CCE7D037C007F93120CCE7D105F
:100716007C017F95120CCEE4FDFC7F97120CCEE493
:10072600FDFC7F98120CCE7D337C017F07120CCE28
:0107360022A0
:100FB900785EEEF208EFF208ECF208EDF28B828A25
:100FC90083785EE2FC08E2FD7F50120CCE08E2FC59
:100FD90008E2FD7F51120CCEAD82AC837F52120C18
:100FE900CE7864E2FC08E2FD7F53120CCE785EE213
:100FF900FC08E2FD7F20120CCEAE83AF82AD07ACB8
:0D100900067F21120CCE7D22E4FF0210A113
:071016007802EEF208EFF290
:10101D0078647401F2087440F2E4FBFA7DF0FCFF91
:10102D00FE120FB9E47804F208F2E4FBFA7802122A
:10103D0010CD0BBB00010AEB64F04A70F07805E2AD
:10104D002401F218E23400F2C308E2944018E2944D
:03105D000140D778
:01106000226D
:10000E007840EEF208EFF208ECF208EDF208EAF2B0
:03001E0008EBF2FA
:10002100E47857F208F27844E2FE08E27803CEC39E
:1000310013CE13D8F9795BF3EE19F3D37849E2942F
:0C0041000018E26480948050030201CF9C
:10004D00E2FA08E2FB7C007D08FFAE02120D277874
:10005D005CEEF208EFF27841E22BFF18E23AFEC0B7
:10006D0006C0077844E2FE08E2FF7841E22FFF1850
:10007D00E23ECF24FFFDEF34FFFC7842E2FA08E2C6
:10008D00FB7846E2FE08E2FF7843E22FFF18E23EDE
:10009D00CF24FF7865F2EF34FF18F2D007D00612A7
:1000AD000FB9E47851F208F27846E2FE08E2FFC398
:1000BD007852E29F18E29E4003020485785CE2FFCD
:1000CD0008E27853CFF208EFF2785AE2FE08E2FF29
:1000DD00C37854E29F18E29E40030201C17851E2B9
:1000ED00FC08E2FD120D157853E2FC08E2FD2F78B5
:1000FD0058F2EC3E18F2784AE2FB08E2FA08E2F90F
:10010D007857E2FE08E2F5828E83120CE87859F2F8
:10011D00785CE2FE08E2FFED6F7002EC6E705678CF
:10012D0059E2FB7848E2FE08E2FF7C007D08120DE3
:10013D0027AF05EBA807088002C333D8FC7859F226
:10014D007855ECF208EDF2C37856E2940818E29473
:10015D000050537859E230E704784D8002784F1201
:10016D0010CD7859E225E0F27856E22401F218E23A
:10017D003400F280D2E47855F208F27859E230E793
:10018D0004784D8002784F1210CD7859E225E0F2B7
:10019D007856E22401F218E23400F2C308E2940822
:1001AD0018E2940040D57854E22401F218E23400AC
:1001BD00F20200D67852E22401F218E23400F20283
:0201CD0000B57B
:1001CF007848E2FE08E2FFC3EE64809480400302A9
:0201DF00038893
:1001E100C3E49FFFE49EFE7C007D08120D27785C2E
:1001F100EEF208EFF2C3785BE29FF218E29EF2782A
:1002010040E2FE08E2FFC006C0077848E2FC08E2CF
:10021100FDEF2DFDEE3CFC7845E22DFD18E23CCDD5
:1002210024FFCD34FFFC7842E2FA08E2FB7846E293
:10023100F58308E2F5827843E22582F58218E235FA
:1002410083F583E58224FF7865F2E58334FF18F2B4
:10025100D007D006120FB9E47851F208F27846E2DD
:10026100FE08E2FFC37852E29F18E29E40030204B7
:1002710085E47853F208F2785AE2FE08E2FFC37887
:1002810054E29F18E29E400302037A7844E2FE089A
:10029100E27803CEC313CE13D8F9FF7851E2FC08FC
:1002A100E2FD120D157853E2FC08E2FD2F7858F2B9
:1002B100EC3E18F2784AE2FB08E2FA08E2F97857D4
:1002C100E2FE08E2F5828E83120CE87859F2785B3F
:1002D100E224FFFF18E234FFFEED6F7002EC6E7056
:1002E100597848E2FE08E2FFC3E49FFFE49EFE7CEA
:1002F100007D08120D27C374089D785DF2E49C18F7
:10030100F2E47855F208F2785CE2FE08E2FFC37885
:1003110056E29F18E29E50537859E230E704784D37
:100321008002784F1210CD7859E225E0F27856E23A
:100331002401F218E23400F280CDE47855F208F29B
:100341007859E230E704784D8002784F1210CD7869
:1003510059E225E0F27856E22401F218E23400F283
:10036100C308E2940818E2940040D57854E22401CD
:10037100F218E23400F20202787852E22401F21813
:07038100E23400F202025E0B
:100388007840E2FE08E2FFC006C0077844E2FC08B5
:10039800E2FDEF2DFDEE3CCD24FFCD34FFFC78428D
:1003A800E2FA08E2FB7846E2F58308E2F582784350
:1003B800E22582F58218E23583F583E58224FF7809
:1003C80065F2E58334FF18F2D007D006120FB9E4BE
:1003D8007851F208F27846E2FE08E2FFC37852E26A
:1003E8009F18E29E4003020485E47853F208F278ED
:1003F8005AE2FE08E2FF7853E2FA08E2FBC39FEAFA
:100408009E506C7851E2FC08E2FD120D15EB2F7836
:1004180058F2EA3E18F2784AE2FB08E2FA08E2F9F2
:100428007857E2FE08E2F5828E83120CE87859F2DA
:10043800E47855F208F27859E230E704784D800202
:10044800784F1210CD7859E225E0F27856E224016F
:10045800F218E23400F2C308E2940818E29400406B
:10046800D57854E22401F218E23400F20203F77856
:0D04780052E22401F218E23400F20203DD2A
:010485002254
:1009BB0000000018244242424242424224180000E6
:1009CB00000000107010101010101010107C0000A0
:1009DB0000000018244242424242424224180000C6
:1009EB0000000018244242424242424224180000B6
:1009FB00000000107010101010101010107C000070
:100A0B000000001824424242424242422418000095
:100A1B000000001824424242424242422418000085
:100A2B00000000107010101010101010107C00003F
:100A3B000000001824424242424242422418000065
:100A4B000000001824424242424242422418000055
:100A5B00000000107010101010101010107C00000F
:100A6B000000001824424242424242422418000035
:100A7B000000001824424242424242422418000025
:100A8B00000000107010101010101010107C0000DF
:100A9B000000001824424242424242422418000005
:100AAB0000000018244242424242424224180000F5
:100ABB00000000107010101010101010107C0000AF
:100ACB0000000018244242424242424224180000D5
:100ADB0000000018244242424242424224180000C5
:100AEB0000000018244242424242424224180000B5
:100AFB00000000107010101010101010107C00006F
:100B0B000000001824424242424242422418000094
:100B1B000000001824424242424242422418000084
:100B2B00000000107010101010101010107C00003E
:100B3B000000001824424242424242422418000064
:100B4B000000001824424242424242422418000054
:100B5B000000001824424242424242422418000044
:100B6B00000000107010101010101010107C0000FE
:100B7B000000001824424242424242422418000024
:100B8B000000001824424242424242422418000014
:100B9B00000000107010101010101010107C0000CE
:100BAB0000000018244242424242424224180000F4
:10108900120486E4FFFE1210167F011207377F0251
:08109900120737E4FF0207C053
:100E7100E47812F208F2E4780EF208F27812E2FF56
:100E810008E27810CFF208EFF2780EE2FE08E2FFF6
:100E9100C394F0EE940050777811E2941D18E29417
:100EA100004004E4F208F2C006C0077846E4F20804
:100EB1007410F2E408F208F27911E3C4F8540FC88F
:100EC10068FF19E3C454F048FE74DB2FF974093E3E
:100ED100FA784A74FFF208EAF208E9F2087407F2B4
:100EE1000874E0F2E408F208F2D007D0067B08FAB1
:100EF1007D78FC12000E780FE22408F218E234002B
:100F0100F27811E22401F218E23400F2020E8A783A
:100F11001208E22401FFF218E23400FEF2EF641E2F
:0C0F21004E6003020E77F208F2020E7719
:100DB200E4783EF208F2783AE4F20874F0F2783E0F
:100DC200E2FF08E2783CCFF208EFF2783AE2FE085E
:100DD200E2FFD39400EE94004078D3783DE2941D74
:100DE20018E294004004E4F208F2C006C007784614
:100DF200E4F2087410F2E408F208F2793DE3C4F870
:100E0200540FC868FF19E3C454F048FE74DB2FF98D
:100E120074093EFA784A74FFF208EAF208E9F20825
:100E22007407F20874E0F2E408F208F2D007D00680
:100E32007B08FA7DC8FC12000E783BE224F8F21817
:100E4200E234FFF2783DE22401F218E23400F202C9
:100E52000DCD783E08E22401FFF218E23400FEF2E2
:0F0E6200EF641E4E6003020DB8F208F2020DB8E5
:10073700EFD3940240037FFF22740F2F2FF8E62098
:10074700E5F4C2AFE64430F6D2AFAE0CEEC39F502D
:10075700210E74142EF8E6F908E618BE020274FF9B
:10076700FDED69600909E71919F7090980F31616FC
:1007770080DAEED39F400405810581EED39F4022A6
:1007870074142EF808E6F9EEB50C02A981180606CE
:10079700E6FDED6960091919E70909F71980F31EE4
:1007A70080D9EF2414F8E604F8EF2F0490000393A0
:0907B700F608EF2F93F67F0022F3
:1007C000EFD3940240037FFF22EF23240FF8E6309B
:1007D000E5F4C2AFE6548CF6D2AFE50CB5070A7467
:1007E000142FF8E6F5810208C4502E74152FF8E690
:1007F000BF020274FFFD18E6F974142FF8FBE6FC43
:10080000E96C6008A805E7F61D1980F4A803A605A1
:100810001FE50CB507E37F002274152FF8E6FD18DD
:1008200086010F74142FF8A601088604E50CB5079D
:1008300002AC81ED6C60080D09A805E6F780F4E5CF
:090840000CB507DE89817F00225E
:03000B0002084E9A
:10084900C2AF80FE3212084D85D00B75D008AAE0E0
:10085900C28CE58A24F7F58AE58C34D8F58CD28CDC
:10086900EC2415F8E6BC020274FFC39581B41400A8
:1008790040CE7903780E16E608700BC2AFE630E178
:10088900034418F6D2AF08D9EDEA8BD03000012223
:10089900D50DFCC0E0C0D0C0F0C083C082C000C08C
:1008A90001C002C003C004C005C006C007E50C238F
:1008B900240FF87440C2AF46F6D2AFD200E50CFF60
:1008C90023240FF80F0808BF03047F00780FE630D0
:1008D900E4F200E50CC39F5020050C7414250CF8B4
:1008E900E6FDA68108E6AE0CBE020274FFCDF8E86B
:1008F9006D60E008E6C0E080F6E50CD39F4027E58F
:100909000C2415F8E6AE0CBE020274FFFD18E6CD04
:10091900F8E5816D6006D0E0F61880F5E50C241441
:10092900C8F6150C80D3750D05E50C23240FF87F47
:1009390004C2AFE610E61E30E00310E20C7F00307F
:05094900E10730E304AA
:10094E007F0854F4547CC6D2AF54804207C20022B2
:10095E00F6D2AFD007D006D005D004D003D002D047
:10096E0001D000D082D083D0F0D0D0D0E0C200220F
:10097E007814A68174026006FF0876FFDFFB7F0302
:10098E00E4780EF608F608DFFA780F76309000035A
:10099E00740193C0E0E493C0E0750D0543890175C1
:0D09AE008AF0758CD8D28CD2AFD2A922026B
:03000000020F2DBF
:0C0F2D00787FE4F6D8FD758120020F7477
:100CE800BB010CE58229F582E5833AF583E02250C1
:100CF80006E92582F8E622BBFE06E92582F8E2220B
:0D0D0800E58229F582E5833AF583E4932224
:100D1500EF8DF0A4A8F0CF8CF0A428CE8DF0A42EF2
:020D2500FE22AC
:100D2700C2D5EC30E709B2D5E4C39DFDE49CFCEEE7
:100D370030E715B2D5E4C39FFFE49EFE120D5DC3F5
:100D4700E49DFDE49CFC8003120D5D30D507C3E4F0
:060D57009FFFE49EFE2256
:100F390002097EE493A3F8E493A34003F68001F247
:100F490008DFF48029E493A3F85407240CC8C333B9
:100F5900C4540F4420C8834004F456800146F6DF88
:100F6900E4800B01020408102040809010DDE47E2B
:100F7900019360BCA3FF543F30E509541FFEE4937D
:100F8900A360010ECF54C025E060A840B8E493A344
:100F9900FAE493A3F8E493A3C8C582C8CAC583CA6F
:100FA900F0A3C8C582C8CAC583CADFE9DEE780BE27
:0110E100000E
:100D5D00BC000BBE0029EF8DF084FFADF022E4CC7A
:100D6D00F875F008EF2FFFEE33FEEC33FCEE9DEC43
:100D7D00984005FCEE9DFE0FD5F0E9E4CEFD22ED89
:100D8D00F8F5F0EE8420D21CFEADF075F008EF2FD3
:100D9D00FFED33FD4007985006D5F0F222C398FDC4
:050DAD000FD5F0EA2261
:00000001FF
