:03000000021EE0FD
:0C1EE000787FE4F6D8FD75815E021F27B4
:10002E00000000000006000000C700007FE700008F
:10003E0000E70F0000E70F0000E71C0000E73800A4
:10004E0038E770003FE7E0003807C00038070300CC
:10005E003807078039FFFEC07FC7C00001C7E00028
:10006E0001C7600001C7700001C738000187380062
:10007E0003871C000387FF003387C7C01F0F83C091
:10008E000E0700000000000000000000000000004D
:10009E000000000000000000000000000000000052
:1000AE000000000000000000000000000000000042
:1000BE000000000000000000000000000000000032
:1000CE000000000000000000000000000000000022
:1000DE000000000000000000000000000000000012
:1000EE000000000000000000000000000000000002
:1000FE0000000000000000000000000000000000F2
:10010E0000000000000000000000000000000000E1
:10011E0000000000000000000000000000000000D1
:10012E0000000000000000000000000000000000C1
:10013E0000000000000000000000000000000000B1
:10014E0000000000000000000000000000000000A1
:10015E000000000000000000000000000000000091
:10016E000000000000000000000000000000000081
:10017E0000000000000070001CF078000E78700087
:10018E000F38E0000638E3800186FFC0C3FFC000D1
:10019E00737383803B73FF803F7007C03E7F0E00FA
:1001AE0006771C0006771C000E671D800CE61FC02C
:1001BE001CE7FFC07CEE1C003CEE1C001DCE1C009C
:1001CE003DCE1C003F8E1C003FCE1C001F7CFC0051
:1001DE000E3838000C000000000000000000000087
:1001EE000000000000000000000000000000000001
:1001FE0000000000000000000000000000000000F1
:10020E0000000000000000000000000000000000E0
:10021E0000000000000000000000000000000000D0
:10022E0000000000000000000000000000000000C0
:10023E0000000000000000000000000000000000B0
:10024E0000000000000000000000000000000000A0
:10025E000000000000000000000000000000000090
:10026E000000000000000000000000000000000080
:10027E000000000000000000000000000000000070
:10028E000000000000000000000000000000000060
:10029E000000000000000000000000000000000050
:1002AE000000000000000000000000000000000040
:1002BE000000000000000000000000000000000030
:1002CE0000000000070180000781E0000701C00068
:1002DE000701C0000701C700077FFF807FF1C00044
:1002EE000731C0000701C0000F01C3800FFFFFC020
:1002FE000FE180C01FE1E0001F61C0001F01C000C0
:10030E003F01C700373FFF806701C0006701C00093
:10031E000701C0000701C0000701C38007FFFFC02F
:10032E000700006006000000000000000000000052
:10033E0000000000000000000000000000000000AF
:10034E00000000000000000000000000000000009F
:10035E00000000000000000000000000000000008F
:10036E00000000000000000000000000000000007F
:10037E00000000000000000000000000000000006F
:10038E00000000000000000000000000000000005F
:10039E00000000000000000000000000000000004F
:1003AE00000000000000000000000000000000003F
:1003BE00000000000000000000000000000000002F
:1003CE00000000000000000000000000000000001F
:1003DE00000000000000000000000000000000000F
:1003EE0000000000000000000000000000000000FF
:1003FE0000000000000000000000000000000000EF
:10040E0000000000000000000000000000000000DE
:10041E0000000000000003001C1C03800F1CE38082
:10042E00071CF38007DCE38000DCE38001DCE38063
:10043E00719CE38039FCFB803FFFFF801FFFFF8034
:10044E0003FFEF8007FBEF8007B8E3800638E380F9
:10045E000E38E3801E38E3807C30E3801C70E3802E
:10046E001C70E3801CE0E3801CC0E3801D800380D1
:10047E0003000380000000000000000000000000E8
:10048E00000000000000000000000000000000005E
:10049E00000000000000000000000000000000004E
:1004AE00000000000000000000000000000000003E
:1004BE00000000000000000000000000000000002E
:1004CE00000000000000000000000000000000001E
:1004DE00000000000000000000000000000000000E
:1004EE0000000000000000000000000000000000FE
:1004FE0000000000000000000000000000000000EE
:10050E0000000000000000000000000000000000DD
:10051E0000000000000000000000000000000000CD
:10052E0000000000000000000000000000000000BD
:10053E0000000000000000000000000000000000AD
:10054E00000000000000000000000000000000009D
:10055E00000000000000000000000000000000008D
:10056E0000000000000380001801C0000E00E00033
:10057E000738CE00071FFF0003780E0000D80E00CC
:10058E0060D80E0079DFFE003D980E001D980E001B
:10059E001F980E00031FFE0003198F00071983809A
:1005AE000619CFC00E18FC007E18F8001E18700039
:1005BE000E1838001E18FC001E1F9F001E3E07E07E
:1005CE000E1C038000000000000000000000000070
:1005DE00001800001C1E00000E1C00000F3800004A
:1005EE0007380380007FFFC001F8038061FE03809F
:1005FE0079F863803FB8F3801F7FDB801B67038031
:10060E0007C71B8006C73F8007FFFF800E6763800A
:10061E001E7F7B807C7773801C7773801C77738042
:10062E001C7FF3801C0007001C007F000C001F00C5
:10063E0000000C0000000000000000000001C000DF
:10064E001C01E0000E01C0000701C0000741C00000
:10065E0000C1C00000DDDC0071DFCF0039BDC780F6
:10066E003DB9C3C01FF1C1C01B71C00007E1C70077
:10067E0007C1C7000781CF800E01DE001E01BC003E
:10068E007E0078001C00F0001C01E0001C03C0007E
:10069E001C0F00001C3C00000DF0000000000000CC
:1006AE00000000000000000000000000000000003C
:1006BE000000000000000000018000000380000028
:1006CE001F800000078000000780000007800000E8
:1006DE0007800000078000000780000007800000F0
:1006EE0007800000078000000780000007800000E0
:1006FE000780000007800000078000001FF0000048
:10070E0000000000000000000000000000000000DB
:10071E0000000000000180001061E0001FF1C00029
:10072E001C79C0001CE1C0001CE1E0001DC1E0000E
:10073E001DC1E0001D81E0001F81E0001D81E00071
:10074E001DC1F0001CE3F0001C73F0001C73B00020
:10075E001C7338001C7738001EF71C001FEE1C009F
:10076E001DCC0E001C1C0F001C3807803C6003C003
:10077E0039C0000000000000000000000000000072
:10078E00000000000000000000000F00000000004C
:10079E0007800000000003C00000000003E000001E
:1007AE00000001F00000000001F00000006001E018
:1007BE0000C0006000C001E000FFFFFFFFF000FF7F
:1007CE00FFFFFFF801E0000003C001E0000007801A
:1007DE0003E01800070007E01E00060003801F005C
:1007EE000E0000003E00000000003E000000000071
:1007FE003C0000C000007C0001E00000780003F027
:10080E003FFFFFFFFFF81800F001F00C0000F001B1
:10081E00E0000001F003E0000001E003C00000036F
:10082E00E007C0000003C00780000007C00F800073
:10083E000007801F0000000F001F0000000FE03EA9
:10084E00000000007F7C000000000FFC0000000094
:10085E0001FE0000000001FFC000000003EFF000E9
:10086E00000007C1FE0000001F007F8000007E0018
:10087E001FC00001F8000FE0000FE00003E0007F52
:10088E00000001E007F0000000601C000000000006
:10089E00000000000000000000000000000000004A
:1008AE00000000000000000000000000000000003A
:1008BE00000000000000000000000000000000002A
:1008CE00000000000000000000000000000000001A
:1008DE00000000000000000000C00C00600000F0EE
:1008EE000F80F80001F80F00FC0001F70E30F00049
:1008FE0001E7CE3CF00003C7CE3EF00007878E3DE9
:10090E00F00007078E3DE0000E078E3DE0000E67FB
:10091E008E3DE0001C7FFFFFC070387F0033C0F8B3
:10092E0000FC0063FFFC00F000F383C001F7FFFF43
:10093E0083C001E01C0F83C001E03E0783C003E0CB
:10094E0078CFC78003E0F1EFC78007E1E3FDC780F2
:10095E000FE7FFFDC7800FE3FF99C7801DE38F01EF
:10096E00C78039E01CE0EF0031E07870EF0001E065
:10097E00E078EF0001E3CFFCEF0001E7FE3CFE0064
:10098E0001E3DE3CFE0001E31E187E0001E01E00C6
:10099E007C0001E39FC07C0001E3DEE03C0001E748
:1009AE00FEF07C0001EF1E78FE0001EE1E79FE00C7
:1009BE0001FC1E7BEF0001F81E3FCF8001F3DE0F1E
:1009CE0087E001E1FE1E03F001E07C3C01FC01E04A
:1009DE0038F000F0018023C000600000030000002A
:1009EE0000000000000000000000000000000000F9
:1009FE0000000000000000000000000000000000E9
:100A0E0000000000000000000000000000000000D8
:100A1E0000000000000000000000000000000000C8
:100A2E0000000000000000000000000000000000B8
:100A3E0000000000000000000000000000000000A8
:100A4E00000000000780000000000FC00FFFFFFF36
:100A5E00FFE007FFFFFFFFF0000003C000000000F3
:100A6E0003C00000000003C00000000003C000002F
:100A7E00000003C00000000003C00000000003C01F
:100A8E000000000003C00000000003C000000000D2
:100A9E0003C00000000003C00000000003C00000FF
:100AAE00000003C00000000003C00000000003C0EF
:100ABE000000000003C00000000003C000000000A2
:100ACE0003C00000000003C00000000003C00000CF
:100ADE00000003C00000000003C00000000003C0BF
:100AEE000000000003C00000000003C00000000072
:100AFE0003C00000000003C00000000003C000C0DF
:100B0E00000003C001E0000003C003F03FFFFFFF41
:100B1E00FFF81C000000000C0000000000000000A8
:100B2E0000000000000000000000000000000000B7
:100B3E0000000000000000000000000000000000A7
:100B4E000000000000000000000000000000000097
:100B5E000000000000000000000000000000000087
:100B6E000000000000000000000000000000000077
:100B7E000000000000000000000000000000000067
:100B8E00701C000000007C1F000000007C1F800015
:100B9E000000781E00000000781E00000000781E85
:100BAE0000000000781E00000000781E000000000B
:100BBE00781E00000000781E00000C00781E01C098
:100BCE000E00781E01F00600781E01F80700781E50
:100BDE0003F80780781E03E00380781E07C003C069
:100BEE00781E07C001E0781E078001E0781E0F8096
:100BFE0000F0781E0F0000F8781E1E0000F8781E18
:100C0E001E00007C781E3C00007C781E3C00007E9E
:100C1E00781E7800003E781E7000003E781EF000B0
:100C2E00003E781FE000003C781FC000003C781F9B
:100C3E0080000000781F00000000781E00000000F9
:100C4E00781E00000000781E00000000781E0000D4
:100C5E000000781E00600000781E00F00000781E74
:100C6E0001F87FFFFFFFFFFC3800000000060000C8
:100C7E000000000000000000000000000000000066
:100C8E000000000000000000000000000000000056
:100C9E000000000000000000000000000000000046
:100CAE000000000000000000000000000000000036
:100CBE000000000000000000000000000000000026
:100CCE00000000000000000000000700000000000F
:100CDE0007E00000000007E00000000007C0000071
:100CEE00000007C00000000007C00000000007C0A1
:100CFE000000000007C00000000007C00000000058
:100D0E0007C00000000007C000E0000007C001F0AF
:100D1E00000007C003F83FFFFFFFFFFC000007C005
:100D2E00000C000007C00000000007C0000000001B
:100D3E0007C00000000007C00000000007E0000030
:100D4E0000000FE0000000000FF0000000000F7028
:100D5E00000000000F78000000001F3800000000A7
:100D6E001E3C000000001E1C000000003E1E000085
:100D7E0000003C0F000000003C0F00000000780750
:100D8E0080000000F803C0000000F003E000000146
:100D9E00E001F0000003E000F8000007C0007C0056
:100DAE00000F80003F00001E00001FC0003C00002E
:100DBE000FF800F8000007FC01E0000003F00780C8
:100DCE00000000E01E0000000000300000000000E7
:100DDE000000000000000000000000000000000005
:100DEE0000000000000000000000000000000000F5
:100DFE0000000000000000000000000000000000E5
:100E0E0000000000000000000000000000000000D4
:100E1E00000000000000000000001800300000601C
:100E2E001C007C0000780F007E00003C0F807E00CE
:100E3E00001E07C0F800001F07C0F000000F87E17A
:100E4E00F000000F83E1E000000783C1C00000073F
:100E5E0083C380000387800380600380000700F057
:100E6E0003FFFFFFFFF803FFFFFFFFFC07800000FB
:100E7E0001FC0780000003C00F80000003800F807C
:100E8E000000E7001F800001F6001F7FFFFFF0004B
:100E9E0000180003F80000000007C8000000000F53
:100EAE0000000000001E00000000033800000000DB
:100EBE0003E00000000003E001E0000003F003F097
:100ECE00000003E007F83FFFFFFFFFFC000003E018
:100EDE00000C000003E00000000003E00000000032
:100EEE0003E00000000003E00000000003E000004B
:100EFE00000003E00000000003E00000000183E0BA
:100F0E0000000001FFE0000000003FC000000000F4
:100F1E001FC00000000007000000000000000000DD
:100F2E0000000000000000000000000000000000B3
:100F3E0000000000000000000000000000000000A3
:100F4E000000000000000000000000000000000093
:100F5E000000000000000000000000000000003C47
:100F6E003C3E7E7EFFFFE7000000000000F3FBFB2F
:100F7E00FFFFFFF7F3000000000000F3F3F3F3FFB1
:100F8E00F3F3F3000000000000F7F3F3F3F3F77749
:100F9E007F000000000000F0F0F0F0F0F0F0F00044
:100FAE000000000000000000000000000000000033
:100FBE00000000F7F3F3F3F3F7777F000000000073
:100FCE0000F3FBFBFFFFFFF7F3000000000000F053
:100FDE00F0F0F0F0F0F0F0000000000000E7E7F7AE
:100FEE00777F7E3C3C000000000000FEF0F0FEF03B
:100FFE00F0F0FE000000000000FEFEFEFEFCFEFF14
:10100E00F70000000000007CF0E0F0783C3CF800B7
:10101E000000000000F0F0F0F0F0F0F0F000000042
:10102E00000000FF3838383838383C000000000027
:10103E0000EFFE7E7C3838383C00000000000000D7
:10104E00000000000000000000000000003F73E1FF
:10105E00E1E1E1F33F000000000000FEF0F0FEF0E1
:10106E00F0F0F000000000000000000000000000A2
:10107E0000000000000000FF3838383838383C00D7
:10108E000000000000FEF0F0FEF0F0F0FE000000A8
:10109E000000003F78E0E0E0E0F03F0000000000DC
:1010AE0000F3F3F3F3FFF3F3F3000000000000F39B
:1010BE00FBFBFFFFFFF7F30000000000003F73E1B2
:1010CE00E1E1E1F33F000000000000F0F0F0F0F08D
:1010DE00F0F0FE0000000000003F73E1E1E1E1F3FB
:1010EE003F0000000000003F78F0E0E3E3F33F0034
:1010FE000000000000EFFE7E7C3838383C00000017
:10110E00000000303000007010101010107C000035
:10111E00000000EE6C6C6C6C5454545454D60000A9
:10112E00000000000000001C22404040221C000075
:10113E0000000000000000C642424242463B000052
:10114E00000000182442424242424242241800004B
:10115E00000000107010101010101010107C000005
:10116E000000003C4242420404081020427E00006F
:10117E000000003C424204180402024244380000BF
:10118E00000000040C14242444447E04041E0000B9
:10119E000000007E40404058640202424438000085
:1011AE000000001C244040586442424224180000B3
:1011BE000000007E444408081010101010100000AB
:1011CE000000003C4242422418244242423C0000AD
:1011DE000000001824424242261A0202243800005F
:1011EE000000000000000000000000006060000031
:10213A00044300000000014200014100023DF80092
:04214A00023F000050
:1011FE00E4F510F511121A04E4FFFE1220E3E4F5F3
:10120E001AF51B75100075111475120075130ED397
:10121E00E511940EE510940050030212B1AE1AAF10
:10122E001B7C007D3012198FE5112FF582E5103EE3
:10123E00F583AE1AAF1B0C7D5012198F748A2FF9DD
:10124E0074073E7524FFF52589267522007523380F
:10125E00853D27853E28AF82AE837B307A00AD1365
:10126E00AC12121DF8E540541F423EE540AE3F78E9
:10127E0005C333CE33CED8F9FFEE5407FEEF54E05C
:10128E00423EEE423D743C2540F540E4353FF53F8D
:10129E00E511151170021510E513151370021512D4
:1012AE0002121DAE1AAF1B7C007D3012198FE51194
:1012BE002FF582E5103EF583AE1AAF1B0C7D501252
:1012CE00198F748A2FF974073E7524FFF525892628
:1012DE007522007523387527F8752800AF82AE8306
:1012EE007B307A00AD13AC12121DF8753DFF753EC2
:1012FE00E0051BE51B7002051AC39406E51A94005F
:10130E005003021211E4F51AF51B75100075112821
:10131E00751200751341D3E511941EE5109400402B
:10132E0061AE1AAF1B7C007D0E12198F746A2FF9F5
:10133E00740F3E7524FFF5258926E51BAE1A78033A
:10134E00C333CE33CED8F92511FFE5103EFE7522FC
:10135E000075230E853D27853E287B087A00AD1348
:10136E00AC12121DF87428253EF53EE4353DF53DD0
:10137E00E511151170021510E5131513709815125D
:10138E008094AE1AAF1B7C007D0E12198F746A2FDB
:10139E00F9740F3E7524FFF5258926E51BAE1A78E4
:1013AE0003C333CE33CED8F92511FFE5103EFE75BB
:1013BE00220075230E7527077528E07B087A00AD8D
:1013CE0013AC12121DF8753D04753E90051BE51BFE
:1013DE007002051AC3941EE51A94005003021318E6
:1013EE00E4F51AF51B75100075116475120075136E
:1013FE005AD3E511945AE51094004072E51B9404FB
:10140E00E51A9400AE1AAF1B7C0050047D1D8002BD
:10141E007D1912198FE5112FF582E5103EF583AE79
:10142E001AAF1B7D6C12198F746E2FF974053E75F1
:10143E0024FFF525892675220075231B853D2785FA
:10144E003E28AF82AE837B207A00AD13AC12121D04
:10145E00F87428253EF53EE4353DF53DE5111511B0
:10146E0070021510E5131513708715128083C3E5EE
:10147E001B9404E51A9400AE1AAF1B7C0050047D39
:10148E001D80027D1912198FE5112FF582E5103E90
:10149E00F583AE1AAF1B7D6C12198F746E2FF97413
:1014AE00053E7524FFF525892675220075231B75CB
:1014BE0027077528E0AF82AE837B207A00AD13AC90
:1014CE0012121DF8753D04753E90051BE51B70024A
:1014DE00051AC39405E51A940050030213F3E4F5BC
:1014EE001AF51B75100075113C751200751378D323
:1014FE00E5119432E510940050030215C1E51B640A
:10150E0002451A603BAE1AAF1B7C017D5012198F3B
:10151E00742E2FF974003E7524FFF5258926E51BE0
:10152E00AE1A7805C333CE33CED8F92511FFE510A8
:10153E003EFE75220075231B853D27853E28804A79
:10154E00E51B6403451AAE1AAF1B7005FC7D368091
:10155E00047C007D2512198FE5112FF582E5103ED2
:10156E00F583AE1AAF1B0C7D5012198F742E2FF906
:10157E0074003E7524FFF525892675220075231B00
:10158E00853D27853E28AF82AE837B207A00AD1342
:10159E00AC12121DF87428253EF53EE4353DF53D9E
:1015AE00E511151170021510E513151370021512C1
:1015BE000214FDE51B6402451A603BAE1AAF1B7C9C
:1015CE00017D5012198F742E2FF974003E7524FF71
:1015DE00F5258926E51BAE1A7805C333CE33CED852
:1015EE00F92511FFE5103EFE75220075231B7527A8
:1015FE00077528E0804AE51B6403451AAE1AAF1B37
:10160E007005FC7D3680047C007D2512198FE51156
:10161E002FF582E5103EF583AE1AAF1B0C7D5012EE
:10162E00198F742E2FF974003E7524FFF525892627
:10163E0075220075231B7527077528E0AF82AE83D0
:10164E007B207A00AD13AC12121DF8753D04753E69
:10165E0090051BE51B7002051AC39404E51A94004D
:10166E0050030214F17510077511D0753B00753CCF
:10167E0007E4F514F5157516007517E9E53C24E930
:10168E00FFE4353BFEC3E5179FE5169E5019AB3EB2
:10169E00AA3DAD17AC16AF15AE1412211A0517E5FB
:1016AE001770D9051680D57402253EF53EE4353DFA
:1016BE00F53D7440253EF53EE4353DF53D7F1E7EFD
:1016CE000012000C0515E51570020514C39440E5D3
:0516DE0014940140A17D
:0116E30022E4
:03002B00021FF5BC
:101FF500C0E0C0F0C083C082C0D075D00853BCEF2C
:10200500ACBEE4121894E4FBFA798078431217ED1C
:10201500E4FBFA791678431216E41218C88F42AC1D
:10202500BEE4121894E4FBFA798078431217ED7B2D
:102035009A7A99799978401216E48F468E458D449F
:102045008C4375BC88D0D0D082D083D0F0D0E0321C
:04214E00025D932873
:090003007C00121DE07F1E7E004E
:10000C00E4FDFCC3ED9FEC9E5014E4FBFA0BBB002B
:0E001C00010AEBF44A70F60DBD00010C80E500
:01002A0022B3
:10215300C2A2C2A5D2A3C2A48D80D2A0C2A08F80E6
:05216300D2A4D2A2226B
:10217D00C2A2D2A58D80D2A0C2A08F80C2A4D2A4AB
:03218D00D2A222B9
:04219000AD07AC06E5
:05219400AF0402217DF3
:101CE8007C107F03121DE0E4FDFC7F04121DE074EC
:101CF80002FDFC7F08121DE0E4FDFC7F09121DE0D7
:101D0800E4FDFC7F0A121DE0E4FDFC7F0C121DE0DF
:101D1800E4FDFC7F0D121DE0E4FDFC7F0F121DE0C9
:101D28007F1E7E0012000C7DB07C167F10121DE015
:101D38007F1E7E0012000C7D077C007F11121DE0C3
:101D48007D3A7C017F12121DE07D007C1A7F131200
:101D58001DE07F1E7E0012000C7D0C7C007F291286
:101D68001DE07F1E7E0012000CE4FDFC7F30121D7A
:101D7800E07405FDFC7F31121DE07D047C037F3299
:101D8800121DE07D067C007F35121DE07407FDFC06
:101D98007F36121DE07D057C017F37121DE07D0234
:101DA8007C007F38121DE07407FDFC7F39121DE0AE
:101DB8007D047C077F3C121DE07D077C087F3D1277
:101DC8001DE0E4FDFC7F50121DE07DEF7C007F519B
:081DD800121DE0E4FDFC7F5246
:061DE000AB05AA04AC07EC
:101DE600AF02AE07AD04E4FF122153AF06AD030206
:021DF600217D4D
:0420E3008E1C8F1DA3
:1020E700753901753A40E4FBFA7DF0FCFFFE1220DA
:1020F70055E4FBFA900000AF1DAE1C122190A3E53A
:102107008264F0458370F00BBB00010ABA01E5BB9E
:0221170040E2A4
:0121190022A3
:0E1F6C008E478F488C498D4A8B4B8A4C894D8D
:101F7A00E4F552AB4BAA4CA94D121949606CC394B3
:101F8A0080E55275F008502FA42548FFE54735F043
:101F9A00FE121949FB854E00854F00855000855178
:101FAA0000AD4AAC491200007401254DF54DE435E7
:101FBA004CF54C055280BCA42548FFE54735F0FE98
:101FCA00AB4BAA4CA94D854E00854F008550008524
:101FDA005100AD4AAC491200007402254DF54DE49A
:0A1FEA00354CF54C05520552808974
:011FF40022CA
:0C209E008E538F548C558D568A578B58EA
:1020AA00855939855A3A122055AB58AA57D3EB9518
:1020BA005AEA95595022855482855383D3E58295ED
:1020CA0056E5839555500AAF5CAE5B122190A3800A
:0820DA00EB0BBB00010A80D5ED
:0120E20022DB
:101A0400D2A17F017E0012000CC2A17F0A12000C39
:101A1400D2A17F3212000CE55E64207004E55D649F
:101A240093703F7D01FCFF121DE07D007C017F016E
:101A3400121DE07D007C077F02121DE07D38121C20
:101A4400E87D3F7C017F53121DE07D007C277F6091
:101A5400121DE07D017C007F61121DE0E4FDFC02AB
:101A64001AB2E55E64057004E55D64156003021B4B
:101A74002F7D01FCFF121DE07D007C017F01121D02
:101A8400E07D007C077F02121DE07D30121CE87DA2
:101A94003F7C017F53121DE07D007C277F60121D77
:101AA400E07D017C007F61121DE07D007C277F6A60
:101AB400121DE0E4FDFC7F20121DE0E4FDFC7F210B
:101AC400121DE0E4FDFC7F80121DE0E4FDFC7F813B
:101AD400121DE0E4FDFC7F82121DE0E4FDFC7F8327
:101AE400121DE0E4FDFC7F84121DE0E4FDFC7F8513
:101AF400121DE07D107C007F90121DE0E4FDFC7F50
:101B040092121DE07D037C007F93121DE07D107C0A
:101B1400017F95121DE0E4FDFC7F97121DE0E4FDBA
:101B2400FC7F98121DE07D73021CE0E55E64287062
:101B340004E55D64936003021CE7FD7C017F0112F0
:101B44001DE07D007C077F02121DE07D307C107F4C
:101B540003121DE0E4FDFC7F04121DE07D017C0006
:101B64007FA4121DE07402FDFC7F08121DE0E4FD59
:101B7400FC7F09121DE0E4FDFC7F0A121DE0E4FD78
:101B8400FC7F0C121DE0E4FDFC7F0D121DE0E4FD62
:101B9400FC7F0F121DE0E4FDFC7F10121DE07D07A9
:101BA4007C007F11121DE0E4FDFC7F12121DE0E4B5
:101BB400FDFC7F131200057D907C167F10121DE042
:101BC4007D277C027F111200057D1C7F1212000309
:101BD4007D007C187F13121DE07D1C7C007F291280
:101BE4001DE07D0D7F2B120003E4FDFC7F20121D00
:101BF400E0E4FDFC7F21121DE07D077C007F3012B4
:101C04001DE07D027C037F31121DE07D057C017F98
:101C140032121DE07D067C027F35121DE07408FD42
:101C2400FC7F36121DE07D067C027F37121DE07DAD
:101C3400047C057F38121DE07D077C007F39121D6E
:101C4400E07D057C017F3C121DE07408FDFC121D43
:101C5400C51200087D3F7C017F531200057D007C86
:101C6400277F60121DE07D017C007F61121DE0E48E
:101C7400FDFC7F6A121DE0E4FDFC7F80121DE0E4A0
:101C8400FDFC7F81121DE0E4FDFC7F82121DE0E477
:101C9400FDFC7F83121DE0E4FDFC7F84121DE0E463
:101CA400FDFC7F85121DE07D107C007F90121DE0FD
:101CB400E4FDFC7F92121DE07D037C007F93121DE6
:101CC400E07D107C017F95121DE0E4FDFC7F9712FE
:101CD4001DE0E4FDFC7F98121DE07D337C017F074D
:041CE400121DE022CB
:102055008E338F348C358D368B828A83AD34AC3399
:102065007F50121DE0AD36AC357F51121DE0AD82BB
:10207500AC837F52121DE0AD3AAC397F53121DE09F
:10208500AD34AC337F20121DE0AD82AC837F2112CD
:092095001DE07D22E4FF0221534D
:10211A008A1C8B1D8F828E83AF05AE04AB82AA8385
:10212A0085833985823A122055AF1DAE1C02219053
:081DF8008E1C8F1D8C1E8D1F37
:101E0000AC22AD23AF03AE0212198FEF7803CEC31D
:101E100013CE13D8F9F52E8E2DEBAE027803CEC378
:101E200013CE13D8F9F5308E2FE4F529F52AC3E542
:0C1E30002A952EE529952D4003021EDFA7
:101E3C00AB24AA25A926852A82852983121962FF3B
:101E4C003395E0F5318F32E4F52BF52CE53230E7A4
:101E5C0058AC2FAD30AE29AF2A1219A1E51F2FF5C2
:101E6C0082E51E3EF583AD82FCC004C005AC2FADEF
:101E7C0030AE29AF2A1219A1EDAE047803C333CECC
:101E8C0033CED8F9251DFFE51C3EFEE52C2FFBE5D6
:101E9C002B3EFAF5398B3AAF82AE83D005D00412C3
:101EAC002055AF28AE27122190E53225E0F532E51A
:101EBC003133F531052CE52C7002052BC39408E564
:051ECC002B940040878B
:0E1ED100052AE52A6003021E2E0529021E2E98
:011EDF0022E0
:1021680075A8A0759D0175A204E4F5BD75BC887FAE
:0521780002FE02000C54
:1016E400EC4D6011E8497017ED33EC3304600DE400
:1016F400FCFFFEFD22E933E8330470F802193412CA
:1017040018FF58046009E4CC2481500628500902CB
:10171400193E28400302193BC0E0EB4A7044B980EB
:1017240006D0E0FB02192AEF4E701CBD8008EBFFC7
:10173400EAFEE9FD80EBE98DF0A4FEE5F00217CDA9
:10174400E9CDF9EAFEEBFFEF89F0A4FCE5F0CE89E0
:10175400F0A42EFFE435F0CD89F0A42DFEE435F09D
:101764008067EF4E7005BD80D780C3EF8BF0A4ACCB
:10177400F0EE8BF0A42CFCE435F0F8EF8AF0A42C06
:10178400E5F038FCE433CB8DF0A42CFCE5F03BF819
:10179400EE8AF0A42CFCE5F038F8E433CF89F0A409
:1017A4002CFCE5F038CF3400CE89F0A42FFFE5F00F
:1017B4003EFEE433C98DF0A42EFEE5F039CD8AF067
:1017C400A42FFFE5F03EFEE43DFD33D0E0FB5007DF
:1017D4000BBB000F02193EEC2CFCEF33FFEE33FE83
:0617E400ED33FD021916B1
:1017EA0002193EEC5D046005E859047003021934DD
:1017FA001218FF580460F6EC4860F2EC7004FDFE23
:10180A00FF22C860DB2481C85009C39860025006D1
:10181A0002193B9850CAF582E9294B4A7005AB82F6
:10182A0002192A75F0007C1A7880C3EF9BEE9AEDB4
:10183A0099400DC3EF9BFFEE9AFEED99FDE842F049
:10184A00DC23ACF0D0E0FFD0E0FED0E0FDAB82209C
:10185A00E7101BEB60BAEC2CFCEF33FFEE33FEED26
:10186A0033FD021916E803F830E705C0F075F000F9
:10187A00EF2FFFEE33FEED33FD40B830E7C280AA0A
:10188A0075F020800E75F010800575F0087D007ED9
:10189A00007F003392D530D5031219F6EC3340108D
:1018AA00EF33FFEE33FEED33FDEC33FCD5F0ED22E2
:0E18BA00E5F0247EA2D513CC92E7CDCEFF221E
:1018C800EDD2E7CD33EC3392D524814006E4FFFE18
:1018D800FDFC22FCE4CFCECDCC24E0501174FF8077
:1018E800EDC3CC13CCCD13CDCE13CECF13CF047014
:0718F800F030D5DE0219F605
:1018FF00E9D2E7C933E833F892D5EDD2E7CD33EC2F
:07190F0033FC5002B2D522A7
:10191600EC30E7100FBF000C0EBE00080DBD000432
:101926000BEB6014A2D5EB13FCED92E7FD2274FFDE
:10193600FCFDFEFF22E480F8A2D574FF13FC7D8037
:03194600E480EF4B
:101EEC000211FEE493A3F8E493A34003F68001F2FD
:101EFC0008DFF48029E493A3F85407240CC8C333F7
:101F0C00C4540F4420C8834004F456800146F6DFC5
:101F1C00E4800B010204081020408090213AE47EFA
:101F2C00019360BCA3FF543F30E509541FFEE493BA
:101F3C00A360010ECF54C025E060A840B8E493A381
:101F4C00FAE493A3F8E493A3C8C582C8CAC583CAAC
:101F5C00F0A3C8C582C8CAC583CADFE9DEE780BE64
:01215200008C
:10194900BB010689828A83E0225002E722BBFE029C
:09195900E32289828A83E49322CF
:10196200BB010CE58229F582E5833AF583E022503A
:1019720006E92582F8E622BBFE06E92582F8E22284
:0D198200E58229F582E5833AF583E493229E
:10198F00EF8DF0A4A8F0CF8CF0A428CE8DF0A42E6C
:02199F00FE2226
:1019A100BC000BBE0029EF8DF084FFADF022E4CC2A
:1019B100F875F008EF2FFFEE33FEEC33FCEE9DECF3
:1019C100984005FCEE9DFE0FD5F0E9E4CEFD22ED39
:1019D100F8F5F0EE8420D21CFEADF075F008EF2F83
:1019E100FFED33FD4007985006D5F0F222C398FD74
:0519F1000FD5F0EA2211
:0E19F600C3E49FFFE49EFEE49DFDE49CFC2202
:00000001FF
