:0300000002000EED
:0C000E00787FE4F6D8FD7581570200559C
:1001E700100854686520636F6465206E6F77206917
:0201F700733A59
:1001FA00C2A5C2A4D2A38F807F147E001201A7C217
:02020A00A3222D
:10020C00D2A5C2A4D2A38F807F147E001201A7C2F4
:02021C00A3221B
:100183007FC41201FAE4F518E51824C4FF1201FA3A
:1001930074482518F8E6FF12020C0518E518C394F5
:0301A3000C40E528
:0101A6002236
:100127007F011201FA7F061201FA7F0E1201FA7F90
:10013700381201FAE4F518E5182480FF1201FA7461
:10014700082518F8E6FF12020C0518E518C39410E5
:0201570040E581
:010159002283
:10021E00303132333435363738394142434445462E
:1001A700E4FDFCC3ED9FEC9E5015E4FBFA0BBB008E
:0F01B700010AEB64644A70F50DBD00010C80E491
:0101C6002216
:03000B00020006EA
:030006000543327D
:030003000200E612
:0900E600C0E0C0D075D000C000DC
:1000EF00300029E543C3943F500AE543C3942140B0
:1000FF000375210074222521F8A6437543000521BD
:10010F00E521B4210CD2017521008005754300D281
:01011F0000DF
:07012000D000D0D0D0E03286
:0D022E00758902E4F58CF58AD2A9D28C22E4
:07023B00D288D2A8D2AF2245
:10015A007E01E4FD7C01EFC313FF74222EF8E6D37F
:10016A00940740034307800E0CBC09EA74442DF837
:08017A00A607E4FF0DBD04DC43
:01018200225A
:10009A00E544C4540F90021E93F548E544540F9367
:1000AA00F549E545C4540F93F54AE545540F93F5D0
:1000BA004B754C2D754D28E546C4540F93F54EE506
:1000CA0046541093F54F75502FE547C4540F93F5D6
:0C00DA0051E547540F93F552755329224D
:1001C70012023B12022E1201273001FD12015A12B0
:1001D700009A120183E54E454FFFF590C20180E971
:10001A000201C7E493A3F8E493A34003F68001F234
:10002A0008DFF48029E493A3F85407240CC8C333E7
:10003A00C4540F4420C8834004F456800146F6DFB6
:10004A00E4800B01020408102040809001E7E47E5E
:10005A00019360BCA3FF543F30E509541FFEE493AB
:10006A00A360010ECF54C025E060A840B8E493A372
:10007A00FAE493A3F8E493A3C8C582C8CAC583CA9D
:10008A00F0A3C8C582C8CAC583CADFE9DEE780BE55
:0101F9000005
:00000001FF
