:100800007508FE7580DFE4F509F50A8508807F46E6
:100810007E0012086EAF087801EF08800123D8FD32
:10082000F508050AE50A70020509C39408E509946C
:100830000040D8E4F509F50AC3E50A9408E50994EF
:100840000050C3AF087801EF08800103D8FDF580A0
:100850007F467E0012086EAF087801EF0880010322
:0E086000D8FDF508050AE50A70CE050980CA24
:10086E00D3EF9400EE94004015E4FDFC0DBD0001A5
:0E087E000CBC04F8BD4CF5EF1F70E51E80E2C7
:01088C002249
:0300000002088D66
:0C088D00787FE4F6D8FD75810A020800AF
:00000001FF
