:050256001202867F3258
:10025B00E4FDFCC3ED9FEE6480F8EC6480985015D0
:10026B00E4FBFA0BBB00010ABA03F8BBE8F50DBDC2
:05027B0000010C80DE13
:01028000225B
:0F02A700C2A38F80C2A4D2A48D80C2A4D2A422ED
:05028100FF1202A7FDC1
:0F028600D2A38F80C2A4D2A48D80C2A4D2A422FE
:0902CE00AD07AC06AF0402028684
:10029500AB05AA04AD07E4FF1202A7AF02AD030246
:0202A5000286CF
:10000300D2B7D2A07F057E0012025BC2A012025BB0
:10001300D2A0D2A2D2A5D2A412025BC2A27DE5E4F1
:10002300FF1202A77DF07F781202867D01FF120284
:10003300A71D0F1202867D021F1202A7FD7F071262
:1000430002867D03FF1202A77D307F101202867D98
:10005300041202817D081202A71D7F021202867D0F
:10006300091202817D0A1202827D0C1202827D0D29
:100073001202827D0F1202827D101202827D111202
:1000830002A77D071202867D121202827D131202DD
:10009300827D071202A77D011202567D10E4FF1232
:1000A30002A77D907F101202867D11FF1202A77DA9
:1000B300277F021202567D12E4FF1202A77D1F1250
:1000C30002567D13E4FF1202A7FD7F151202867DFF
:1000D30029FF1202A77D271202867D2B1202A77D1C
:1000E3000D1202567D20E41202817D211202827DCF
:1000F300301202827D311202A77D077F071202862A
:100103007D32FF1202A77D077F031202867D35FF32
:100113001202A7FD7F021202867D36FF1202A77D1F
:10012300081202867D371202A77D041202867D38EB
:100133001202827D391202A77D077F071202867D94
:100143003CFF1202A77D021202867D3D1202A77DAB
:10015300047F1D1202867D501202817D511202A777
:100163007DEF1202867D521202827D531202A77D19
:100173003F0F1202867D601F1202A7FD7FA71202A6
:10018300867D61FF1202A77D011202867D6A12023B
:10019300827D801202827D811202827D821202821E
:1001A3007D831202827D841202827D851202827D0A
:1001B300901202A77D101202867D921202A7FD7F84
:1001C300061202867D07FF1202A77D330F120286F5
:0301D300D2A22293
:1001D6008E0A8F0B8C0C8D0D8B828A83AD0BAC0A2D
:1001E6007F50120295AD0DAC0C7F51120295AD8277
:1001F600AC837F52120295AD11AC107F531202955B
:10020600AD0BAC0A7F20120295AD82AC837F211222
:0902160002957D22E4FF0202A71B
:04021F008E088F09AD
:10022300751001751140E4FBFA7DF0FCFFFE12012D
:10023300D6E4FBFA900000AF09AE081202CEA3E5A4
:100243008264F0458370F00BBB00010ABA01E5BB81
:0202530040E287
:010255002286
:0C02B6001200037FE07E0712021F80FE92
:030000000202C237
:0C02C200787FE4F6D8FD7581110202B6C9
:00000001FF
